{
  "address": "0xa1dC5cF3773cD2d5F208660ca96eaD91f8D19212",
  "abi": [
    {
      "inputs": [
        {
          "internalType": "address",
          "name": "resolver",
          "type": "address"
        }
      ],
      "stateMutability": "nonpayable",
      "type": "constructor"
    },
    {
      "anonymous": false,
      "inputs": [
        {
          "indexed": true,
          "internalType": "address",
          "name": "owner",
          "type": "address"
        },
        {
          "indexed": true,
          "internalType": "address",
          "name": "approved",
          "type": "address"
        },
        {
          "indexed": true,
          "internalType": "uint256",
          "name": "tokenId",
          "type": "uint256"
        }
      ],
      "name": "Approval",
      "type": "event"
    },
    {
      "anonymous": false,
      "inputs": [
        {
          "indexed": true,
          "internalType": "address",
          "name": "owner",
          "type": "address"
        },
        {
          "indexed": true,
          "internalType": "address",
          "name": "operator",
          "type": "address"
        },
        {
          "indexed": false,
          "internalType": "bool",
          "name": "approved",
          "type": "bool"
        }
      ],
      "name": "ApprovalForAll",
      "type": "event"
    },
    {
      "anonymous": false,
      "inputs": [
        {
          "indexed": false,
          "internalType": "uint256",
          "name": "tokenId",
          "type": "uint256"
        },
        {
          "indexed": false,
          "internalType": "bool",
          "name": "rentIsValid",
          "type": "bool"
        }
      ],
      "name": "DisputeSettled",
      "type": "event"
    },
    {
      "anonymous": false,
      "inputs": [
        {
          "indexed": true,
          "internalType": "address",
          "name": "from",
          "type": "address"
        },
        {
          "indexed": true,
          "internalType": "address",
          "name": "to",
          "type": "address"
        },
        {
          "indexed": true,
          "internalType": "uint256",
          "name": "tokenId",
          "type": "uint256"
        }
      ],
      "name": "Transfer",
      "type": "event"
    },
    {
      "inputs": [
        {
          "internalType": "contract IERC721",
          "name": "erc721Contract",
          "type": "address"
        },
        {
          "internalType": "uint256",
          "name": "tokenId",
          "type": "uint256"
        },
        {
          "internalType": "bool",
          "name": "allow",
          "type": "bool"
        },
        {
          "internalType": "uint256",
          "name": "pricePerSecond",
          "type": "uint256"
        },
        {
          "internalType": "uint256",
          "name": "collateralPerSecond",
          "type": "uint256"
        }
      ],
      "name": "allowRent",
      "outputs": [],
      "stateMutability": "nonpayable",
      "type": "function"
    },
    {
      "inputs": [
        {
          "internalType": "address",
          "name": "to",
          "type": "address"
        },
        {
          "internalType": "uint256",
          "name": "tokenId",
          "type": "uint256"
        }
      ],
      "name": "approve",
      "outputs": [],
      "stateMutability": "nonpayable",
      "type": "function"
    },
    {
      "inputs": [
        {
          "internalType": "address",
          "name": "owner",
          "type": "address"
        }
      ],
      "name": "balanceOf",
      "outputs": [
        {
          "internalType": "uint256",
          "name": "",
          "type": "uint256"
        }
      ],
      "stateMutability": "view",
      "type": "function"
    },
    {
      "inputs": [
        {
          "internalType": "uint256",
          "name": "tokenId",
          "type": "uint256"
        }
      ],
      "name": "finalizeRent",
      "outputs": [],
      "stateMutability": "nonpayable",
      "type": "function"
    },
    {
      "inputs": [
        {
          "internalType": "uint256",
          "name": "tokenId",
          "type": "uint256"
        }
      ],
      "name": "getApproved",
      "outputs": [
        {
          "internalType": "address",
          "name": "",
          "type": "address"
        }
      ],
      "stateMutability": "view",
      "type": "function"
    },
    {
      "inputs": [],
      "name": "getBalance",
      "outputs": [
        {
          "internalType": "uint256",
          "name": "",
          "type": "uint256"
        }
      ],
      "stateMutability": "view",
      "type": "function"
    },
    {
      "inputs": [
        {
          "internalType": "contract IERC721",
          "name": "erc721Contract",
          "type": "address"
        },
        {
          "internalType": "uint256",
          "name": "tokenId",
          "type": "uint256"
        }
      ],
      "name": "getRentConditions",
      "outputs": [
        {
          "components": [
            {
              "internalType": "bool",
              "name": "allowed",
              "type": "bool"
            },
            {
              "internalType": "uint256",
              "name": "pricePerSecond",
              "type": "uint256"
            },
            {
              "internalType": "uint256",
              "name": "collateralPerSecond",
              "type": "uint256"
            },
            {
              "internalType": "uint256",
              "name": "currentRentingToken",
              "type": "uint256"
            }
          ],
          "internalType": "struct IERC721Rent.RentConditions",
          "name": "",
          "type": "tuple"
        }
      ],
      "stateMutability": "view",
      "type": "function"
    },
    {
      "inputs": [
        {
          "internalType": "uint256",
          "name": "tokenId",
          "type": "uint256"
        }
      ],
      "name": "getTokenData",
      "outputs": [
        {
          "components": [
            {
              "internalType": "uint256",
              "name": "startTs",
              "type": "uint256"
            },
            {
              "internalType": "uint256",
              "name": "endTs",
              "type": "uint256"
            },
            {
              "internalType": "address",
              "name": "sourceERC721Contract",
              "type": "address"
            },
            {
              "internalType": "uint256",
              "name": "sourceTokenId",
              "type": "uint256"
            },
            {
              "internalType": "uint256",
              "name": "price",
              "type": "uint256"
            },
            {
              "internalType": "uint256",
              "name": "collateral",
              "type": "uint256"
            },
            {
              "internalType": "enum IERC721Rent.RentStatus",
              "name": "status",
              "type": "uint8"
            }
          ],
          "internalType": "struct IERC721Rent.Rent",
          "name": "",
          "type": "tuple"
        }
      ],
      "stateMutability": "view",
      "type": "function"
    },
    {
      "inputs": [
        {
          "internalType": "address",
          "name": "owner",
          "type": "address"
        },
        {
          "internalType": "address",
          "name": "operator",
          "type": "address"
        }
      ],
      "name": "isApprovedForAll",
      "outputs": [
        {
          "internalType": "bool",
          "name": "",
          "type": "bool"
        }
      ],
      "stateMutability": "view",
      "type": "function"
    },
    {
      "inputs": [],
      "name": "listRentConditions",
      "outputs": [
        {
          "components": [
            {
              "internalType": "bool",
              "name": "allowed",
              "type": "bool"
            },
            {
              "internalType": "uint256",
              "name": "pricePerSecond",
              "type": "uint256"
            },
            {
              "internalType": "uint256",
              "name": "collateralPerSecond",
              "type": "uint256"
            },
            {
              "internalType": "uint256",
              "name": "currentRentingToken",
              "type": "uint256"
            }
          ],
          "internalType": "struct IERC721Rent.RentConditions[]",
          "name": "",
          "type": "tuple[]"
        }
      ],
      "stateMutability": "view",
      "type": "function"
    },
    {
      "inputs": [],
      "name": "name",
      "outputs": [
        {
          "internalType": "string",
          "name": "",
          "type": "string"
        }
      ],
      "stateMutability": "view",
      "type": "function"
    },
    {
      "inputs": [
        {
          "internalType": "uint256",
          "name": "tokenId",
          "type": "uint256"
        }
      ],
      "name": "ownerOf",
      "outputs": [
        {
          "internalType": "address",
          "name": "",
          "type": "address"
        }
      ],
      "stateMutability": "view",
      "type": "function"
    },
    {
      "inputs": [
        {
          "internalType": "contract IERC721",
          "name": "erc721Contract",
          "type": "address"
        },
        {
          "internalType": "uint256",
          "name": "tokenId",
          "type": "uint256"
        },
        {
          "internalType": "uint256",
          "name": "duration",
          "type": "uint256"
        }
      ],
      "name": "rent",
      "outputs": [
        {
          "internalType": "uint256",
          "name": "",
          "type": "uint256"
        }
      ],
      "stateMutability": "payable",
      "type": "function"
    },
    {
      "inputs": [
        {
          "internalType": "uint256",
          "name": "tokenId",
          "type": "uint256"
        }
      ],
      "name": "resolveDispute",
      "outputs": [],
      "stateMutability": "nonpayable",
      "type": "function"
    },
    {
      "inputs": [
        {
          "internalType": "address",
          "name": "from",
          "type": "address"
        },
        {
          "internalType": "address",
          "name": "to",
          "type": "address"
        },
        {
          "internalType": "uint256",
          "name": "tokenId",
          "type": "uint256"
        }
      ],
      "name": "safeTransferFrom",
      "outputs": [],
      "stateMutability": "nonpayable",
      "type": "function"
    },
    {
      "inputs": [
        {
          "internalType": "address",
          "name": "from",
          "type": "address"
        },
        {
          "internalType": "address",
          "name": "to",
          "type": "address"
        },
        {
          "internalType": "uint256",
          "name": "tokenId",
          "type": "uint256"
        },
        {
          "internalType": "bytes",
          "name": "data",
          "type": "bytes"
        }
      ],
      "name": "safeTransferFrom",
      "outputs": [],
      "stateMutability": "nonpayable",
      "type": "function"
    },
    {
      "inputs": [
        {
          "internalType": "address",
          "name": "operator",
          "type": "address"
        },
        {
          "internalType": "bool",
          "name": "approved",
          "type": "bool"
        }
      ],
      "name": "setApprovalForAll",
      "outputs": [],
      "stateMutability": "nonpayable",
      "type": "function"
    },
    {
      "inputs": [
        {
          "internalType": "bytes4",
          "name": "interfaceId",
          "type": "bytes4"
        }
      ],
      "name": "supportsInterface",
      "outputs": [
        {
          "internalType": "bool",
          "name": "",
          "type": "bool"
        }
      ],
      "stateMutability": "view",
      "type": "function"
    },
    {
      "inputs": [],
      "name": "symbol",
      "outputs": [
        {
          "internalType": "string",
          "name": "",
          "type": "string"
        }
      ],
      "stateMutability": "view",
      "type": "function"
    },
    {
      "inputs": [
        {
          "internalType": "uint256",
          "name": "tokenId",
          "type": "uint256"
        }
      ],
      "name": "tokenURI",
      "outputs": [
        {
          "internalType": "string",
          "name": "",
          "type": "string"
        }
      ],
      "stateMutability": "view",
      "type": "function"
    },
    {
      "inputs": [
        {
          "internalType": "address",
          "name": "from",
          "type": "address"
        },
        {
          "internalType": "address",
          "name": "to",
          "type": "address"
        },
        {
          "internalType": "uint256",
          "name": "tokenId",
          "type": "uint256"
        }
      ],
      "name": "transferFrom",
      "outputs": [],
      "stateMutability": "nonpayable",
      "type": "function"
    },
    {
      "inputs": [],
      "name": "withdraw",
      "outputs": [],
      "stateMutability": "nonpayable",
      "type": "function"
    }
  ],
  "transactionHash": "0x3d2947c2ee87a8b388ff3113f073b03743c9605cdd1bc77126d0050a747715f3",
  "args": [
    "0x244C8d14B5de15357c5d7C42d51062b7A74c5ff5"
  ],
  "numDeployments": 4,
  "solcInputHash": "668a02e5e21b52f1676109303c03cc87",
  "bytecode": "0x60806040523480156200001157600080fd5b506040516200480b3803806200480b833981810160405281019062000037919062000266565b6040518060400160405280600d81526020017f45524337323157726170706572000000000000000000000000000000000000008152506040518060400160405280600381526020017f45435700000000000000000000000000000000000000000000000000000000008152508160009080519060200190620000bb9291906200014c565b508060019080519060200190620000d49291906200014c565b50505080600c60006101000a81548173ffffffffffffffffffffffffffffffffffffffff021916908373ffffffffffffffffffffffffffffffffffffffff1602179055506200012f60066200013660201b62001fa71760201c565b50620002fd565b6001816000016000828254019250508190555050565b8280546200015a90620002c7565b90600052602060002090601f0160209004810192826200017e5760008555620001ca565b82601f106200019957805160ff1916838001178555620001ca565b82800160010185558215620001ca579182015b82811115620001c9578251825591602001919060010190620001ac565b5b509050620001d99190620001dd565b5090565b5b80821115620001f8576000816000905550600101620001de565b5090565b600080fd5b600073ffffffffffffffffffffffffffffffffffffffff82169050919050565b60006200022e8262000201565b9050919050565b620002408162000221565b81146200024c57600080fd5b50565b600081519050620002608162000235565b92915050565b6000602082840312156200027f576200027e620001fc565b5b60006200028f848285016200024f565b91505092915050565b7f4e487b7100000000000000000000000000000000000000000000000000000000600052602260045260246000fd5b60006002820490506001821680620002e057607f821691505b60208210811415620002f757620002f662000298565b5b50919050565b6144fe806200030d6000396000f3fe6080604052600436106101355760003560e01c806370a08231116100ab578063b88d4fde1161006f578063b88d4fde1461043f578063c2b7b86814610468578063c86c892114610491578063c87b56dd146104ba578063e9679937146104f7578063e985e9c51461052057610135565b806370a082311461034657806395d89b4114610383578063a22cb465146103ae578063b09afec1146103d7578063b5e8c9b91461041457610135565b806323b872dd116100fd57806323b872dd146102335780633ccfd60b1461025c57806342842e0e146102735780634dc32a181461029c5780636352211e146102cc5780636c5cad481461030957610135565b806301ffc9a71461013a57806306fdde0314610177578063081812fc146101a2578063095ea7b3146101df57806312065fe014610208575b600080fd5b34801561014657600080fd5b50610161600480360381019061015c9190612c83565b61055d565b60405161016e9190612ccb565b60405180910390f35b34801561018357600080fd5b5061018c61063f565b6040516101999190612d7f565b60405180910390f35b3480156101ae57600080fd5b506101c960048036038101906101c49190612dd7565b6106d1565b6040516101d69190612e45565b60405180910390f35b3480156101eb57600080fd5b5061020660048036038101906102019190612e8c565b610717565b005b34801561021457600080fd5b5061021d61082f565b60405161022a9190612edb565b60405180910390f35b34801561023f57600080fd5b5061025a60048036038101906102559190612ef6565b610876565b005b34801561026857600080fd5b506102716108d6565b005b34801561027f57600080fd5b5061029a60048036038101906102959190612ef6565b610a5e565b005b6102b660048036038101906102b19190612f87565b610a7e565b6040516102c39190612edb565b60405180910390f35b3480156102d857600080fd5b506102f360048036038101906102ee9190612dd7565b610deb565b6040516103009190612e45565b60405180910390f35b34801561031557600080fd5b50610330600480360381019061032b9190612fda565b610e9d565b60405161033d919061308d565b60405180910390f35b34801561035257600080fd5b5061036d600480360381019061036891906130a8565b610f41565b60405161037a9190612edb565b60405180910390f35b34801561038f57600080fd5b50610398610ff9565b6040516103a59190612d7f565b60405180910390f35b3480156103ba57600080fd5b506103d560048036038101906103d09190613101565b61108b565b005b3480156103e357600080fd5b506103fe60048036038101906103f99190612dd7565b6110a1565b60405161040b9190613255565b60405180910390f35b34801561042057600080fd5b50610429611191565b6040516104369190613374565b60405180910390f35b34801561044b57600080fd5b50610466600480360381019061046191906134cb565b61131d565b005b34801561047457600080fd5b5061048f600480360381019061048a9190612dd7565b61137f565b005b34801561049d57600080fd5b506104b860048036038101906104b39190612dd7565b611742565b005b3480156104c657600080fd5b506104e160048036038101906104dc9190612dd7565b611afa565b6040516104ee9190612d7f565b60405180910390f35b34801561050357600080fd5b5061051e6004803603810190610519919061354e565b611b62565b005b34801561052c57600080fd5b50610547600480360381019061054291906135c9565b611f13565b6040516105549190612ccb565b60405180910390f35b60007f80ac58cd000000000000000000000000000000000000000000000000000000007bffffffffffffffffffffffffffffffffffffffffffffffffffffffff1916827bffffffffffffffffffffffffffffffffffffffffffffffffffffffff1916148061062857507f5b5e139f000000000000000000000000000000000000000000000000000000007bffffffffffffffffffffffffffffffffffffffffffffffffffffffff1916827bffffffffffffffffffffffffffffffffffffffffffffffffffffffff1916145b80610638575061063782611fbd565b5b9050919050565b60606000805461064e90613638565b80601f016020809104026020016040519081016040528092919081815260200182805461067a90613638565b80156106c75780601f1061069c576101008083540402835291602001916106c7565b820191906000526020600020905b8154815290600101906020018083116106aa57829003601f168201915b5050505050905090565b60006106dc82612027565b6004600083815260200190815260200160002060009054906101000a900473ffffffffffffffffffffffffffffffffffffffff169050919050565b600061072282610deb565b90508073ffffffffffffffffffffffffffffffffffffffff168373ffffffffffffffffffffffffffffffffffffffff161415610793576040517f08c379a000000000000000000000000000000000000000000000000000000000815260040161078a906136dc565b60405180910390fd5b8073ffffffffffffffffffffffffffffffffffffffff166107b2612072565b73ffffffffffffffffffffffffffffffffffffffff1614806107e157506107e0816107db612072565b611f13565b5b610820576040517f08c379a00000000000000000000000000000000000000000000000000000000081526004016108179061376e565b60405180910390fd5b61082a838361207a565b505050565b6000600860003373ffffffffffffffffffffffffffffffffffffffff1673ffffffffffffffffffffffffffffffffffffffff16815260200190815260200160002054905090565b610887610881612072565b82612133565b6108c6576040517f08c379a00000000000000000000000000000000000000000000000000000000081526004016108bd90613800565b60405180910390fd5b6108d18383836121c8565b505050565b6000600860003373ffffffffffffffffffffffffffffffffffffffff1673ffffffffffffffffffffffffffffffffffffffff1681526020019081526020016000205411610958576040517f08c379a000000000000000000000000000000000000000000000000000000000815260040161094f9061386c565b60405180910390fd5b6000600860003373ffffffffffffffffffffffffffffffffffffffff1673ffffffffffffffffffffffffffffffffffffffff1681526020019081526020016000205490506000600860003373ffffffffffffffffffffffffffffffffffffffff1673ffffffffffffffffffffffffffffffffffffffff1681526020019081526020016000208190555060003373ffffffffffffffffffffffffffffffffffffffff166108fc839081150290604051600060405180830381858888f19350505050905080610a5a576040517f08c379a0000000000000000000000000000000000000000000000000000000008152600401610a51906138d8565b60405180910390fd5b5050565b610a798383836040518060200160405280600081525061131d565b505050565b600080600760008673ffffffffffffffffffffffffffffffffffffffff1673ffffffffffffffffffffffffffffffffffffffff16815260200190815260200160002060008581526020019081526020016000209050600115158160000160009054906101000a900460ff16151514610b2b576040517f08c379a0000000000000000000000000000000000000000000000000000000008152600401610b2290613944565b60405180910390fd5b6000600760008773ffffffffffffffffffffffffffffffffffffffff1673ffffffffffffffffffffffffffffffffffffffff16815260200190815260200160002060008681526020019081526020016000206003015414610bc1576040517f08c379a0000000000000000000000000000000000000000000000000000000008152600401610bb8906139b0565b60405180910390fd5b6000816001015484610bd391906139ff565b90506000826002015485610be791906139ff565b90508082610bf59190613a59565b341015610c37576040517f08c379a0000000000000000000000000000000000000000000000000000000008152600401610c2e90613afb565b60405180910390fd5b610c416006611fa7565b6000610c4d600661242f565b905060006040518060e001604052804281526020018842610c6e9190613a59565b81526020018a73ffffffffffffffffffffffffffffffffffffffff16815260200189815260200185815260200184815260200160016003811115610cb557610cb4613150565b5b815250905081600760008b73ffffffffffffffffffffffffffffffffffffffff1673ffffffffffffffffffffffffffffffffffffffff16815260200190815260200160002060008a8152602001908152602001600020600301819055508060096000848152602001908152602001600020600082015181600001556020820151816001015560408201518160020160006101000a81548173ffffffffffffffffffffffffffffffffffffffff021916908373ffffffffffffffffffffffffffffffffffffffff160217905550606082015181600301556080820151816004015560a0820151816005015560c08201518160060160006101000a81548160ff02191690836003811115610dca57610dc9613150565b5b0217905550905050610ddc338361243d565b81955050505050509392505050565b6000806002600084815260200190815260200160002060009054906101000a900473ffffffffffffffffffffffffffffffffffffffff169050600073ffffffffffffffffffffffffffffffffffffffff168173ffffffffffffffffffffffffffffffffffffffff161415610e94576040517f08c379a0000000000000000000000000000000000000000000000000000000008152600401610e8b90613b67565b60405180910390fd5b80915050919050565b610ea5612b88565b600760008473ffffffffffffffffffffffffffffffffffffffff1673ffffffffffffffffffffffffffffffffffffffff16815260200190815260200160002060008381526020019081526020016000206040518060800160405290816000820160009054906101000a900460ff161515151581526020016001820154815260200160028201548152602001600382015481525050905092915050565b60008073ffffffffffffffffffffffffffffffffffffffff168273ffffffffffffffffffffffffffffffffffffffff161415610fb2576040517f08c379a0000000000000000000000000000000000000000000000000000000008152600401610fa990613bf9565b60405180910390fd5b600360008373ffffffffffffffffffffffffffffffffffffffff1673ffffffffffffffffffffffffffffffffffffffff168152602001908152602001600020549050919050565b60606001805461100890613638565b80601f016020809104026020016040519081016040528092919081815260200182805461103490613638565b80156110815780601f1061105657610100808354040283529160200191611081565b820191906000526020600020905b81548152906001019060200180831161106457829003601f168201915b5050505050905090565b61109d611096612072565b8383612617565b5050565b6110a9612bb2565b600960008381526020019081526020016000206040518060e001604052908160008201548152602001600182015481526020016002820160009054906101000a900473ffffffffffffffffffffffffffffffffffffffff1673ffffffffffffffffffffffffffffffffffffffff1673ffffffffffffffffffffffffffffffffffffffff1681526020016003820154815260200160048201548152602001600582015481526020016006820160009054906101000a900460ff16600381111561117457611173613150565b5b600381111561118657611185613150565b5b815250509050919050565b60606000600b80549050905060008167ffffffffffffffff8111156111b9576111b86133a0565b5b6040519080825280602002602001820160405280156111f257816020015b6111df612b88565b8152602001906001900390816111d75790505b50905060005b82811015611314576000600b828154811061121657611215613c19565b5b90600052602060002090600202019050600760008260000160009054906101000a900473ffffffffffffffffffffffffffffffffffffffff1673ffffffffffffffffffffffffffffffffffffffff1673ffffffffffffffffffffffffffffffffffffffff1681526020019081526020016000206000826001015481526020019081526020016000206040518060800160405290816000820160009054906101000a900460ff1615151515815260200160018201548152602001600282015481526020016003820154815250508383815181106112f5576112f4613c19565b5b602002602001018190525050808061130c90613c48565b9150506111f8565b50809250505090565b61132e611328612072565b83612133565b61136d576040517f08c379a000000000000000000000000000000000000000000000000000000000815260040161136490613800565b60405180910390fd5b61137984848484612784565b50505050565b6000600960008381526020019081526020016000209050600073ffffffffffffffffffffffffffffffffffffffff168160020160009054906101000a900473ffffffffffffffffffffffffffffffffffffffff1673ffffffffffffffffffffffffffffffffffffffff16141561142a576040517f08c379a000000000000000000000000000000000000000000000000000000000815260040161142190613cdd565b60405180910390fd5b6002600381111561143e5761143d613150565b5b8160060160009054906101000a900460ff16600381111561146257611461613150565b5b146114a2576040517f08c379a000000000000000000000000000000000000000000000000000000000815260040161149990613d49565b60405180910390fd5b6000600c60009054906101000a900473ffffffffffffffffffffffffffffffffffffffff1673ffffffffffffffffffffffffffffffffffffffff1663a5a21a2e846040518263ffffffff1660e01b81526004016114ff9190612edb565b602060405180830381600087803b15801561151957600080fd5b505af115801561152d573d6000803e3d6000fd5b505050506040513d601f19601f820116820180604052508101906115519190613d7e565b905080156115c657600061156484610deb565b90508260050154600860008373ffffffffffffffffffffffffffffffffffffffff1673ffffffffffffffffffffffffffffffffffffffff16815260200190815260200160002060008282546115b99190613a59565b92505081905550506116d7565b60008260020160009054906101000a900473ffffffffffffffffffffffffffffffffffffffff1673ffffffffffffffffffffffffffffffffffffffff16636352211e84600301546040518263ffffffff1660e01b81526004016116299190612edb565b60206040518083038186803b15801561164157600080fd5b505afa158015611655573d6000803e3d6000fd5b505050506040513d601f19601f820116820180604052508101906116799190613dc0565b90508260050154600860008373ffffffffffffffffffffffffffffffffffffffff1673ffffffffffffffffffffffffffffffffffffffff16815260200190815260200160002060008282546116ce9190613a59565b92505081905550505b7faa76612075dcf5624c76b21b3b0f6babbeee4e6b6197fb4fb4a2a5654724812a8382604051611708929190613ded565b60405180910390a160038260060160006101000a81548160ff0219169083600381111561173857611737613150565b5b0217905550505050565b6000600960008381526020019081526020016000209050600073ffffffffffffffffffffffffffffffffffffffff168160020160009054906101000a900473ffffffffffffffffffffffffffffffffffffffff1673ffffffffffffffffffffffffffffffffffffffff1614156117ed576040517f08c379a00000000000000000000000000000000000000000000000000000000081526004016117e490613cdd565b60405180910390fd5b6001600381111561180157611800613150565b5b8160060160009054906101000a900460ff16600381111561182557611824613150565b5b14611865576040517f08c379a000000000000000000000000000000000000000000000000000000000815260040161185c90613e62565b60405180910390fd5b806001015442116118ab576040517f08c379a00000000000000000000000000000000000000000000000000000000081526004016118a290613ece565b60405180910390fd5b60028160060160006101000a81548160ff021916908360038111156118d3576118d2613150565b5b02179055506000600760008360020160009054906101000a900473ffffffffffffffffffffffffffffffffffffffff1673ffffffffffffffffffffffffffffffffffffffff1673ffffffffffffffffffffffffffffffffffffffff1681526020019081526020016000206000836003015481526020019081526020016000206003018190555060008160020160009054906101000a900473ffffffffffffffffffffffffffffffffffffffff1673ffffffffffffffffffffffffffffffffffffffff16636352211e83600301546040518263ffffffff1660e01b81526004016119bc9190612edb565b60206040518083038186803b1580156119d457600080fd5b505afa1580156119e8573d6000803e3d6000fd5b505050506040513d601f19601f82011682018060405250810190611a0c9190613dc0565b90508160040154600860008373ffffffffffffffffffffffffffffffffffffffff1673ffffffffffffffffffffffffffffffffffffffff1681526020019081526020016000206000828254611a619190613a59565b92505081905550600c60009054906101000a900473ffffffffffffffffffffffffffffffffffffffff1673ffffffffffffffffffffffffffffffffffffffff1663dd9db427846040518263ffffffff1660e01b8152600401611ac39190612edb565b600060405180830381600087803b158015611add57600080fd5b505af1158015611af1573d6000803e3d6000fd5b50505050505050565b6060611b0582612027565b6000611b0f6127e0565b90506000815111611b2f5760405180602001604052806000815250611b5a565b80611b39846127f7565b604051602001611b4a929190613f2a565b6040516020818303038152906040525b915050919050565b3373ffffffffffffffffffffffffffffffffffffffff168573ffffffffffffffffffffffffffffffffffffffff16636352211e866040518263ffffffff1660e01b8152600401611bb29190612edb565b60206040518083038186803b158015611bca57600080fd5b505afa158015611bde573d6000803e3d6000fd5b505050506040513d601f19601f82011682018060405250810190611c029190613dc0565b73ffffffffffffffffffffffffffffffffffffffff1614611c58576040517f08c379a0000000000000000000000000000000000000000000000000000000008152600401611c4f90613f9a565b60405180910390fd5b6000600760008773ffffffffffffffffffffffffffffffffffffffff1673ffffffffffffffffffffffffffffffffffffffff16815260200190815260200160002060008681526020019081526020016000206003015414611cee576040517f08c379a0000000000000000000000000000000000000000000000000000000008152600401611ce590614006565b60405180910390fd5b604051806080016040528084151581526020018381526020018281526020016000815250600760008773ffffffffffffffffffffffffffffffffffffffff1673ffffffffffffffffffffffffffffffffffffffff168152602001908152602001600020600086815260200190815260200160002060008201518160000160006101000a81548160ff0219169083151502179055506020820151816001015560408201518160020155606082015181600301559050506000600a60008773ffffffffffffffffffffffffffffffffffffffff1673ffffffffffffffffffffffffffffffffffffffff1681526020019081526020016000206000868152602001908152602001600020541415611f0c576001600b80549050611e0e9190613a59565b600a60008773ffffffffffffffffffffffffffffffffffffffff1673ffffffffffffffffffffffffffffffffffffffff168152602001908152602001600020600086815260200190815260200160002081905550600b60405180604001604052808773ffffffffffffffffffffffffffffffffffffffff16815260200186815250908060018154018082558091505060019003906000526020600020906002020160009091909190915060008201518160000160006101000a81548173ffffffffffffffffffffffffffffffffffffffff021916908373ffffffffffffffffffffffffffffffffffffffff1602179055506020820151816001015550505b5050505050565b6000600560008473ffffffffffffffffffffffffffffffffffffffff1673ffffffffffffffffffffffffffffffffffffffff16815260200190815260200160002060008373ffffffffffffffffffffffffffffffffffffffff1673ffffffffffffffffffffffffffffffffffffffff16815260200190815260200160002060009054906101000a900460ff16905092915050565b6001816000016000828254019250508190555050565b60007f01ffc9a7000000000000000000000000000000000000000000000000000000007bffffffffffffffffffffffffffffffffffffffffffffffffffffffff1916827bffffffffffffffffffffffffffffffffffffffffffffffffffffffff1916149050919050565b61203081612958565b61206f576040517f08c379a000000000000000000000000000000000000000000000000000000000815260040161206690613b67565b60405180910390fd5b50565b600033905090565b816004600083815260200190815260200160002060006101000a81548173ffffffffffffffffffffffffffffffffffffffff021916908373ffffffffffffffffffffffffffffffffffffffff160217905550808273ffffffffffffffffffffffffffffffffffffffff166120ed83610deb565b73ffffffffffffffffffffffffffffffffffffffff167f8c5be1e5ebec7d5bd14f71427d1e84f3dd0314c0f7b2291e5b200ac8c7c3b92560405160405180910390a45050565b60008061213f83610deb565b90508073ffffffffffffffffffffffffffffffffffffffff168473ffffffffffffffffffffffffffffffffffffffff16148061218157506121808185611f13565b5b806121bf57508373ffffffffffffffffffffffffffffffffffffffff166121a7846106d1565b73ffffffffffffffffffffffffffffffffffffffff16145b91505092915050565b8273ffffffffffffffffffffffffffffffffffffffff166121e882610deb565b73ffffffffffffffffffffffffffffffffffffffff161461223e576040517f08c379a000000000000000000000000000000000000000000000000000000000815260040161223590614098565b60405180910390fd5b600073ffffffffffffffffffffffffffffffffffffffff168273ffffffffffffffffffffffffffffffffffffffff1614156122ae576040517f08c379a00000000000000000000000000000000000000000000000000000000081526004016122a59061412a565b60405180910390fd5b6122b98383836129c4565b6122c460008261207a565b6001600360008573ffffffffffffffffffffffffffffffffffffffff1673ffffffffffffffffffffffffffffffffffffffff1681526020019081526020016000206000828254612314919061414a565b925050819055506001600360008473ffffffffffffffffffffffffffffffffffffffff1673ffffffffffffffffffffffffffffffffffffffff168152602001908152602001600020600082825461236b9190613a59565b92505081905550816002600083815260200190815260200160002060006101000a81548173ffffffffffffffffffffffffffffffffffffffff021916908373ffffffffffffffffffffffffffffffffffffffff160217905550808273ffffffffffffffffffffffffffffffffffffffff168473ffffffffffffffffffffffffffffffffffffffff167fddf252ad1be2c89b69c2b068fc378daa952ba7f163c4a11628f55a4df523b3ef60405160405180910390a461242a8383836129c9565b505050565b600081600001549050919050565b600073ffffffffffffffffffffffffffffffffffffffff168273ffffffffffffffffffffffffffffffffffffffff1614156124ad576040517f08c379a00000000000000000000000000000000000000000000000000000000081526004016124a4906141ca565b60405180910390fd5b6124b681612958565b156124f6576040517f08c379a00000000000000000000000000000000000000000000000000000000081526004016124ed90614236565b60405180910390fd5b612502600083836129c4565b6001600360008473ffffffffffffffffffffffffffffffffffffffff1673ffffffffffffffffffffffffffffffffffffffff16815260200190815260200160002060008282546125529190613a59565b92505081905550816002600083815260200190815260200160002060006101000a81548173ffffffffffffffffffffffffffffffffffffffff021916908373ffffffffffffffffffffffffffffffffffffffff160217905550808273ffffffffffffffffffffffffffffffffffffffff16600073ffffffffffffffffffffffffffffffffffffffff167fddf252ad1be2c89b69c2b068fc378daa952ba7f163c4a11628f55a4df523b3ef60405160405180910390a4612613600083836129c9565b5050565b8173ffffffffffffffffffffffffffffffffffffffff168373ffffffffffffffffffffffffffffffffffffffff161415612686576040517f08c379a000000000000000000000000000000000000000000000000000000000815260040161267d906142a2565b60405180910390fd5b80600560008573ffffffffffffffffffffffffffffffffffffffff1673ffffffffffffffffffffffffffffffffffffffff16815260200190815260200160002060008473ffffffffffffffffffffffffffffffffffffffff1673ffffffffffffffffffffffffffffffffffffffff16815260200190815260200160002060006101000a81548160ff0219169083151502179055508173ffffffffffffffffffffffffffffffffffffffff168373ffffffffffffffffffffffffffffffffffffffff167f17307eab39ab6107e8899845ad3d59bd9653f200f220920489ca2b5937696c31836040516127779190612ccb565b60405180910390a3505050565b61278f8484846121c8565b61279b848484846129ce565b6127da576040517f08c379a00000000000000000000000000000000000000000000000000000000081526004016127d190614334565b60405180910390fd5b50505050565b606060405180602001604052806000815250905090565b6060600082141561283f576040518060400160405280600181526020017f30000000000000000000000000000000000000000000000000000000000000008152509050612953565b600082905060005b6000821461287157808061285a90613c48565b915050600a8261286a9190614383565b9150612847565b60008167ffffffffffffffff81111561288d5761288c6133a0565b5b6040519080825280601f01601f1916602001820160405280156128bf5781602001600182028036833780820191505090505b5090505b6000851461294c576001826128d8919061414a565b9150600a856128e791906143b4565b60306128f39190613a59565b60f81b81838151811061290957612908613c19565b5b60200101907effffffffffffffffffffffffffffffffffffffffffffffffffffffffffffff1916908160001a905350600a856129459190614383565b94506128c3565b8093505050505b919050565b60008073ffffffffffffffffffffffffffffffffffffffff166002600084815260200190815260200160002060009054906101000a900473ffffffffffffffffffffffffffffffffffffffff1673ffffffffffffffffffffffffffffffffffffffff1614159050919050565b505050565b505050565b60006129ef8473ffffffffffffffffffffffffffffffffffffffff16612b65565b15612b58578373ffffffffffffffffffffffffffffffffffffffff1663150b7a02612a18612072565b8786866040518563ffffffff1660e01b8152600401612a3a949392919061443a565b602060405180830381600087803b158015612a5457600080fd5b505af1925050508015612a8557506040513d601f19601f82011682018060405250810190612a82919061449b565b60015b612b08573d8060008114612ab5576040519150601f19603f3d011682016040523d82523d6000602084013e612aba565b606091505b50600081511415612b00576040517f08c379a0000000000000000000000000000000000000000000000000000000008152600401612af790614334565b60405180910390fd5b805181602001fd5b63150b7a0260e01b7bffffffffffffffffffffffffffffffffffffffffffffffffffffffff1916817bffffffffffffffffffffffffffffffffffffffffffffffffffffffff191614915050612b5d565b600190505b949350505050565b6000808273ffffffffffffffffffffffffffffffffffffffff163b119050919050565b60405180608001604052806000151581526020016000815260200160008152602001600081525090565b6040518060e001604052806000815260200160008152602001600073ffffffffffffffffffffffffffffffffffffffff16815260200160008152602001600081526020016000815260200160006003811115612c1157612c10613150565b5b81525090565b6000604051905090565b600080fd5b600080fd5b60007fffffffff0000000000000000000000000000000000000000000000000000000082169050919050565b612c6081612c2b565b8114612c6b57600080fd5b50565b600081359050612c7d81612c57565b92915050565b600060208284031215612c9957612c98612c21565b5b6000612ca784828501612c6e565b91505092915050565b60008115159050919050565b612cc581612cb0565b82525050565b6000602082019050612ce06000830184612cbc565b92915050565b600081519050919050565b600082825260208201905092915050565b60005b83811015612d20578082015181840152602081019050612d05565b83811115612d2f576000848401525b50505050565b6000601f19601f8301169050919050565b6000612d5182612ce6565b612d5b8185612cf1565b9350612d6b818560208601612d02565b612d7481612d35565b840191505092915050565b60006020820190508181036000830152612d998184612d46565b905092915050565b6000819050919050565b612db481612da1565b8114612dbf57600080fd5b50565b600081359050612dd181612dab565b92915050565b600060208284031215612ded57612dec612c21565b5b6000612dfb84828501612dc2565b91505092915050565b600073ffffffffffffffffffffffffffffffffffffffff82169050919050565b6000612e2f82612e04565b9050919050565b612e3f81612e24565b82525050565b6000602082019050612e5a6000830184612e36565b92915050565b612e6981612e24565b8114612e7457600080fd5b50565b600081359050612e8681612e60565b92915050565b60008060408385031215612ea357612ea2612c21565b5b6000612eb185828601612e77565b9250506020612ec285828601612dc2565b9150509250929050565b612ed581612da1565b82525050565b6000602082019050612ef06000830184612ecc565b92915050565b600080600060608486031215612f0f57612f0e612c21565b5b6000612f1d86828701612e77565b9350506020612f2e86828701612e77565b9250506040612f3f86828701612dc2565b9150509250925092565b6000612f5482612e24565b9050919050565b612f6481612f49565b8114612f6f57600080fd5b50565b600081359050612f8181612f5b565b92915050565b600080600060608486031215612fa057612f9f612c21565b5b6000612fae86828701612f72565b9350506020612fbf86828701612dc2565b9250506040612fd086828701612dc2565b9150509250925092565b60008060408385031215612ff157612ff0612c21565b5b6000612fff85828601612f72565b925050602061301085828601612dc2565b9150509250929050565b61302381612cb0565b82525050565b61303281612da1565b82525050565b60808201600082015161304e600085018261301a565b5060208201516130616020850182613029565b5060408201516130746040850182613029565b5060608201516130876060850182613029565b50505050565b60006080820190506130a26000830184613038565b92915050565b6000602082840312156130be576130bd612c21565b5b60006130cc84828501612e77565b91505092915050565b6130de81612cb0565b81146130e957600080fd5b50565b6000813590506130fb816130d5565b92915050565b6000806040838503121561311857613117612c21565b5b600061312685828601612e77565b9250506020613137858286016130ec565b9150509250929050565b61314a81612e24565b82525050565b7f4e487b7100000000000000000000000000000000000000000000000000000000600052602160045260246000fd5b600481106131905761318f613150565b5b50565b60008190506131a18261317f565b919050565b60006131b182613193565b9050919050565b6131c1816131a6565b82525050565b60e0820160008201516131dd6000850182613029565b5060208201516131f06020850182613029565b5060408201516132036040850182613141565b5060608201516132166060850182613029565b5060808201516132296080850182613029565b5060a082015161323c60a0850182613029565b5060c082015161324f60c08501826131b8565b50505050565b600060e08201905061326a60008301846131c7565b92915050565b600081519050919050565b600082825260208201905092915050565b6000819050602082019050919050565b6080820160008201516132b2600085018261301a565b5060208201516132c56020850182613029565b5060408201516132d86040850182613029565b5060608201516132eb6060850182613029565b50505050565b60006132fd838361329c565b60808301905092915050565b6000602082019050919050565b600061332182613270565b61332b818561327b565b93506133368361328c565b8060005b8381101561336757815161334e88826132f1565b975061335983613309565b92505060018101905061333a565b5085935050505092915050565b6000602082019050818103600083015261338e8184613316565b905092915050565b600080fd5b600080fd5b7f4e487b7100000000000000000000000000000000000000000000000000000000600052604160045260246000fd5b6133d882612d35565b810181811067ffffffffffffffff821117156133f7576133f66133a0565b5b80604052505050565b600061340a612c17565b905061341682826133cf565b919050565b600067ffffffffffffffff821115613436576134356133a0565b5b61343f82612d35565b9050602081019050919050565b82818337600083830152505050565b600061346e6134698461341b565b613400565b90508281526020810184848401111561348a5761348961339b565b5b61349584828561344c565b509392505050565b600082601f8301126134b2576134b1613396565b5b81356134c284826020860161345b565b91505092915050565b600080600080608085870312156134e5576134e4612c21565b5b60006134f387828801612e77565b945050602061350487828801612e77565b935050604061351587828801612dc2565b925050606085013567ffffffffffffffff81111561353657613535612c26565b5b6135428782880161349d565b91505092959194509250565b600080600080600060a0868803121561356a57613569612c21565b5b600061357888828901612f72565b955050602061358988828901612dc2565b945050604061359a888289016130ec565b93505060606135ab88828901612dc2565b92505060806135bc88828901612dc2565b9150509295509295909350565b600080604083850312156135e0576135df612c21565b5b60006135ee85828601612e77565b92505060206135ff85828601612e77565b9150509250929050565b7f4e487b7100000000000000000000000000000000000000000000000000000000600052602260045260246000fd5b6000600282049050600182168061365057607f821691505b6020821081141561366457613663613609565b5b50919050565b7f4552433732313a20617070726f76616c20746f2063757272656e74206f776e6560008201527f7200000000000000000000000000000000000000000000000000000000000000602082015250565b60006136c6602183612cf1565b91506136d18261366a565b604082019050919050565b600060208201905081810360008301526136f5816136b9565b9050919050565b7f4552433732313a20617070726f76652063616c6c6572206973206e6f7420746f60008201527f6b656e206f776e6572206e6f7220617070726f76656420666f7220616c6c0000602082015250565b6000613758603e83612cf1565b9150613763826136fc565b604082019050919050565b600060208201905081810360008301526137878161374b565b9050919050565b7f4552433732313a2063616c6c6572206973206e6f7420746f6b656e206f776e6560008201527f72206e6f7220617070726f766564000000000000000000000000000000000000602082015250565b60006137ea602e83612cf1565b91506137f58261378e565b604082019050919050565b60006020820190508181036000830152613819816137dd565b9050919050565b7f656d7074792062616c616e636500000000000000000000000000000000000000600082015250565b6000613856600d83612cf1565b915061386182613820565b602082019050919050565b6000602082019050818103600083015261388581613849565b9050919050565b7f6661696c656420746f2077697468647261770000000000000000000000000000600082015250565b60006138c2601283612cf1565b91506138cd8261388c565b602082019050919050565b600060208201905081810360008301526138f1816138b5565b9050919050565b7f63616e742072656e74207468697320746f6b656e000000000000000000000000600082015250565b600061392e601483612cf1565b9150613939826138f8565b602082019050919050565b6000602082019050818103600083015261395d81613921565b9050919050565b7f616c72656164792072656e746564000000000000000000000000000000000000600082015250565b600061399a600e83612cf1565b91506139a582613964565b602082019050919050565b600060208201905081810360008301526139c98161398d565b9050919050565b7f4e487b7100000000000000000000000000000000000000000000000000000000600052601160045260246000fd5b6000613a0a82612da1565b9150613a1583612da1565b9250817fffffffffffffffffffffffffffffffffffffffffffffffffffffffffffffffff0483118215151615613a4e57613a4d6139d0565b5b828202905092915050565b6000613a6482612da1565b9150613a6f83612da1565b9250827fffffffffffffffffffffffffffffffffffffffffffffffffffffffffffffffff03821115613aa457613aa36139d0565b5b828201905092915050565b7f6d73672e76616c756520746f6f206c6f77000000000000000000000000000000600082015250565b6000613ae5601183612cf1565b9150613af082613aaf565b602082019050919050565b60006020820190508181036000830152613b1481613ad8565b9050919050565b7f4552433732313a20696e76616c696420746f6b656e2049440000000000000000600082015250565b6000613b51601883612cf1565b9150613b5c82613b1b565b602082019050919050565b60006020820190508181036000830152613b8081613b44565b9050919050565b7f4552433732313a2061646472657373207a65726f206973206e6f74206120766160008201527f6c6964206f776e65720000000000000000000000000000000000000000000000602082015250565b6000613be3602983612cf1565b9150613bee82613b87565b604082019050919050565b60006020820190508181036000830152613c1281613bd6565b9050919050565b7f4e487b7100000000000000000000000000000000000000000000000000000000600052603260045260246000fd5b6000613c5382612da1565b91507fffffffffffffffffffffffffffffffffffffffffffffffffffffffffffffffff821415613c8657613c856139d0565b5b600182019050919050565b7f746f6b656e20646f6573206e6f74206578697374000000000000000000000000600082015250565b6000613cc7601483612cf1565b9150613cd282613c91565b602082019050919050565b60006020820190508181036000830152613cf681613cba565b9050919050565b7f6e6f7420696e2066696e69736865642073746174757300000000000000000000600082015250565b6000613d33601683612cf1565b9150613d3e82613cfd565b602082019050919050565b60006020820190508181036000830152613d6281613d26565b9050919050565b600081519050613d78816130d5565b92915050565b600060208284031215613d9457613d93612c21565b5b6000613da284828501613d69565b91505092915050565b600081519050613dba81612e60565b92915050565b600060208284031215613dd657613dd5612c21565b5b6000613de484828501613dab565b91505092915050565b6000604082019050613e026000830185612ecc565b613e0f6020830184612cbc565b9392505050565b7f616c72656164792066696e697368656400000000000000000000000000000000600082015250565b6000613e4c601083612cf1565b9150613e5782613e16565b602082019050919050565b60006020820190508181036000830152613e7b81613e3f565b9050919050565b7f72656e74206e6f742066696e6973686564207965740000000000000000000000600082015250565b6000613eb8601583612cf1565b9150613ec382613e82565b602082019050919050565b60006020820190508181036000830152613ee781613eab565b9050919050565b600081905092915050565b6000613f0482612ce6565b613f0e8185613eee565b9350613f1e818560208601612d02565b80840191505092915050565b6000613f368285613ef9565b9150613f428284613ef9565b91508190509392505050565b7f6e6f74206f776e65720000000000000000000000000000000000000000000000600082015250565b6000613f84600983612cf1565b9150613f8f82613f4e565b602082019050919050565b60006020820190508181036000830152613fb381613f77565b9050919050565b7f63616e74206368616e6765207768696c652072656e7465640000000000000000600082015250565b6000613ff0601883612cf1565b9150613ffb82613fba565b602082019050919050565b6000602082019050818103600083015261401f81613fe3565b9050919050565b7f4552433732313a207472616e736665722066726f6d20696e636f72726563742060008201527f6f776e6572000000000000000000000000000000000000000000000000000000602082015250565b6000614082602583612cf1565b915061408d82614026565b604082019050919050565b600060208201905081810360008301526140b181614075565b9050919050565b7f4552433732313a207472616e7366657220746f20746865207a65726f2061646460008201527f7265737300000000000000000000000000000000000000000000000000000000602082015250565b6000614114602483612cf1565b915061411f826140b8565b604082019050919050565b6000602082019050818103600083015261414381614107565b9050919050565b600061415582612da1565b915061416083612da1565b925082821015614173576141726139d0565b5b828203905092915050565b7f4552433732313a206d696e7420746f20746865207a65726f2061646472657373600082015250565b60006141b4602083612cf1565b91506141bf8261417e565b602082019050919050565b600060208201905081810360008301526141e3816141a7565b9050919050565b7f4552433732313a20746f6b656e20616c7265616479206d696e74656400000000600082015250565b6000614220601c83612cf1565b915061422b826141ea565b602082019050919050565b6000602082019050818103600083015261424f81614213565b9050919050565b7f4552433732313a20617070726f766520746f2063616c6c657200000000000000600082015250565b600061428c601983612cf1565b915061429782614256565b602082019050919050565b600060208201905081810360008301526142bb8161427f565b9050919050565b7f4552433732313a207472616e7366657220746f206e6f6e20455243373231526560008201527f63656976657220696d706c656d656e7465720000000000000000000000000000602082015250565b600061431e603283612cf1565b9150614329826142c2565b604082019050919050565b6000602082019050818103600083015261434d81614311565b9050919050565b7f4e487b7100000000000000000000000000000000000000000000000000000000600052601260045260246000fd5b600061438e82612da1565b915061439983612da1565b9250826143a9576143a8614354565b5b828204905092915050565b60006143bf82612da1565b91506143ca83612da1565b9250826143da576143d9614354565b5b828206905092915050565b600081519050919050565b600082825260208201905092915050565b600061440c826143e5565b61441681856143f0565b9350614426818560208601612d02565b61442f81612d35565b840191505092915050565b600060808201905061444f6000830187612e36565b61445c6020830186612e36565b6144696040830185612ecc565b818103606083015261447b8184614401565b905095945050505050565b60008151905061449581612c57565b92915050565b6000602082840312156144b1576144b0612c21565b5b60006144bf84828501614486565b9150509291505056fea26469706673582212201df7530f9549561d0b143e61e47c3ab7520d7126a0cb841ad3e20cb2df6312d964736f6c63430008090033",
  "devdoc": {
    "kind": "dev",
    "methods": {
      "approve(address,uint256)": {
        "details": "See {IERC721-approve}."
      },
      "balanceOf(address)": {
        "details": "See {IERC721-balanceOf}."
      },
      "getApproved(uint256)": {
        "details": "See {IERC721-getApproved}."
      },
      "isApprovedForAll(address,address)": {
        "details": "See {IERC721-isApprovedForAll}."
      },
      "name()": {
        "details": "See {IERC721Metadata-name}."
      },
      "ownerOf(uint256)": {
        "details": "See {IERC721-ownerOf}."
      },
      "safeTransferFrom(address,address,uint256)": {
        "details": "See {IERC721-safeTransferFrom}."
      },
      "safeTransferFrom(address,address,uint256,bytes)": {
        "details": "See {IERC721-safeTransferFrom}."
      },
      "setApprovalForAll(address,bool)": {
        "details": "See {IERC721-setApprovalForAll}."
      },
      "supportsInterface(bytes4)": {
        "details": "See {IERC165-supportsInterface}."
      },
      "symbol()": {
        "details": "See {IERC721Metadata-symbol}."
      },
      "tokenURI(uint256)": {
        "details": "See {IERC721Metadata-tokenURI}."
      },
      "transferFrom(address,address,uint256)": {
        "details": "See {IERC721-transferFrom}."
      }
    },
    "version": 1
  },
  "userdoc": {
    "kind": "user",
    "methods": {},
    "version": 1
  },
  "storageLayout": {
    "storage": [
      {
        "astId": 103,
        "contract": "contracts/ERC721Rent.sol:ERC721Rent",
        "label": "_name",
        "offset": 0,
        "slot": "0",
        "type": "t_string_storage"
      },
      {
        "astId": 105,
        "contract": "contracts/ERC721Rent.sol:ERC721Rent",
        "label": "_symbol",
        "offset": 0,
        "slot": "1",
        "type": "t_string_storage"
      },
      {
        "astId": 109,
        "contract": "contracts/ERC721Rent.sol:ERC721Rent",
        "label": "_owners",
        "offset": 0,
        "slot": "2",
        "type": "t_mapping(t_uint256,t_address)"
      },
      {
        "astId": 113,
        "contract": "contracts/ERC721Rent.sol:ERC721Rent",
        "label": "_balances",
        "offset": 0,
        "slot": "3",
        "type": "t_mapping(t_address,t_uint256)"
      },
      {
        "astId": 117,
        "contract": "contracts/ERC721Rent.sol:ERC721Rent",
        "label": "_tokenApprovals",
        "offset": 0,
        "slot": "4",
        "type": "t_mapping(t_uint256,t_address)"
      },
      {
        "astId": 123,
        "contract": "contracts/ERC721Rent.sol:ERC721Rent",
        "label": "_operatorApprovals",
        "offset": 0,
        "slot": "5",
        "type": "t_mapping(t_address,t_mapping(t_address,t_bool))"
      },
      {
        "astId": 2340,
        "contract": "contracts/ERC721Rent.sol:ERC721Rent",
        "label": "_tokenIds",
        "offset": 0,
        "slot": "6",
        "type": "t_struct(Counter)1428_storage"
      },
      {
        "astId": 2347,
        "contract": "contracts/ERC721Rent.sol:ERC721Rent",
        "label": "_rentConditions",
        "offset": 0,
        "slot": "7",
        "type": "t_mapping(t_address,t_mapping(t_uint256,t_struct(RentConditions)2954_storage))"
      },
      {
        "astId": 2351,
        "contract": "contracts/ERC721Rent.sol:ERC721Rent",
        "label": "_balances",
        "offset": 0,
        "slot": "8",
        "type": "t_mapping(t_address,t_uint256)"
      },
      {
        "astId": 2356,
        "contract": "contracts/ERC721Rent.sol:ERC721Rent",
        "label": "_tokenData",
        "offset": 0,
        "slot": "9",
        "type": "t_mapping(t_uint256,t_struct(Rent)2975_storage)"
      },
      {
        "astId": 2367,
        "contract": "contracts/ERC721Rent.sol:ERC721Rent",
        "label": "_sourceTokenIdArrayPos",
        "offset": 0,
        "slot": "10",
        "type": "t_mapping(t_address,t_mapping(t_uint256,t_uint256))"
      },
      {
        "astId": 2371,
        "contract": "contracts/ERC721Rent.sol:ERC721Rent",
        "label": "_sourceTokenIdArray",
        "offset": 0,
        "slot": "11",
        "type": "t_array(t_struct(_SourceTokenId)2361_storage)dyn_storage"
      },
      {
        "astId": 2374,
        "contract": "contracts/ERC721Rent.sol:ERC721Rent",
        "label": "_resolver",
        "offset": 0,
        "slot": "12",
        "type": "t_contract(IDisputeResolver)3059"
      }
    ],
    "types": {
      "t_address": {
        "encoding": "inplace",
        "label": "address",
        "numberOfBytes": "20"
      },
      "t_array(t_struct(_SourceTokenId)2361_storage)dyn_storage": {
        "base": "t_struct(_SourceTokenId)2361_storage",
        "encoding": "dynamic_array",
        "label": "struct ERC721Rent._SourceTokenId[]",
        "numberOfBytes": "32"
      },
      "t_bool": {
        "encoding": "inplace",
        "label": "bool",
        "numberOfBytes": "1"
      },
      "t_contract(IDisputeResolver)3059": {
        "encoding": "inplace",
        "label": "contract IDisputeResolver",
        "numberOfBytes": "20"
      },
      "t_enum(RentStatus)2959": {
        "encoding": "inplace",
        "label": "enum IERC721Rent.RentStatus",
        "numberOfBytes": "1"
      },
      "t_mapping(t_address,t_bool)": {
        "encoding": "mapping",
        "key": "t_address",
        "label": "mapping(address => bool)",
        "numberOfBytes": "32",
        "value": "t_bool"
      },
      "t_mapping(t_address,t_mapping(t_address,t_bool))": {
        "encoding": "mapping",
        "key": "t_address",
        "label": "mapping(address => mapping(address => bool))",
        "numberOfBytes": "32",
        "value": "t_mapping(t_address,t_bool)"
      },
      "t_mapping(t_address,t_mapping(t_uint256,t_struct(RentConditions)2954_storage))": {
        "encoding": "mapping",
        "key": "t_address",
        "label": "mapping(address => mapping(uint256 => struct IERC721Rent.RentConditions))",
        "numberOfBytes": "32",
        "value": "t_mapping(t_uint256,t_struct(RentConditions)2954_storage)"
      },
      "t_mapping(t_address,t_mapping(t_uint256,t_uint256))": {
        "encoding": "mapping",
        "key": "t_address",
        "label": "mapping(address => mapping(uint256 => uint256))",
        "numberOfBytes": "32",
        "value": "t_mapping(t_uint256,t_uint256)"
      },
      "t_mapping(t_address,t_uint256)": {
        "encoding": "mapping",
        "key": "t_address",
        "label": "mapping(address => uint256)",
        "numberOfBytes": "32",
        "value": "t_uint256"
      },
      "t_mapping(t_uint256,t_address)": {
        "encoding": "mapping",
        "key": "t_uint256",
        "label": "mapping(uint256 => address)",
        "numberOfBytes": "32",
        "value": "t_address"
      },
      "t_mapping(t_uint256,t_struct(Rent)2975_storage)": {
        "encoding": "mapping",
        "key": "t_uint256",
        "label": "mapping(uint256 => struct IERC721Rent.Rent)",
        "numberOfBytes": "32",
        "value": "t_struct(Rent)2975_storage"
      },
      "t_mapping(t_uint256,t_struct(RentConditions)2954_storage)": {
        "encoding": "mapping",
        "key": "t_uint256",
        "label": "mapping(uint256 => struct IERC721Rent.RentConditions)",
        "numberOfBytes": "32",
        "value": "t_struct(RentConditions)2954_storage"
      },
      "t_mapping(t_uint256,t_uint256)": {
        "encoding": "mapping",
        "key": "t_uint256",
        "label": "mapping(uint256 => uint256)",
        "numberOfBytes": "32",
        "value": "t_uint256"
      },
      "t_string_storage": {
        "encoding": "bytes",
        "label": "string",
        "numberOfBytes": "32"
      },
      "t_struct(Counter)1428_storage": {
        "encoding": "inplace",
        "label": "struct Counters.Counter",
        "members": [
          {
            "astId": 1427,
            "contract": "contracts/ERC721Rent.sol:ERC721Rent",
            "label": "_value",
            "offset": 0,
            "slot": "0",
            "type": "t_uint256"
          }
        ],
        "numberOfBytes": "32"
      },
      "t_struct(Rent)2975_storage": {
        "encoding": "inplace",
        "label": "struct IERC721Rent.Rent",
        "members": [
          {
            "astId": 2961,
            "contract": "contracts/ERC721Rent.sol:ERC721Rent",
            "label": "startTs",
            "offset": 0,
            "slot": "0",
            "type": "t_uint256"
          },
          {
            "astId": 2963,
            "contract": "contracts/ERC721Rent.sol:ERC721Rent",
            "label": "endTs",
            "offset": 0,
            "slot": "1",
            "type": "t_uint256"
          },
          {
            "astId": 2965,
            "contract": "contracts/ERC721Rent.sol:ERC721Rent",
            "label": "sourceERC721Contract",
            "offset": 0,
            "slot": "2",
            "type": "t_address"
          },
          {
            "astId": 2967,
            "contract": "contracts/ERC721Rent.sol:ERC721Rent",
            "label": "sourceTokenId",
            "offset": 0,
            "slot": "3",
            "type": "t_uint256"
          },
          {
            "astId": 2969,
            "contract": "contracts/ERC721Rent.sol:ERC721Rent",
            "label": "price",
            "offset": 0,
            "slot": "4",
            "type": "t_uint256"
          },
          {
            "astId": 2971,
            "contract": "contracts/ERC721Rent.sol:ERC721Rent",
            "label": "collateral",
            "offset": 0,
            "slot": "5",
            "type": "t_uint256"
          },
          {
            "astId": 2974,
            "contract": "contracts/ERC721Rent.sol:ERC721Rent",
            "label": "status",
            "offset": 0,
            "slot": "6",
            "type": "t_enum(RentStatus)2959"
          }
        ],
        "numberOfBytes": "224"
      },
      "t_struct(RentConditions)2954_storage": {
        "encoding": "inplace",
        "label": "struct IERC721Rent.RentConditions",
        "members": [
          {
            "astId": 2947,
            "contract": "contracts/ERC721Rent.sol:ERC721Rent",
            "label": "allowed",
            "offset": 0,
            "slot": "0",
            "type": "t_bool"
          },
          {
            "astId": 2949,
            "contract": "contracts/ERC721Rent.sol:ERC721Rent",
            "label": "pricePerSecond",
            "offset": 0,
            "slot": "1",
            "type": "t_uint256"
          },
          {
            "astId": 2951,
            "contract": "contracts/ERC721Rent.sol:ERC721Rent",
            "label": "collateralPerSecond",
            "offset": 0,
            "slot": "2",
            "type": "t_uint256"
          },
          {
            "astId": 2953,
            "contract": "contracts/ERC721Rent.sol:ERC721Rent",
            "label": "currentRentingToken",
            "offset": 0,
            "slot": "3",
            "type": "t_uint256"
          }
        ],
        "numberOfBytes": "128"
      },
      "t_struct(_SourceTokenId)2361_storage": {
        "encoding": "inplace",
        "label": "struct ERC721Rent._SourceTokenId",
        "members": [
          {
            "astId": 2358,
            "contract": "contracts/ERC721Rent.sol:ERC721Rent",
            "label": "contractAddress",
            "offset": 0,
            "slot": "0",
            "type": "t_address"
          },
          {
            "astId": 2360,
            "contract": "contracts/ERC721Rent.sol:ERC721Rent",
            "label": "tokenId",
            "offset": 0,
            "slot": "1",
            "type": "t_uint256"
          }
        ],
        "numberOfBytes": "64"
      },
      "t_uint256": {
        "encoding": "inplace",
        "label": "uint256",
        "numberOfBytes": "32"
      }
    }
  }
}