{
  "address": "0xE60bd7e965312d63F720fE89ff5e1bA2C9fECe90",
  "abi": [
    {
      "inputs": [
        {
          "internalType": "address",
          "name": "resolver",
          "type": "address"
        }
      ],
      "stateMutability": "nonpayable",
      "type": "constructor"
    },
    {
      "anonymous": false,
      "inputs": [
        {
          "indexed": true,
          "internalType": "address",
          "name": "owner",
          "type": "address"
        },
        {
          "indexed": true,
          "internalType": "address",
          "name": "approved",
          "type": "address"
        },
        {
          "indexed": true,
          "internalType": "uint256",
          "name": "tokenId",
          "type": "uint256"
        }
      ],
      "name": "Approval",
      "type": "event"
    },
    {
      "anonymous": false,
      "inputs": [
        {
          "indexed": true,
          "internalType": "address",
          "name": "owner",
          "type": "address"
        },
        {
          "indexed": true,
          "internalType": "address",
          "name": "operator",
          "type": "address"
        },
        {
          "indexed": false,
          "internalType": "bool",
          "name": "approved",
          "type": "bool"
        }
      ],
      "name": "ApprovalForAll",
      "type": "event"
    },
    {
      "anonymous": false,
      "inputs": [
        {
          "indexed": false,
          "internalType": "uint256",
          "name": "tokenId",
          "type": "uint256"
        },
        {
          "indexed": false,
          "internalType": "bool",
          "name": "rentIsValid",
          "type": "bool"
        }
      ],
      "name": "DisputeSettled",
      "type": "event"
    },
    {
      "anonymous": false,
      "inputs": [
        {
          "indexed": true,
          "internalType": "address",
          "name": "from",
          "type": "address"
        },
        {
          "indexed": true,
          "internalType": "address",
          "name": "to",
          "type": "address"
        },
        {
          "indexed": true,
          "internalType": "uint256",
          "name": "tokenId",
          "type": "uint256"
        }
      ],
      "name": "Transfer",
      "type": "event"
    },
    {
      "inputs": [
        {
          "internalType": "contract IERC721",
          "name": "erc721Contract",
          "type": "address"
        },
        {
          "internalType": "uint256",
          "name": "tokenId",
          "type": "uint256"
        },
        {
          "internalType": "bool",
          "name": "allow",
          "type": "bool"
        },
        {
          "internalType": "uint256",
          "name": "pricePerSecond",
          "type": "uint256"
        },
        {
          "internalType": "uint256",
          "name": "collateralPerSecond",
          "type": "uint256"
        }
      ],
      "name": "allowRent",
      "outputs": [],
      "stateMutability": "nonpayable",
      "type": "function"
    },
    {
      "inputs": [
        {
          "internalType": "address",
          "name": "to",
          "type": "address"
        },
        {
          "internalType": "uint256",
          "name": "tokenId",
          "type": "uint256"
        }
      ],
      "name": "approve",
      "outputs": [],
      "stateMutability": "nonpayable",
      "type": "function"
    },
    {
      "inputs": [
        {
          "internalType": "address",
          "name": "owner",
          "type": "address"
        }
      ],
      "name": "balanceOf",
      "outputs": [
        {
          "internalType": "uint256",
          "name": "",
          "type": "uint256"
        }
      ],
      "stateMutability": "view",
      "type": "function"
    },
    {
      "inputs": [
        {
          "internalType": "uint256",
          "name": "tokenId",
          "type": "uint256"
        }
      ],
      "name": "finalizeRent",
      "outputs": [],
      "stateMutability": "nonpayable",
      "type": "function"
    },
    {
      "inputs": [
        {
          "internalType": "uint256",
          "name": "tokenId",
          "type": "uint256"
        }
      ],
      "name": "getApproved",
      "outputs": [
        {
          "internalType": "address",
          "name": "",
          "type": "address"
        }
      ],
      "stateMutability": "view",
      "type": "function"
    },
    {
      "inputs": [],
      "name": "getBalance",
      "outputs": [
        {
          "internalType": "uint256",
          "name": "",
          "type": "uint256"
        }
      ],
      "stateMutability": "view",
      "type": "function"
    },
    {
      "inputs": [
        {
          "internalType": "contract IERC721",
          "name": "erc721Contract",
          "type": "address"
        },
        {
          "internalType": "uint256",
          "name": "tokenId",
          "type": "uint256"
        }
      ],
      "name": "getRentConditions",
      "outputs": [
        {
          "components": [
            {
              "internalType": "bool",
              "name": "allowed",
              "type": "bool"
            },
            {
              "internalType": "uint256",
              "name": "pricePerSecond",
              "type": "uint256"
            },
            {
              "internalType": "uint256",
              "name": "collateralPerSecond",
              "type": "uint256"
            },
            {
              "internalType": "uint256",
              "name": "currentRentingToken",
              "type": "uint256"
            },
            {
              "internalType": "address",
              "name": "sourceERC721Contract",
              "type": "address"
            },
            {
              "internalType": "uint256",
              "name": "sourceTokenId",
              "type": "uint256"
            }
          ],
          "internalType": "struct IERC721Rent.RentConditions",
          "name": "",
          "type": "tuple"
        }
      ],
      "stateMutability": "view",
      "type": "function"
    },
    {
      "inputs": [
        {
          "internalType": "uint256",
          "name": "tokenId",
          "type": "uint256"
        }
      ],
      "name": "getTokenData",
      "outputs": [
        {
          "components": [
            {
              "internalType": "uint256",
              "name": "startTs",
              "type": "uint256"
            },
            {
              "internalType": "uint256",
              "name": "endTs",
              "type": "uint256"
            },
            {
              "internalType": "address",
              "name": "sourceERC721Contract",
              "type": "address"
            },
            {
              "internalType": "uint256",
              "name": "sourceTokenId",
              "type": "uint256"
            },
            {
              "internalType": "uint256",
              "name": "price",
              "type": "uint256"
            },
            {
              "internalType": "uint256",
              "name": "collateral",
              "type": "uint256"
            },
            {
              "internalType": "enum IERC721Rent.RentStatus",
              "name": "status",
              "type": "uint8"
            }
          ],
          "internalType": "struct IERC721Rent.Rent",
          "name": "",
          "type": "tuple"
        }
      ],
      "stateMutability": "view",
      "type": "function"
    },
    {
      "inputs": [
        {
          "internalType": "address",
          "name": "owner",
          "type": "address"
        },
        {
          "internalType": "address",
          "name": "operator",
          "type": "address"
        }
      ],
      "name": "isApprovedForAll",
      "outputs": [
        {
          "internalType": "bool",
          "name": "",
          "type": "bool"
        }
      ],
      "stateMutability": "view",
      "type": "function"
    },
    {
      "inputs": [],
      "name": "listRentConditions",
      "outputs": [
        {
          "components": [
            {
              "internalType": "bool",
              "name": "allowed",
              "type": "bool"
            },
            {
              "internalType": "uint256",
              "name": "pricePerSecond",
              "type": "uint256"
            },
            {
              "internalType": "uint256",
              "name": "collateralPerSecond",
              "type": "uint256"
            },
            {
              "internalType": "uint256",
              "name": "currentRentingToken",
              "type": "uint256"
            },
            {
              "internalType": "address",
              "name": "sourceERC721Contract",
              "type": "address"
            },
            {
              "internalType": "uint256",
              "name": "sourceTokenId",
              "type": "uint256"
            }
          ],
          "internalType": "struct IERC721Rent.RentConditions[]",
          "name": "",
          "type": "tuple[]"
        }
      ],
      "stateMutability": "view",
      "type": "function"
    },
    {
      "inputs": [],
      "name": "name",
      "outputs": [
        {
          "internalType": "string",
          "name": "",
          "type": "string"
        }
      ],
      "stateMutability": "view",
      "type": "function"
    },
    {
      "inputs": [
        {
          "internalType": "uint256",
          "name": "tokenId",
          "type": "uint256"
        }
      ],
      "name": "ownerOf",
      "outputs": [
        {
          "internalType": "address",
          "name": "",
          "type": "address"
        }
      ],
      "stateMutability": "view",
      "type": "function"
    },
    {
      "inputs": [
        {
          "internalType": "contract IERC721",
          "name": "erc721Contract",
          "type": "address"
        },
        {
          "internalType": "uint256",
          "name": "tokenId",
          "type": "uint256"
        },
        {
          "internalType": "uint256",
          "name": "duration",
          "type": "uint256"
        }
      ],
      "name": "rent",
      "outputs": [
        {
          "internalType": "uint256",
          "name": "",
          "type": "uint256"
        }
      ],
      "stateMutability": "payable",
      "type": "function"
    },
    {
      "inputs": [
        {
          "internalType": "uint256",
          "name": "tokenId",
          "type": "uint256"
        }
      ],
      "name": "resolveDispute",
      "outputs": [],
      "stateMutability": "nonpayable",
      "type": "function"
    },
    {
      "inputs": [
        {
          "internalType": "address",
          "name": "from",
          "type": "address"
        },
        {
          "internalType": "address",
          "name": "to",
          "type": "address"
        },
        {
          "internalType": "uint256",
          "name": "tokenId",
          "type": "uint256"
        }
      ],
      "name": "safeTransferFrom",
      "outputs": [],
      "stateMutability": "nonpayable",
      "type": "function"
    },
    {
      "inputs": [
        {
          "internalType": "address",
          "name": "from",
          "type": "address"
        },
        {
          "internalType": "address",
          "name": "to",
          "type": "address"
        },
        {
          "internalType": "uint256",
          "name": "tokenId",
          "type": "uint256"
        },
        {
          "internalType": "bytes",
          "name": "data",
          "type": "bytes"
        }
      ],
      "name": "safeTransferFrom",
      "outputs": [],
      "stateMutability": "nonpayable",
      "type": "function"
    },
    {
      "inputs": [
        {
          "internalType": "address",
          "name": "operator",
          "type": "address"
        },
        {
          "internalType": "bool",
          "name": "approved",
          "type": "bool"
        }
      ],
      "name": "setApprovalForAll",
      "outputs": [],
      "stateMutability": "nonpayable",
      "type": "function"
    },
    {
      "inputs": [
        {
          "internalType": "bytes4",
          "name": "interfaceId",
          "type": "bytes4"
        }
      ],
      "name": "supportsInterface",
      "outputs": [
        {
          "internalType": "bool",
          "name": "",
          "type": "bool"
        }
      ],
      "stateMutability": "view",
      "type": "function"
    },
    {
      "inputs": [],
      "name": "symbol",
      "outputs": [
        {
          "internalType": "string",
          "name": "",
          "type": "string"
        }
      ],
      "stateMutability": "view",
      "type": "function"
    },
    {
      "inputs": [
        {
          "internalType": "uint256",
          "name": "tokenId",
          "type": "uint256"
        }
      ],
      "name": "tokenURI",
      "outputs": [
        {
          "internalType": "string",
          "name": "",
          "type": "string"
        }
      ],
      "stateMutability": "view",
      "type": "function"
    },
    {
      "inputs": [
        {
          "internalType": "address",
          "name": "from",
          "type": "address"
        },
        {
          "internalType": "address",
          "name": "to",
          "type": "address"
        },
        {
          "internalType": "uint256",
          "name": "tokenId",
          "type": "uint256"
        }
      ],
      "name": "transferFrom",
      "outputs": [],
      "stateMutability": "nonpayable",
      "type": "function"
    },
    {
      "inputs": [],
      "name": "withdraw",
      "outputs": [],
      "stateMutability": "nonpayable",
      "type": "function"
    }
  ],
  "transactionHash": "0x84df4f78616e8a396456401be0d8563e2852c34e39b280f2dece7df3f7e62b34",
  "args": [
    "0x685420e75c1c1603Cc62659BEC90f83d8776B57a"
  ],
  "numDeployments": 2,
  "solcInputHash": "e2f3c3705d5d78c1a03d7bccb992c1bf",
  "bytecode": "0x60806040523480156200001157600080fd5b50604051620049ae380380620049ae833981810160405281019062000037919062000266565b6040518060400160405280600d81526020017f45524337323157726170706572000000000000000000000000000000000000008152506040518060400160405280600381526020017f45435700000000000000000000000000000000000000000000000000000000008152508160009080519060200190620000bb9291906200014c565b508060019080519060200190620000d49291906200014c565b50505080600c60006101000a81548173ffffffffffffffffffffffffffffffffffffffff021916908373ffffffffffffffffffffffffffffffffffffffff1602179055506200012f60066200013660201b620020da1760201c565b50620002fd565b6001816000016000828254019250508190555050565b8280546200015a90620002c7565b90600052602060002090601f0160209004810192826200017e5760008555620001ca565b82601f106200019957805160ff1916838001178555620001ca565b82800160010185558215620001ca579182015b82811115620001c9578251825591602001919060010190620001ac565b5b509050620001d99190620001dd565b5090565b5b80821115620001f8576000816000905550600101620001de565b5090565b600080fd5b600073ffffffffffffffffffffffffffffffffffffffff82169050919050565b60006200022e8262000201565b9050919050565b620002408162000221565b81146200024c57600080fd5b50565b600081519050620002608162000235565b92915050565b6000602082840312156200027f576200027e620001fc565b5b60006200028f848285016200024f565b91505092915050565b7f4e487b7100000000000000000000000000000000000000000000000000000000600052602260045260246000fd5b60006002820490506001821680620002e057607f821691505b60208210811415620002f757620002f662000298565b5b50919050565b6146a1806200030d6000396000f3fe6080604052600436106101355760003560e01c806370a08231116100ab578063b88d4fde1161006f578063b88d4fde1461043f578063c2b7b86814610468578063c86c892114610491578063c87b56dd146104ba578063e9679937146104f7578063e985e9c51461052057610135565b806370a082311461034657806395d89b4114610383578063a22cb465146103ae578063b09afec1146103d7578063b5e8c9b91461041457610135565b806323b872dd116100fd57806323b872dd146102335780633ccfd60b1461025c57806342842e0e146102735780634dc32a181461029c5780636352211e146102cc5780636c5cad481461030957610135565b806301ffc9a71461013a57806306fdde0314610177578063081812fc146101a2578063095ea7b3146101df57806312065fe014610208575b600080fd5b34801561014657600080fd5b50610161600480360381019061015c9190612dda565b61055d565b60405161016e9190612e22565b60405180910390f35b34801561018357600080fd5b5061018c61063f565b6040516101999190612ed6565b60405180910390f35b3480156101ae57600080fd5b506101c960048036038101906101c49190612f2e565b6106d1565b6040516101d69190612f9c565b60405180910390f35b3480156101eb57600080fd5b5061020660048036038101906102019190612fe3565b610717565b005b34801561021457600080fd5b5061021d61082f565b60405161022a9190613032565b60405180910390f35b34801561023f57600080fd5b5061025a6004803603810190610255919061304d565b610876565b005b34801561026857600080fd5b506102716108d6565b005b34801561027f57600080fd5b5061029a6004803603810190610295919061304d565b610a5e565b005b6102b660048036038101906102b191906130de565b610a7e565b6040516102c39190613032565b60405180910390f35b3480156102d857600080fd5b506102f360048036038101906102ee9190612f2e565b610deb565b6040516103009190612f9c565b60405180910390f35b34801561031557600080fd5b50610330600480360381019061032b9190613131565b610e9d565b60405161033d9190613219565b60405180910390f35b34801561035257600080fd5b5061036d60048036038101906103689190613234565b610fa1565b60405161037a9190613032565b60405180910390f35b34801561038f57600080fd5b50610398611059565b6040516103a59190612ed6565b60405180910390f35b3480156103ba57600080fd5b506103d560048036038101906103d0919061328d565b6110eb565b005b3480156103e357600080fd5b506103fe60048036038101906103f99190612f2e565b611101565b60405161040b91906133d2565b60405180910390f35b34801561042057600080fd5b506104296111f1565b6040516104369190613517565b60405180910390f35b34801561044b57600080fd5b506104666004803603810190610461919061366e565b6113dd565b005b34801561047457600080fd5b5061048f600480360381019061048a9190612f2e565b61143f565b005b34801561049d57600080fd5b506104b860048036038101906104b39190612f2e565b611802565b005b3480156104c657600080fd5b506104e160048036038101906104dc9190612f2e565b611bba565b6040516104ee9190612ed6565b60405180910390f35b34801561050357600080fd5b5061051e600480360381019061051991906136f1565b611c22565b005b34801561052c57600080fd5b506105476004803603810190610542919061376c565b612046565b6040516105549190612e22565b60405180910390f35b60007f80ac58cd000000000000000000000000000000000000000000000000000000007bffffffffffffffffffffffffffffffffffffffffffffffffffffffff1916827bffffffffffffffffffffffffffffffffffffffffffffffffffffffff1916148061062857507f5b5e139f000000000000000000000000000000000000000000000000000000007bffffffffffffffffffffffffffffffffffffffffffffffffffffffff1916827bffffffffffffffffffffffffffffffffffffffffffffffffffffffff1916145b806106385750610637826120f0565b5b9050919050565b60606000805461064e906137db565b80601f016020809104026020016040519081016040528092919081815260200182805461067a906137db565b80156106c75780601f1061069c576101008083540402835291602001916106c7565b820191906000526020600020905b8154815290600101906020018083116106aa57829003601f168201915b5050505050905090565b60006106dc8261215a565b6004600083815260200190815260200160002060009054906101000a900473ffffffffffffffffffffffffffffffffffffffff169050919050565b600061072282610deb565b90508073ffffffffffffffffffffffffffffffffffffffff168373ffffffffffffffffffffffffffffffffffffffff161415610793576040517f08c379a000000000000000000000000000000000000000000000000000000000815260040161078a9061387f565b60405180910390fd5b8073ffffffffffffffffffffffffffffffffffffffff166107b26121a5565b73ffffffffffffffffffffffffffffffffffffffff1614806107e157506107e0816107db6121a5565b612046565b5b610820576040517f08c379a000000000000000000000000000000000000000000000000000000000815260040161081790613911565b60405180910390fd5b61082a83836121ad565b505050565b6000600860003373ffffffffffffffffffffffffffffffffffffffff1673ffffffffffffffffffffffffffffffffffffffff16815260200190815260200160002054905090565b6108876108816121a5565b82612266565b6108c6576040517f08c379a00000000000000000000000000000000000000000000000000000000081526004016108bd906139a3565b60405180910390fd5b6108d18383836122fb565b505050565b6000600860003373ffffffffffffffffffffffffffffffffffffffff1673ffffffffffffffffffffffffffffffffffffffff1681526020019081526020016000205411610958576040517f08c379a000000000000000000000000000000000000000000000000000000000815260040161094f90613a0f565b60405180910390fd5b6000600860003373ffffffffffffffffffffffffffffffffffffffff1673ffffffffffffffffffffffffffffffffffffffff1681526020019081526020016000205490506000600860003373ffffffffffffffffffffffffffffffffffffffff1673ffffffffffffffffffffffffffffffffffffffff1681526020019081526020016000208190555060003373ffffffffffffffffffffffffffffffffffffffff166108fc839081150290604051600060405180830381858888f19350505050905080610a5a576040517f08c379a0000000000000000000000000000000000000000000000000000000008152600401610a5190613a7b565b60405180910390fd5b5050565b610a79838383604051806020016040528060008152506113dd565b505050565b600080600760008673ffffffffffffffffffffffffffffffffffffffff1673ffffffffffffffffffffffffffffffffffffffff16815260200190815260200160002060008581526020019081526020016000209050600115158160000160009054906101000a900460ff16151514610b2b576040517f08c379a0000000000000000000000000000000000000000000000000000000008152600401610b2290613ae7565b60405180910390fd5b6000600760008773ffffffffffffffffffffffffffffffffffffffff1673ffffffffffffffffffffffffffffffffffffffff16815260200190815260200160002060008681526020019081526020016000206003015414610bc1576040517f08c379a0000000000000000000000000000000000000000000000000000000008152600401610bb890613b53565b60405180910390fd5b6000816001015484610bd39190613ba2565b90506000826002015485610be79190613ba2565b90508082610bf59190613bfc565b341015610c37576040517f08c379a0000000000000000000000000000000000000000000000000000000008152600401610c2e90613c9e565b60405180910390fd5b610c4160066120da565b6000610c4d6006612562565b905060006040518060e001604052804281526020018842610c6e9190613bfc565b81526020018a73ffffffffffffffffffffffffffffffffffffffff16815260200189815260200185815260200184815260200160016003811115610cb557610cb46132cd565b5b815250905081600760008b73ffffffffffffffffffffffffffffffffffffffff1673ffffffffffffffffffffffffffffffffffffffff16815260200190815260200160002060008a8152602001908152602001600020600301819055508060096000848152602001908152602001600020600082015181600001556020820151816001015560408201518160020160006101000a81548173ffffffffffffffffffffffffffffffffffffffff021916908373ffffffffffffffffffffffffffffffffffffffff160217905550606082015181600301556080820151816004015560a0820151816005015560c08201518160060160006101000a81548160ff02191690836003811115610dca57610dc96132cd565b5b0217905550905050610ddc3383612570565b81955050505050509392505050565b6000806002600084815260200190815260200160002060009054906101000a900473ffffffffffffffffffffffffffffffffffffffff169050600073ffffffffffffffffffffffffffffffffffffffff168173ffffffffffffffffffffffffffffffffffffffff161415610e94576040517f08c379a0000000000000000000000000000000000000000000000000000000008152600401610e8b90613d0a565b60405180910390fd5b80915050919050565b610ea5612cbb565b600760008473ffffffffffffffffffffffffffffffffffffffff1673ffffffffffffffffffffffffffffffffffffffff16815260200190815260200160002060008381526020019081526020016000206040518060c00160405290816000820160009054906101000a900460ff161515151581526020016001820154815260200160028201548152602001600382015481526020016004820160009054906101000a900473ffffffffffffffffffffffffffffffffffffffff1673ffffffffffffffffffffffffffffffffffffffff1673ffffffffffffffffffffffffffffffffffffffff168152602001600582015481525050905092915050565b60008073ffffffffffffffffffffffffffffffffffffffff168273ffffffffffffffffffffffffffffffffffffffff161415611012576040517f08c379a000000000000000000000000000000000000000000000000000000000815260040161100990613d9c565b60405180910390fd5b600360008373ffffffffffffffffffffffffffffffffffffffff1673ffffffffffffffffffffffffffffffffffffffff168152602001908152602001600020549050919050565b606060018054611068906137db565b80601f0160208091040260200160405190810160405280929190818152602001828054611094906137db565b80156110e15780601f106110b6576101008083540402835291602001916110e1565b820191906000526020600020905b8154815290600101906020018083116110c457829003601f168201915b5050505050905090565b6110fd6110f66121a5565b838361274a565b5050565b611109612d09565b600960008381526020019081526020016000206040518060e001604052908160008201548152602001600182015481526020016002820160009054906101000a900473ffffffffffffffffffffffffffffffffffffffff1673ffffffffffffffffffffffffffffffffffffffff1673ffffffffffffffffffffffffffffffffffffffff1681526020016003820154815260200160048201548152602001600582015481526020016006820160009054906101000a900460ff1660038111156111d4576111d36132cd565b5b60038111156111e6576111e56132cd565b5b815250509050919050565b60606000600b80549050905060008167ffffffffffffffff81111561121957611218613543565b5b60405190808252806020026020018201604052801561125257816020015b61123f612cbb565b8152602001906001900390816112375790505b50905060005b828110156113d4576000600b828154811061127657611275613dbc565b5b90600052602060002090600202019050600760008260000160009054906101000a900473ffffffffffffffffffffffffffffffffffffffff1673ffffffffffffffffffffffffffffffffffffffff1673ffffffffffffffffffffffffffffffffffffffff1681526020019081526020016000206000826001015481526020019081526020016000206040518060c00160405290816000820160009054906101000a900460ff161515151581526020016001820154815260200160028201548152602001600382015481526020016004820160009054906101000a900473ffffffffffffffffffffffffffffffffffffffff1673ffffffffffffffffffffffffffffffffffffffff1673ffffffffffffffffffffffffffffffffffffffff1681526020016005820154815250508383815181106113b5576113b4613dbc565b5b60200260200101819052505080806113cc90613deb565b915050611258565b50809250505090565b6113ee6113e86121a5565b83612266565b61142d576040517f08c379a0000000000000000000000000000000000000000000000000000000008152600401611424906139a3565b60405180910390fd5b611439848484846128b7565b50505050565b6000600960008381526020019081526020016000209050600073ffffffffffffffffffffffffffffffffffffffff168160020160009054906101000a900473ffffffffffffffffffffffffffffffffffffffff1673ffffffffffffffffffffffffffffffffffffffff1614156114ea576040517f08c379a00000000000000000000000000000000000000000000000000000000081526004016114e190613e80565b60405180910390fd5b600260038111156114fe576114fd6132cd565b5b8160060160009054906101000a900460ff166003811115611522576115216132cd565b5b14611562576040517f08c379a000000000000000000000000000000000000000000000000000000000815260040161155990613eec565b60405180910390fd5b6000600c60009054906101000a900473ffffffffffffffffffffffffffffffffffffffff1673ffffffffffffffffffffffffffffffffffffffff1663a5a21a2e846040518263ffffffff1660e01b81526004016115bf9190613032565b602060405180830381600087803b1580156115d957600080fd5b505af11580156115ed573d6000803e3d6000fd5b505050506040513d601f19601f820116820180604052508101906116119190613f21565b9050801561168657600061162484610deb565b90508260050154600860008373ffffffffffffffffffffffffffffffffffffffff1673ffffffffffffffffffffffffffffffffffffffff16815260200190815260200160002060008282546116799190613bfc565b9250508190555050611797565b60008260020160009054906101000a900473ffffffffffffffffffffffffffffffffffffffff1673ffffffffffffffffffffffffffffffffffffffff16636352211e84600301546040518263ffffffff1660e01b81526004016116e99190613032565b60206040518083038186803b15801561170157600080fd5b505afa158015611715573d6000803e3d6000fd5b505050506040513d601f19601f820116820180604052508101906117399190613f63565b90508260050154600860008373ffffffffffffffffffffffffffffffffffffffff1673ffffffffffffffffffffffffffffffffffffffff168152602001908152602001600020600082825461178e9190613bfc565b92505081905550505b7faa76612075dcf5624c76b21b3b0f6babbeee4e6b6197fb4fb4a2a5654724812a83826040516117c8929190613f90565b60405180910390a160038260060160006101000a81548160ff021916908360038111156117f8576117f76132cd565b5b0217905550505050565b6000600960008381526020019081526020016000209050600073ffffffffffffffffffffffffffffffffffffffff168160020160009054906101000a900473ffffffffffffffffffffffffffffffffffffffff1673ffffffffffffffffffffffffffffffffffffffff1614156118ad576040517f08c379a00000000000000000000000000000000000000000000000000000000081526004016118a490613e80565b60405180910390fd5b600160038111156118c1576118c06132cd565b5b8160060160009054906101000a900460ff1660038111156118e5576118e46132cd565b5b14611925576040517f08c379a000000000000000000000000000000000000000000000000000000000815260040161191c90614005565b60405180910390fd5b8060010154421161196b576040517f08c379a000000000000000000000000000000000000000000000000000000000815260040161196290614071565b60405180910390fd5b60028160060160006101000a81548160ff02191690836003811115611993576119926132cd565b5b02179055506000600760008360020160009054906101000a900473ffffffffffffffffffffffffffffffffffffffff1673ffffffffffffffffffffffffffffffffffffffff1673ffffffffffffffffffffffffffffffffffffffff1681526020019081526020016000206000836003015481526020019081526020016000206003018190555060008160020160009054906101000a900473ffffffffffffffffffffffffffffffffffffffff1673ffffffffffffffffffffffffffffffffffffffff16636352211e83600301546040518263ffffffff1660e01b8152600401611a7c9190613032565b60206040518083038186803b158015611a9457600080fd5b505afa158015611aa8573d6000803e3d6000fd5b505050506040513d601f19601f82011682018060405250810190611acc9190613f63565b90508160040154600860008373ffffffffffffffffffffffffffffffffffffffff1673ffffffffffffffffffffffffffffffffffffffff1681526020019081526020016000206000828254611b219190613bfc565b92505081905550600c60009054906101000a900473ffffffffffffffffffffffffffffffffffffffff1673ffffffffffffffffffffffffffffffffffffffff1663dd9db427846040518263ffffffff1660e01b8152600401611b839190613032565b600060405180830381600087803b158015611b9d57600080fd5b505af1158015611bb1573d6000803e3d6000fd5b50505050505050565b6060611bc58261215a565b6000611bcf612913565b90506000815111611bef5760405180602001604052806000815250611c1a565b80611bf98461292a565b604051602001611c0a9291906140cd565b6040516020818303038152906040525b915050919050565b3373ffffffffffffffffffffffffffffffffffffffff168573ffffffffffffffffffffffffffffffffffffffff16636352211e866040518263ffffffff1660e01b8152600401611c729190613032565b60206040518083038186803b158015611c8a57600080fd5b505afa158015611c9e573d6000803e3d6000fd5b505050506040513d601f19601f82011682018060405250810190611cc29190613f63565b73ffffffffffffffffffffffffffffffffffffffff1614611d18576040517f08c379a0000000000000000000000000000000000000000000000000000000008152600401611d0f9061413d565b60405180910390fd5b6000600760008773ffffffffffffffffffffffffffffffffffffffff1673ffffffffffffffffffffffffffffffffffffffff16815260200190815260200160002060008681526020019081526020016000206003015414611dae576040517f08c379a0000000000000000000000000000000000000000000000000000000008152600401611da5906141a9565b60405180910390fd5b6040518060c001604052808415158152602001838152602001828152602001600081526020018673ffffffffffffffffffffffffffffffffffffffff16815260200185815250600760008773ffffffffffffffffffffffffffffffffffffffff1673ffffffffffffffffffffffffffffffffffffffff168152602001908152602001600020600086815260200190815260200160002060008201518160000160006101000a81548160ff02191690831515021790555060208201518160010155604082015181600201556060820151816003015560808201518160040160006101000a81548173ffffffffffffffffffffffffffffffffffffffff021916908373ffffffffffffffffffffffffffffffffffffffff16021790555060a082015181600501559050506000600a60008773ffffffffffffffffffffffffffffffffffffffff1673ffffffffffffffffffffffffffffffffffffffff168152602001908152602001600020600086815260200190815260200160002054141561203f576001600b80549050611f419190613bfc565b600a60008773ffffffffffffffffffffffffffffffffffffffff1673ffffffffffffffffffffffffffffffffffffffff168152602001908152602001600020600086815260200190815260200160002081905550600b60405180604001604052808773ffffffffffffffffffffffffffffffffffffffff16815260200186815250908060018154018082558091505060019003906000526020600020906002020160009091909190915060008201518160000160006101000a81548173ffffffffffffffffffffffffffffffffffffffff021916908373ffffffffffffffffffffffffffffffffffffffff1602179055506020820151816001015550505b5050505050565b6000600560008473ffffffffffffffffffffffffffffffffffffffff1673ffffffffffffffffffffffffffffffffffffffff16815260200190815260200160002060008373ffffffffffffffffffffffffffffffffffffffff1673ffffffffffffffffffffffffffffffffffffffff16815260200190815260200160002060009054906101000a900460ff16905092915050565b6001816000016000828254019250508190555050565b60007f01ffc9a7000000000000000000000000000000000000000000000000000000007bffffffffffffffffffffffffffffffffffffffffffffffffffffffff1916827bffffffffffffffffffffffffffffffffffffffffffffffffffffffff1916149050919050565b61216381612a8b565b6121a2576040517f08c379a000000000000000000000000000000000000000000000000000000000815260040161219990613d0a565b60405180910390fd5b50565b600033905090565b816004600083815260200190815260200160002060006101000a81548173ffffffffffffffffffffffffffffffffffffffff021916908373ffffffffffffffffffffffffffffffffffffffff160217905550808273ffffffffffffffffffffffffffffffffffffffff1661222083610deb565b73ffffffffffffffffffffffffffffffffffffffff167f8c5be1e5ebec7d5bd14f71427d1e84f3dd0314c0f7b2291e5b200ac8c7c3b92560405160405180910390a45050565b60008061227283610deb565b90508073ffffffffffffffffffffffffffffffffffffffff168473ffffffffffffffffffffffffffffffffffffffff1614806122b457506122b38185612046565b5b806122f257508373ffffffffffffffffffffffffffffffffffffffff166122da846106d1565b73ffffffffffffffffffffffffffffffffffffffff16145b91505092915050565b8273ffffffffffffffffffffffffffffffffffffffff1661231b82610deb565b73ffffffffffffffffffffffffffffffffffffffff1614612371576040517f08c379a00000000000000000000000000000000000000000000000000000000081526004016123689061423b565b60405180910390fd5b600073ffffffffffffffffffffffffffffffffffffffff168273ffffffffffffffffffffffffffffffffffffffff1614156123e1576040517f08c379a00000000000000000000000000000000000000000000000000000000081526004016123d8906142cd565b60405180910390fd5b6123ec838383612af7565b6123f76000826121ad565b6001600360008573ffffffffffffffffffffffffffffffffffffffff1673ffffffffffffffffffffffffffffffffffffffff168152602001908152602001600020600082825461244791906142ed565b925050819055506001600360008473ffffffffffffffffffffffffffffffffffffffff1673ffffffffffffffffffffffffffffffffffffffff168152602001908152602001600020600082825461249e9190613bfc565b92505081905550816002600083815260200190815260200160002060006101000a81548173ffffffffffffffffffffffffffffffffffffffff021916908373ffffffffffffffffffffffffffffffffffffffff160217905550808273ffffffffffffffffffffffffffffffffffffffff168473ffffffffffffffffffffffffffffffffffffffff167fddf252ad1be2c89b69c2b068fc378daa952ba7f163c4a11628f55a4df523b3ef60405160405180910390a461255d838383612afc565b505050565b600081600001549050919050565b600073ffffffffffffffffffffffffffffffffffffffff168273ffffffffffffffffffffffffffffffffffffffff1614156125e0576040517f08c379a00000000000000000000000000000000000000000000000000000000081526004016125d79061436d565b60405180910390fd5b6125e981612a8b565b15612629576040517f08c379a0000000000000000000000000000000000000000000000000000000008152600401612620906143d9565b60405180910390fd5b61263560008383612af7565b6001600360008473ffffffffffffffffffffffffffffffffffffffff1673ffffffffffffffffffffffffffffffffffffffff16815260200190815260200160002060008282546126859190613bfc565b92505081905550816002600083815260200190815260200160002060006101000a81548173ffffffffffffffffffffffffffffffffffffffff021916908373ffffffffffffffffffffffffffffffffffffffff160217905550808273ffffffffffffffffffffffffffffffffffffffff16600073ffffffffffffffffffffffffffffffffffffffff167fddf252ad1be2c89b69c2b068fc378daa952ba7f163c4a11628f55a4df523b3ef60405160405180910390a461274660008383612afc565b5050565b8173ffffffffffffffffffffffffffffffffffffffff168373ffffffffffffffffffffffffffffffffffffffff1614156127b9576040517f08c379a00000000000000000000000000000000000000000000000000000000081526004016127b090614445565b60405180910390fd5b80600560008573ffffffffffffffffffffffffffffffffffffffff1673ffffffffffffffffffffffffffffffffffffffff16815260200190815260200160002060008473ffffffffffffffffffffffffffffffffffffffff1673ffffffffffffffffffffffffffffffffffffffff16815260200190815260200160002060006101000a81548160ff0219169083151502179055508173ffffffffffffffffffffffffffffffffffffffff168373ffffffffffffffffffffffffffffffffffffffff167f17307eab39ab6107e8899845ad3d59bd9653f200f220920489ca2b5937696c31836040516128aa9190612e22565b60405180910390a3505050565b6128c28484846122fb565b6128ce84848484612b01565b61290d576040517f08c379a0000000000000000000000000000000000000000000000000000000008152600401612904906144d7565b60405180910390fd5b50505050565b606060405180602001604052806000815250905090565b60606000821415612972576040518060400160405280600181526020017f30000000000000000000000000000000000000000000000000000000000000008152509050612a86565b600082905060005b600082146129a457808061298d90613deb565b915050600a8261299d9190614526565b915061297a565b60008167ffffffffffffffff8111156129c0576129bf613543565b5b6040519080825280601f01601f1916602001820160405280156129f25781602001600182028036833780820191505090505b5090505b60008514612a7f57600182612a0b91906142ed565b9150600a85612a1a9190614557565b6030612a269190613bfc565b60f81b818381518110612a3c57612a3b613dbc565b5b60200101907effffffffffffffffffffffffffffffffffffffffffffffffffffffffffffff1916908160001a905350600a85612a789190614526565b94506129f6565b8093505050505b919050565b60008073ffffffffffffffffffffffffffffffffffffffff166002600084815260200190815260200160002060009054906101000a900473ffffffffffffffffffffffffffffffffffffffff1673ffffffffffffffffffffffffffffffffffffffff1614159050919050565b505050565b505050565b6000612b228473ffffffffffffffffffffffffffffffffffffffff16612c98565b15612c8b578373ffffffffffffffffffffffffffffffffffffffff1663150b7a02612b4b6121a5565b8786866040518563ffffffff1660e01b8152600401612b6d94939291906145dd565b602060405180830381600087803b158015612b8757600080fd5b505af1925050508015612bb857506040513d601f19601f82011682018060405250810190612bb5919061463e565b60015b612c3b573d8060008114612be8576040519150601f19603f3d011682016040523d82523d6000602084013e612bed565b606091505b50600081511415612c33576040517f08c379a0000000000000000000000000000000000000000000000000000000008152600401612c2a906144d7565b60405180910390fd5b805181602001fd5b63150b7a0260e01b7bffffffffffffffffffffffffffffffffffffffffffffffffffffffff1916817bffffffffffffffffffffffffffffffffffffffffffffffffffffffff191614915050612c90565b600190505b949350505050565b6000808273ffffffffffffffffffffffffffffffffffffffff163b119050919050565b6040518060c00160405280600015158152602001600081526020016000815260200160008152602001600073ffffffffffffffffffffffffffffffffffffffff168152602001600081525090565b6040518060e001604052806000815260200160008152602001600073ffffffffffffffffffffffffffffffffffffffff16815260200160008152602001600081526020016000815260200160006003811115612d6857612d676132cd565b5b81525090565b6000604051905090565b600080fd5b600080fd5b60007fffffffff0000000000000000000000000000000000000000000000000000000082169050919050565b612db781612d82565b8114612dc257600080fd5b50565b600081359050612dd481612dae565b92915050565b600060208284031215612df057612def612d78565b5b6000612dfe84828501612dc5565b91505092915050565b60008115159050919050565b612e1c81612e07565b82525050565b6000602082019050612e376000830184612e13565b92915050565b600081519050919050565b600082825260208201905092915050565b60005b83811015612e77578082015181840152602081019050612e5c565b83811115612e86576000848401525b50505050565b6000601f19601f8301169050919050565b6000612ea882612e3d565b612eb28185612e48565b9350612ec2818560208601612e59565b612ecb81612e8c565b840191505092915050565b60006020820190508181036000830152612ef08184612e9d565b905092915050565b6000819050919050565b612f0b81612ef8565b8114612f1657600080fd5b50565b600081359050612f2881612f02565b92915050565b600060208284031215612f4457612f43612d78565b5b6000612f5284828501612f19565b91505092915050565b600073ffffffffffffffffffffffffffffffffffffffff82169050919050565b6000612f8682612f5b565b9050919050565b612f9681612f7b565b82525050565b6000602082019050612fb16000830184612f8d565b92915050565b612fc081612f7b565b8114612fcb57600080fd5b50565b600081359050612fdd81612fb7565b92915050565b60008060408385031215612ffa57612ff9612d78565b5b600061300885828601612fce565b925050602061301985828601612f19565b9150509250929050565b61302c81612ef8565b82525050565b60006020820190506130476000830184613023565b92915050565b60008060006060848603121561306657613065612d78565b5b600061307486828701612fce565b935050602061308586828701612fce565b925050604061309686828701612f19565b9150509250925092565b60006130ab82612f7b565b9050919050565b6130bb816130a0565b81146130c657600080fd5b50565b6000813590506130d8816130b2565b92915050565b6000806000606084860312156130f7576130f6612d78565b5b6000613105868287016130c9565b935050602061311686828701612f19565b925050604061312786828701612f19565b9150509250925092565b6000806040838503121561314857613147612d78565b5b6000613156858286016130c9565b925050602061316785828601612f19565b9150509250929050565b61317a81612e07565b82525050565b61318981612ef8565b82525050565b61319881612f7b565b82525050565b60c0820160008201516131b46000850182613171565b5060208201516131c76020850182613180565b5060408201516131da6040850182613180565b5060608201516131ed6060850182613180565b506080820151613200608085018261318f565b5060a082015161321360a0850182613180565b50505050565b600060c08201905061322e600083018461319e565b92915050565b60006020828403121561324a57613249612d78565b5b600061325884828501612fce565b91505092915050565b61326a81612e07565b811461327557600080fd5b50565b60008135905061328781613261565b92915050565b600080604083850312156132a4576132a3612d78565b5b60006132b285828601612fce565b92505060206132c385828601613278565b9150509250929050565b7f4e487b7100000000000000000000000000000000000000000000000000000000600052602160045260246000fd5b6004811061330d5761330c6132cd565b5b50565b600081905061331e826132fc565b919050565b600061332e82613310565b9050919050565b61333e81613323565b82525050565b60e08201600082015161335a6000850182613180565b50602082015161336d6020850182613180565b506040820151613380604085018261318f565b5060608201516133936060850182613180565b5060808201516133a66080850182613180565b5060a08201516133b960a0850182613180565b5060c08201516133cc60c0850182613335565b50505050565b600060e0820190506133e76000830184613344565b92915050565b600081519050919050565b600082825260208201905092915050565b6000819050602082019050919050565b60c08201600082015161342f6000850182613171565b5060208201516134426020850182613180565b5060408201516134556040850182613180565b5060608201516134686060850182613180565b50608082015161347b608085018261318f565b5060a082015161348e60a0850182613180565b50505050565b60006134a08383613419565b60c08301905092915050565b6000602082019050919050565b60006134c4826133ed565b6134ce81856133f8565b93506134d983613409565b8060005b8381101561350a5781516134f18882613494565b97506134fc836134ac565b9250506001810190506134dd565b5085935050505092915050565b6000602082019050818103600083015261353181846134b9565b905092915050565b600080fd5b600080fd5b7f4e487b7100000000000000000000000000000000000000000000000000000000600052604160045260246000fd5b61357b82612e8c565b810181811067ffffffffffffffff8211171561359a57613599613543565b5b80604052505050565b60006135ad612d6e565b90506135b98282613572565b919050565b600067ffffffffffffffff8211156135d9576135d8613543565b5b6135e282612e8c565b9050602081019050919050565b82818337600083830152505050565b600061361161360c846135be565b6135a3565b90508281526020810184848401111561362d5761362c61353e565b5b6136388482856135ef565b509392505050565b600082601f83011261365557613654613539565b5b81356136658482602086016135fe565b91505092915050565b6000806000806080858703121561368857613687612d78565b5b600061369687828801612fce565b94505060206136a787828801612fce565b93505060406136b887828801612f19565b925050606085013567ffffffffffffffff8111156136d9576136d8612d7d565b5b6136e587828801613640565b91505092959194509250565b600080600080600060a0868803121561370d5761370c612d78565b5b600061371b888289016130c9565b955050602061372c88828901612f19565b945050604061373d88828901613278565b935050606061374e88828901612f19565b925050608061375f88828901612f19565b9150509295509295909350565b6000806040838503121561378357613782612d78565b5b600061379185828601612fce565b92505060206137a285828601612fce565b9150509250929050565b7f4e487b7100000000000000000000000000000000000000000000000000000000600052602260045260246000fd5b600060028204905060018216806137f357607f821691505b60208210811415613807576138066137ac565b5b50919050565b7f4552433732313a20617070726f76616c20746f2063757272656e74206f776e6560008201527f7200000000000000000000000000000000000000000000000000000000000000602082015250565b6000613869602183612e48565b91506138748261380d565b604082019050919050565b600060208201905081810360008301526138988161385c565b9050919050565b7f4552433732313a20617070726f76652063616c6c6572206973206e6f7420746f60008201527f6b656e206f776e6572206e6f7220617070726f76656420666f7220616c6c0000602082015250565b60006138fb603e83612e48565b91506139068261389f565b604082019050919050565b6000602082019050818103600083015261392a816138ee565b9050919050565b7f4552433732313a2063616c6c6572206973206e6f7420746f6b656e206f776e6560008201527f72206e6f7220617070726f766564000000000000000000000000000000000000602082015250565b600061398d602e83612e48565b915061399882613931565b604082019050919050565b600060208201905081810360008301526139bc81613980565b9050919050565b7f656d7074792062616c616e636500000000000000000000000000000000000000600082015250565b60006139f9600d83612e48565b9150613a04826139c3565b602082019050919050565b60006020820190508181036000830152613a28816139ec565b9050919050565b7f6661696c656420746f2077697468647261770000000000000000000000000000600082015250565b6000613a65601283612e48565b9150613a7082613a2f565b602082019050919050565b60006020820190508181036000830152613a9481613a58565b9050919050565b7f63616e742072656e74207468697320746f6b656e000000000000000000000000600082015250565b6000613ad1601483612e48565b9150613adc82613a9b565b602082019050919050565b60006020820190508181036000830152613b0081613ac4565b9050919050565b7f616c72656164792072656e746564000000000000000000000000000000000000600082015250565b6000613b3d600e83612e48565b9150613b4882613b07565b602082019050919050565b60006020820190508181036000830152613b6c81613b30565b9050919050565b7f4e487b7100000000000000000000000000000000000000000000000000000000600052601160045260246000fd5b6000613bad82612ef8565b9150613bb883612ef8565b9250817fffffffffffffffffffffffffffffffffffffffffffffffffffffffffffffffff0483118215151615613bf157613bf0613b73565b5b828202905092915050565b6000613c0782612ef8565b9150613c1283612ef8565b9250827fffffffffffffffffffffffffffffffffffffffffffffffffffffffffffffffff03821115613c4757613c46613b73565b5b828201905092915050565b7f6d73672e76616c756520746f6f206c6f77000000000000000000000000000000600082015250565b6000613c88601183612e48565b9150613c9382613c52565b602082019050919050565b60006020820190508181036000830152613cb781613c7b565b9050919050565b7f4552433732313a20696e76616c696420746f6b656e2049440000000000000000600082015250565b6000613cf4601883612e48565b9150613cff82613cbe565b602082019050919050565b60006020820190508181036000830152613d2381613ce7565b9050919050565b7f4552433732313a2061646472657373207a65726f206973206e6f74206120766160008201527f6c6964206f776e65720000000000000000000000000000000000000000000000602082015250565b6000613d86602983612e48565b9150613d9182613d2a565b604082019050919050565b60006020820190508181036000830152613db581613d79565b9050919050565b7f4e487b7100000000000000000000000000000000000000000000000000000000600052603260045260246000fd5b6000613df682612ef8565b91507fffffffffffffffffffffffffffffffffffffffffffffffffffffffffffffffff821415613e2957613e28613b73565b5b600182019050919050565b7f746f6b656e20646f6573206e6f74206578697374000000000000000000000000600082015250565b6000613e6a601483612e48565b9150613e7582613e34565b602082019050919050565b60006020820190508181036000830152613e9981613e5d565b9050919050565b7f6e6f7420696e2066696e69736865642073746174757300000000000000000000600082015250565b6000613ed6601683612e48565b9150613ee182613ea0565b602082019050919050565b60006020820190508181036000830152613f0581613ec9565b9050919050565b600081519050613f1b81613261565b92915050565b600060208284031215613f3757613f36612d78565b5b6000613f4584828501613f0c565b91505092915050565b600081519050613f5d81612fb7565b92915050565b600060208284031215613f7957613f78612d78565b5b6000613f8784828501613f4e565b91505092915050565b6000604082019050613fa56000830185613023565b613fb26020830184612e13565b9392505050565b7f616c72656164792066696e697368656400000000000000000000000000000000600082015250565b6000613fef601083612e48565b9150613ffa82613fb9565b602082019050919050565b6000602082019050818103600083015261401e81613fe2565b9050919050565b7f72656e74206e6f742066696e6973686564207965740000000000000000000000600082015250565b600061405b601583612e48565b915061406682614025565b602082019050919050565b6000602082019050818103600083015261408a8161404e565b9050919050565b600081905092915050565b60006140a782612e3d565b6140b18185614091565b93506140c1818560208601612e59565b80840191505092915050565b60006140d9828561409c565b91506140e5828461409c565b91508190509392505050565b7f6e6f74206f776e65720000000000000000000000000000000000000000000000600082015250565b6000614127600983612e48565b9150614132826140f1565b602082019050919050565b600060208201905081810360008301526141568161411a565b9050919050565b7f63616e74206368616e6765207768696c652072656e7465640000000000000000600082015250565b6000614193601883612e48565b915061419e8261415d565b602082019050919050565b600060208201905081810360008301526141c281614186565b9050919050565b7f4552433732313a207472616e736665722066726f6d20696e636f72726563742060008201527f6f776e6572000000000000000000000000000000000000000000000000000000602082015250565b6000614225602583612e48565b9150614230826141c9565b604082019050919050565b6000602082019050818103600083015261425481614218565b9050919050565b7f4552433732313a207472616e7366657220746f20746865207a65726f2061646460008201527f7265737300000000000000000000000000000000000000000000000000000000602082015250565b60006142b7602483612e48565b91506142c28261425b565b604082019050919050565b600060208201905081810360008301526142e6816142aa565b9050919050565b60006142f882612ef8565b915061430383612ef8565b92508282101561431657614315613b73565b5b828203905092915050565b7f4552433732313a206d696e7420746f20746865207a65726f2061646472657373600082015250565b6000614357602083612e48565b915061436282614321565b602082019050919050565b600060208201905081810360008301526143868161434a565b9050919050565b7f4552433732313a20746f6b656e20616c7265616479206d696e74656400000000600082015250565b60006143c3601c83612e48565b91506143ce8261438d565b602082019050919050565b600060208201905081810360008301526143f2816143b6565b9050919050565b7f4552433732313a20617070726f766520746f2063616c6c657200000000000000600082015250565b600061442f601983612e48565b915061443a826143f9565b602082019050919050565b6000602082019050818103600083015261445e81614422565b9050919050565b7f4552433732313a207472616e7366657220746f206e6f6e20455243373231526560008201527f63656976657220696d706c656d656e7465720000000000000000000000000000602082015250565b60006144c1603283612e48565b91506144cc82614465565b604082019050919050565b600060208201905081810360008301526144f0816144b4565b9050919050565b7f4e487b7100000000000000000000000000000000000000000000000000000000600052601260045260246000fd5b600061453182612ef8565b915061453c83612ef8565b92508261454c5761454b6144f7565b5b828204905092915050565b600061456282612ef8565b915061456d83612ef8565b92508261457d5761457c6144f7565b5b828206905092915050565b600081519050919050565b600082825260208201905092915050565b60006145af82614588565b6145b98185614593565b93506145c9818560208601612e59565b6145d281612e8c565b840191505092915050565b60006080820190506145f26000830187612f8d565b6145ff6020830186612f8d565b61460c6040830185613023565b818103606083015261461e81846145a4565b905095945050505050565b60008151905061463881612dae565b92915050565b60006020828403121561465457614653612d78565b5b600061466284828501614629565b9150509291505056fea2646970667358221220a1570f254e61d259e881e004199af985df0bb29137614f587f3efb7e6760874964736f6c63430008090033",
  "devdoc": {
    "kind": "dev",
    "methods": {
      "approve(address,uint256)": {
        "details": "See {IERC721-approve}."
      },
      "balanceOf(address)": {
        "details": "See {IERC721-balanceOf}."
      },
      "getApproved(uint256)": {
        "details": "See {IERC721-getApproved}."
      },
      "isApprovedForAll(address,address)": {
        "details": "See {IERC721-isApprovedForAll}."
      },
      "name()": {
        "details": "See {IERC721Metadata-name}."
      },
      "ownerOf(uint256)": {
        "details": "See {IERC721-ownerOf}."
      },
      "safeTransferFrom(address,address,uint256)": {
        "details": "See {IERC721-safeTransferFrom}."
      },
      "safeTransferFrom(address,address,uint256,bytes)": {
        "details": "See {IERC721-safeTransferFrom}."
      },
      "setApprovalForAll(address,bool)": {
        "details": "See {IERC721-setApprovalForAll}."
      },
      "supportsInterface(bytes4)": {
        "details": "See {IERC165-supportsInterface}."
      },
      "symbol()": {
        "details": "See {IERC721Metadata-symbol}."
      },
      "tokenURI(uint256)": {
        "details": "See {IERC721Metadata-tokenURI}."
      },
      "transferFrom(address,address,uint256)": {
        "details": "See {IERC721-transferFrom}."
      }
    },
    "version": 1
  },
  "userdoc": {
    "kind": "user",
    "methods": {},
    "version": 1
  },
  "storageLayout": {
    "storage": [
      {
        "astId": 103,
        "contract": "contracts/ERC721Rent.sol:ERC721Rent",
        "label": "_name",
        "offset": 0,
        "slot": "0",
        "type": "t_string_storage"
      },
      {
        "astId": 105,
        "contract": "contracts/ERC721Rent.sol:ERC721Rent",
        "label": "_symbol",
        "offset": 0,
        "slot": "1",
        "type": "t_string_storage"
      },
      {
        "astId": 109,
        "contract": "contracts/ERC721Rent.sol:ERC721Rent",
        "label": "_owners",
        "offset": 0,
        "slot": "2",
        "type": "t_mapping(t_uint256,t_address)"
      },
      {
        "astId": 113,
        "contract": "contracts/ERC721Rent.sol:ERC721Rent",
        "label": "_balances",
        "offset": 0,
        "slot": "3",
        "type": "t_mapping(t_address,t_uint256)"
      },
      {
        "astId": 117,
        "contract": "contracts/ERC721Rent.sol:ERC721Rent",
        "label": "_tokenApprovals",
        "offset": 0,
        "slot": "4",
        "type": "t_mapping(t_uint256,t_address)"
      },
      {
        "astId": 123,
        "contract": "contracts/ERC721Rent.sol:ERC721Rent",
        "label": "_operatorApprovals",
        "offset": 0,
        "slot": "5",
        "type": "t_mapping(t_address,t_mapping(t_address,t_bool))"
      },
      {
        "astId": 2340,
        "contract": "contracts/ERC721Rent.sol:ERC721Rent",
        "label": "_tokenIds",
        "offset": 0,
        "slot": "6",
        "type": "t_struct(Counter)1428_storage"
      },
      {
        "astId": 2347,
        "contract": "contracts/ERC721Rent.sol:ERC721Rent",
        "label": "_rentConditions",
        "offset": 0,
        "slot": "7",
        "type": "t_mapping(t_address,t_mapping(t_uint256,t_struct(RentConditions)2963_storage))"
      },
      {
        "astId": 2351,
        "contract": "contracts/ERC721Rent.sol:ERC721Rent",
        "label": "_balances",
        "offset": 0,
        "slot": "8",
        "type": "t_mapping(t_address,t_uint256)"
      },
      {
        "astId": 2356,
        "contract": "contracts/ERC721Rent.sol:ERC721Rent",
        "label": "_tokenData",
        "offset": 0,
        "slot": "9",
        "type": "t_mapping(t_uint256,t_struct(Rent)2984_storage)"
      },
      {
        "astId": 2367,
        "contract": "contracts/ERC721Rent.sol:ERC721Rent",
        "label": "_sourceTokenIdArrayPos",
        "offset": 0,
        "slot": "10",
        "type": "t_mapping(t_address,t_mapping(t_uint256,t_uint256))"
      },
      {
        "astId": 2371,
        "contract": "contracts/ERC721Rent.sol:ERC721Rent",
        "label": "_sourceTokenIdArray",
        "offset": 0,
        "slot": "11",
        "type": "t_array(t_struct(_SourceTokenId)2361_storage)dyn_storage"
      },
      {
        "astId": 2374,
        "contract": "contracts/ERC721Rent.sol:ERC721Rent",
        "label": "_resolver",
        "offset": 0,
        "slot": "12",
        "type": "t_contract(IDisputeResolver)3068"
      }
    ],
    "types": {
      "t_address": {
        "encoding": "inplace",
        "label": "address",
        "numberOfBytes": "20"
      },
      "t_array(t_struct(_SourceTokenId)2361_storage)dyn_storage": {
        "base": "t_struct(_SourceTokenId)2361_storage",
        "encoding": "dynamic_array",
        "label": "struct ERC721Rent._SourceTokenId[]",
        "numberOfBytes": "32"
      },
      "t_bool": {
        "encoding": "inplace",
        "label": "bool",
        "numberOfBytes": "1"
      },
      "t_contract(IDisputeResolver)3068": {
        "encoding": "inplace",
        "label": "contract IDisputeResolver",
        "numberOfBytes": "20"
      },
      "t_enum(RentStatus)2968": {
        "encoding": "inplace",
        "label": "enum IERC721Rent.RentStatus",
        "numberOfBytes": "1"
      },
      "t_mapping(t_address,t_bool)": {
        "encoding": "mapping",
        "key": "t_address",
        "label": "mapping(address => bool)",
        "numberOfBytes": "32",
        "value": "t_bool"
      },
      "t_mapping(t_address,t_mapping(t_address,t_bool))": {
        "encoding": "mapping",
        "key": "t_address",
        "label": "mapping(address => mapping(address => bool))",
        "numberOfBytes": "32",
        "value": "t_mapping(t_address,t_bool)"
      },
      "t_mapping(t_address,t_mapping(t_uint256,t_struct(RentConditions)2963_storage))": {
        "encoding": "mapping",
        "key": "t_address",
        "label": "mapping(address => mapping(uint256 => struct IERC721Rent.RentConditions))",
        "numberOfBytes": "32",
        "value": "t_mapping(t_uint256,t_struct(RentConditions)2963_storage)"
      },
      "t_mapping(t_address,t_mapping(t_uint256,t_uint256))": {
        "encoding": "mapping",
        "key": "t_address",
        "label": "mapping(address => mapping(uint256 => uint256))",
        "numberOfBytes": "32",
        "value": "t_mapping(t_uint256,t_uint256)"
      },
      "t_mapping(t_address,t_uint256)": {
        "encoding": "mapping",
        "key": "t_address",
        "label": "mapping(address => uint256)",
        "numberOfBytes": "32",
        "value": "t_uint256"
      },
      "t_mapping(t_uint256,t_address)": {
        "encoding": "mapping",
        "key": "t_uint256",
        "label": "mapping(uint256 => address)",
        "numberOfBytes": "32",
        "value": "t_address"
      },
      "t_mapping(t_uint256,t_struct(Rent)2984_storage)": {
        "encoding": "mapping",
        "key": "t_uint256",
        "label": "mapping(uint256 => struct IERC721Rent.Rent)",
        "numberOfBytes": "32",
        "value": "t_struct(Rent)2984_storage"
      },
      "t_mapping(t_uint256,t_struct(RentConditions)2963_storage)": {
        "encoding": "mapping",
        "key": "t_uint256",
        "label": "mapping(uint256 => struct IERC721Rent.RentConditions)",
        "numberOfBytes": "32",
        "value": "t_struct(RentConditions)2963_storage"
      },
      "t_mapping(t_uint256,t_uint256)": {
        "encoding": "mapping",
        "key": "t_uint256",
        "label": "mapping(uint256 => uint256)",
        "numberOfBytes": "32",
        "value": "t_uint256"
      },
      "t_string_storage": {
        "encoding": "bytes",
        "label": "string",
        "numberOfBytes": "32"
      },
      "t_struct(Counter)1428_storage": {
        "encoding": "inplace",
        "label": "struct Counters.Counter",
        "members": [
          {
            "astId": 1427,
            "contract": "contracts/ERC721Rent.sol:ERC721Rent",
            "label": "_value",
            "offset": 0,
            "slot": "0",
            "type": "t_uint256"
          }
        ],
        "numberOfBytes": "32"
      },
      "t_struct(Rent)2984_storage": {
        "encoding": "inplace",
        "label": "struct IERC721Rent.Rent",
        "members": [
          {
            "astId": 2970,
            "contract": "contracts/ERC721Rent.sol:ERC721Rent",
            "label": "startTs",
            "offset": 0,
            "slot": "0",
            "type": "t_uint256"
          },
          {
            "astId": 2972,
            "contract": "contracts/ERC721Rent.sol:ERC721Rent",
            "label": "endTs",
            "offset": 0,
            "slot": "1",
            "type": "t_uint256"
          },
          {
            "astId": 2974,
            "contract": "contracts/ERC721Rent.sol:ERC721Rent",
            "label": "sourceERC721Contract",
            "offset": 0,
            "slot": "2",
            "type": "t_address"
          },
          {
            "astId": 2976,
            "contract": "contracts/ERC721Rent.sol:ERC721Rent",
            "label": "sourceTokenId",
            "offset": 0,
            "slot": "3",
            "type": "t_uint256"
          },
          {
            "astId": 2978,
            "contract": "contracts/ERC721Rent.sol:ERC721Rent",
            "label": "price",
            "offset": 0,
            "slot": "4",
            "type": "t_uint256"
          },
          {
            "astId": 2980,
            "contract": "contracts/ERC721Rent.sol:ERC721Rent",
            "label": "collateral",
            "offset": 0,
            "slot": "5",
            "type": "t_uint256"
          },
          {
            "astId": 2983,
            "contract": "contracts/ERC721Rent.sol:ERC721Rent",
            "label": "status",
            "offset": 0,
            "slot": "6",
            "type": "t_enum(RentStatus)2968"
          }
        ],
        "numberOfBytes": "224"
      },
      "t_struct(RentConditions)2963_storage": {
        "encoding": "inplace",
        "label": "struct IERC721Rent.RentConditions",
        "members": [
          {
            "astId": 2952,
            "contract": "contracts/ERC721Rent.sol:ERC721Rent",
            "label": "allowed",
            "offset": 0,
            "slot": "0",
            "type": "t_bool"
          },
          {
            "astId": 2954,
            "contract": "contracts/ERC721Rent.sol:ERC721Rent",
            "label": "pricePerSecond",
            "offset": 0,
            "slot": "1",
            "type": "t_uint256"
          },
          {
            "astId": 2956,
            "contract": "contracts/ERC721Rent.sol:ERC721Rent",
            "label": "collateralPerSecond",
            "offset": 0,
            "slot": "2",
            "type": "t_uint256"
          },
          {
            "astId": 2958,
            "contract": "contracts/ERC721Rent.sol:ERC721Rent",
            "label": "currentRentingToken",
            "offset": 0,
            "slot": "3",
            "type": "t_uint256"
          },
          {
            "astId": 2960,
            "contract": "contracts/ERC721Rent.sol:ERC721Rent",
            "label": "sourceERC721Contract",
            "offset": 0,
            "slot": "4",
            "type": "t_address"
          },
          {
            "astId": 2962,
            "contract": "contracts/ERC721Rent.sol:ERC721Rent",
            "label": "sourceTokenId",
            "offset": 0,
            "slot": "5",
            "type": "t_uint256"
          }
        ],
        "numberOfBytes": "192"
      },
      "t_struct(_SourceTokenId)2361_storage": {
        "encoding": "inplace",
        "label": "struct ERC721Rent._SourceTokenId",
        "members": [
          {
            "astId": 2358,
            "contract": "contracts/ERC721Rent.sol:ERC721Rent",
            "label": "contractAddress",
            "offset": 0,
            "slot": "0",
            "type": "t_address"
          },
          {
            "astId": 2360,
            "contract": "contracts/ERC721Rent.sol:ERC721Rent",
            "label": "tokenId",
            "offset": 0,
            "slot": "1",
            "type": "t_uint256"
          }
        ],
        "numberOfBytes": "64"
      },
      "t_uint256": {
        "encoding": "inplace",
        "label": "uint256",
        "numberOfBytes": "32"
      }
    }
  }
}