{
  "address": "0xcC052B4d8BCc475DCeb7acbB27bf2DEdC2B659Ad",
  "abi": [
    {
      "inputs": [
        {
          "internalType": "address",
          "name": "resolver",
          "type": "address"
        }
      ],
      "stateMutability": "nonpayable",
      "type": "constructor"
    },
    {
      "anonymous": false,
      "inputs": [
        {
          "indexed": true,
          "internalType": "address",
          "name": "owner",
          "type": "address"
        },
        {
          "indexed": true,
          "internalType": "address",
          "name": "approved",
          "type": "address"
        },
        {
          "indexed": true,
          "internalType": "uint256",
          "name": "tokenId",
          "type": "uint256"
        }
      ],
      "name": "Approval",
      "type": "event"
    },
    {
      "anonymous": false,
      "inputs": [
        {
          "indexed": true,
          "internalType": "address",
          "name": "owner",
          "type": "address"
        },
        {
          "indexed": true,
          "internalType": "address",
          "name": "operator",
          "type": "address"
        },
        {
          "indexed": false,
          "internalType": "bool",
          "name": "approved",
          "type": "bool"
        }
      ],
      "name": "ApprovalForAll",
      "type": "event"
    },
    {
      "anonymous": false,
      "inputs": [
        {
          "indexed": false,
          "internalType": "uint256",
          "name": "tokenId",
          "type": "uint256"
        },
        {
          "indexed": false,
          "internalType": "bool",
          "name": "rentIsValid",
          "type": "bool"
        }
      ],
      "name": "DisputeSettled",
      "type": "event"
    },
    {
      "anonymous": false,
      "inputs": [
        {
          "indexed": true,
          "internalType": "address",
          "name": "from",
          "type": "address"
        },
        {
          "indexed": true,
          "internalType": "address",
          "name": "to",
          "type": "address"
        },
        {
          "indexed": true,
          "internalType": "uint256",
          "name": "tokenId",
          "type": "uint256"
        }
      ],
      "name": "Transfer",
      "type": "event"
    },
    {
      "inputs": [
        {
          "internalType": "contract IERC721",
          "name": "erc721Contract",
          "type": "address"
        },
        {
          "internalType": "uint256",
          "name": "tokenId",
          "type": "uint256"
        },
        {
          "internalType": "bool",
          "name": "allow",
          "type": "bool"
        },
        {
          "internalType": "uint256",
          "name": "pricePerSecond",
          "type": "uint256"
        },
        {
          "internalType": "uint256",
          "name": "collateralPerSecond",
          "type": "uint256"
        }
      ],
      "name": "allowRent",
      "outputs": [],
      "stateMutability": "nonpayable",
      "type": "function"
    },
    {
      "inputs": [
        {
          "internalType": "address",
          "name": "to",
          "type": "address"
        },
        {
          "internalType": "uint256",
          "name": "tokenId",
          "type": "uint256"
        }
      ],
      "name": "approve",
      "outputs": [],
      "stateMutability": "nonpayable",
      "type": "function"
    },
    {
      "inputs": [
        {
          "internalType": "address",
          "name": "owner",
          "type": "address"
        }
      ],
      "name": "balanceOf",
      "outputs": [
        {
          "internalType": "uint256",
          "name": "",
          "type": "uint256"
        }
      ],
      "stateMutability": "view",
      "type": "function"
    },
    {
      "inputs": [
        {
          "internalType": "uint256",
          "name": "tokenId",
          "type": "uint256"
        }
      ],
      "name": "finalizeRent",
      "outputs": [],
      "stateMutability": "nonpayable",
      "type": "function"
    },
    {
      "inputs": [
        {
          "internalType": "uint256",
          "name": "tokenId",
          "type": "uint256"
        }
      ],
      "name": "getApproved",
      "outputs": [
        {
          "internalType": "address",
          "name": "",
          "type": "address"
        }
      ],
      "stateMutability": "view",
      "type": "function"
    },
    {
      "inputs": [],
      "name": "getBalance",
      "outputs": [
        {
          "internalType": "uint256",
          "name": "",
          "type": "uint256"
        }
      ],
      "stateMutability": "view",
      "type": "function"
    },
    {
      "inputs": [
        {
          "internalType": "contract IERC721",
          "name": "erc721Contract",
          "type": "address"
        },
        {
          "internalType": "uint256",
          "name": "tokenId",
          "type": "uint256"
        }
      ],
      "name": "getRentConditions",
      "outputs": [
        {
          "components": [
            {
              "internalType": "bool",
              "name": "allowed",
              "type": "bool"
            },
            {
              "internalType": "uint256",
              "name": "pricePerSecond",
              "type": "uint256"
            },
            {
              "internalType": "uint256",
              "name": "collateralPerSecond",
              "type": "uint256"
            }
          ],
          "internalType": "struct IERC721Rent.RentConditions",
          "name": "",
          "type": "tuple"
        }
      ],
      "stateMutability": "view",
      "type": "function"
    },
    {
      "inputs": [
        {
          "internalType": "uint256",
          "name": "tokenId",
          "type": "uint256"
        }
      ],
      "name": "getTokenData",
      "outputs": [
        {
          "components": [
            {
              "internalType": "uint256",
              "name": "startTs",
              "type": "uint256"
            },
            {
              "internalType": "uint256",
              "name": "endTs",
              "type": "uint256"
            },
            {
              "internalType": "address",
              "name": "sourceERC721Contract",
              "type": "address"
            },
            {
              "internalType": "uint256",
              "name": "sourceTokenId",
              "type": "uint256"
            },
            {
              "internalType": "uint256",
              "name": "price",
              "type": "uint256"
            },
            {
              "internalType": "uint256",
              "name": "collateral",
              "type": "uint256"
            },
            {
              "internalType": "enum IERC721Rent.RentStatus",
              "name": "status",
              "type": "uint8"
            }
          ],
          "internalType": "struct IERC721Rent.Rent",
          "name": "",
          "type": "tuple"
        }
      ],
      "stateMutability": "view",
      "type": "function"
    },
    {
      "inputs": [
        {
          "internalType": "address",
          "name": "owner",
          "type": "address"
        },
        {
          "internalType": "address",
          "name": "operator",
          "type": "address"
        }
      ],
      "name": "isApprovedForAll",
      "outputs": [
        {
          "internalType": "bool",
          "name": "",
          "type": "bool"
        }
      ],
      "stateMutability": "view",
      "type": "function"
    },
    {
      "inputs": [],
      "name": "name",
      "outputs": [
        {
          "internalType": "string",
          "name": "",
          "type": "string"
        }
      ],
      "stateMutability": "view",
      "type": "function"
    },
    {
      "inputs": [
        {
          "internalType": "uint256",
          "name": "tokenId",
          "type": "uint256"
        }
      ],
      "name": "ownerOf",
      "outputs": [
        {
          "internalType": "address",
          "name": "",
          "type": "address"
        }
      ],
      "stateMutability": "view",
      "type": "function"
    },
    {
      "inputs": [
        {
          "internalType": "contract IERC721",
          "name": "erc721Contract",
          "type": "address"
        },
        {
          "internalType": "uint256",
          "name": "tokenId",
          "type": "uint256"
        },
        {
          "internalType": "uint256",
          "name": "duration",
          "type": "uint256"
        }
      ],
      "name": "rent",
      "outputs": [
        {
          "internalType": "uint256",
          "name": "",
          "type": "uint256"
        }
      ],
      "stateMutability": "payable",
      "type": "function"
    },
    {
      "inputs": [
        {
          "internalType": "uint256",
          "name": "tokenId",
          "type": "uint256"
        }
      ],
      "name": "resolveDispute",
      "outputs": [],
      "stateMutability": "nonpayable",
      "type": "function"
    },
    {
      "inputs": [
        {
          "internalType": "address",
          "name": "from",
          "type": "address"
        },
        {
          "internalType": "address",
          "name": "to",
          "type": "address"
        },
        {
          "internalType": "uint256",
          "name": "tokenId",
          "type": "uint256"
        }
      ],
      "name": "safeTransferFrom",
      "outputs": [],
      "stateMutability": "nonpayable",
      "type": "function"
    },
    {
      "inputs": [
        {
          "internalType": "address",
          "name": "from",
          "type": "address"
        },
        {
          "internalType": "address",
          "name": "to",
          "type": "address"
        },
        {
          "internalType": "uint256",
          "name": "tokenId",
          "type": "uint256"
        },
        {
          "internalType": "bytes",
          "name": "data",
          "type": "bytes"
        }
      ],
      "name": "safeTransferFrom",
      "outputs": [],
      "stateMutability": "nonpayable",
      "type": "function"
    },
    {
      "inputs": [
        {
          "internalType": "address",
          "name": "operator",
          "type": "address"
        },
        {
          "internalType": "bool",
          "name": "approved",
          "type": "bool"
        }
      ],
      "name": "setApprovalForAll",
      "outputs": [],
      "stateMutability": "nonpayable",
      "type": "function"
    },
    {
      "inputs": [
        {
          "internalType": "bytes4",
          "name": "interfaceId",
          "type": "bytes4"
        }
      ],
      "name": "supportsInterface",
      "outputs": [
        {
          "internalType": "bool",
          "name": "",
          "type": "bool"
        }
      ],
      "stateMutability": "view",
      "type": "function"
    },
    {
      "inputs": [],
      "name": "symbol",
      "outputs": [
        {
          "internalType": "string",
          "name": "",
          "type": "string"
        }
      ],
      "stateMutability": "view",
      "type": "function"
    },
    {
      "inputs": [
        {
          "internalType": "uint256",
          "name": "tokenId",
          "type": "uint256"
        }
      ],
      "name": "tokenURI",
      "outputs": [
        {
          "internalType": "string",
          "name": "",
          "type": "string"
        }
      ],
      "stateMutability": "view",
      "type": "function"
    },
    {
      "inputs": [
        {
          "internalType": "address",
          "name": "from",
          "type": "address"
        },
        {
          "internalType": "address",
          "name": "to",
          "type": "address"
        },
        {
          "internalType": "uint256",
          "name": "tokenId",
          "type": "uint256"
        }
      ],
      "name": "transferFrom",
      "outputs": [],
      "stateMutability": "nonpayable",
      "type": "function"
    },
    {
      "inputs": [],
      "name": "withdraw",
      "outputs": [],
      "stateMutability": "nonpayable",
      "type": "function"
    }
  ],
  "transactionHash": "0xd391cd9c4777da2c126b3d6f192941642f0d70542cab166922a56ed5561f9747",
  "args": [
    "0xE5f912Bc7347F3075f13eAF9D0f5D47F5074bA6b"
  ],
  "numDeployments": 1,
  "solcInputHash": "c05a2a29766fff7aac1c4ae6cf8776e6",
  "bytecode": "0x60806040523480156200001157600080fd5b506040516200434c3803806200434c833981810160405281019062000037919062000239565b6040518060400160405280600d81526020017f45524337323157726170706572000000000000000000000000000000000000008152506040518060400160405280600381526020017f45435700000000000000000000000000000000000000000000000000000000008152508160009080519060200190620000bb9291906200011f565b508060019080519060200190620000d49291906200011f565b50505080600b60006101000a81548173ffffffffffffffffffffffffffffffffffffffff021916908373ffffffffffffffffffffffffffffffffffffffff16021790555050620002d0565b8280546200012d906200029a565b90600052602060002090601f0160209004810192826200015157600085556200019d565b82601f106200016c57805160ff19168380011785556200019d565b828001600101855582156200019d579182015b828111156200019c5782518255916020019190600101906200017f565b5b509050620001ac9190620001b0565b5090565b5b80821115620001cb576000816000905550600101620001b1565b5090565b600080fd5b600073ffffffffffffffffffffffffffffffffffffffff82169050919050565b60006200020182620001d4565b9050919050565b6200021381620001f4565b81146200021f57600080fd5b50565b600081519050620002338162000208565b92915050565b600060208284031215620002525762000251620001cf565b5b6000620002628482850162000222565b91505092915050565b7f4e487b7100000000000000000000000000000000000000000000000000000000600052602260045260246000fd5b60006002820490506001821680620002b357607f821691505b60208210811415620002ca57620002c96200026b565b5b50919050565b61406c80620002e06000396000f3fe60806040526004361061012a5760003560e01c80636c5cad48116100ab578063b88d4fde1161006f578063b88d4fde14610409578063c2b7b86814610432578063c86c89211461045b578063c87b56dd14610484578063e9679937146104c1578063e985e9c5146104ea5761012a565b80636c5cad48146102fe57806370a082311461033b57806395d89b4114610378578063a22cb465146103a3578063b09afec1146103cc5761012a565b806323b872dd116100f257806323b872dd146102285780633ccfd60b1461025157806342842e0e146102685780634dc32a18146102915780636352211e146102c15761012a565b806301ffc9a71461012f57806306fdde031461016c578063081812fc14610197578063095ea7b3146101d457806312065fe0146101fd575b600080fd5b34801561013b57600080fd5b506101566004803603810190610151919061292a565b610527565b6040516101639190612972565b60405180910390f35b34801561017857600080fd5b50610181610609565b60405161018e9190612a26565b60405180910390f35b3480156101a357600080fd5b506101be60048036038101906101b99190612a7e565b61069b565b6040516101cb9190612aec565b60405180910390f35b3480156101e057600080fd5b506101fb60048036038101906101f69190612b33565b6106e1565b005b34801561020957600080fd5b506102126107f9565b60405161021f9190612b82565b60405180910390f35b34801561023457600080fd5b5061024f600480360381019061024a9190612b9d565b610840565b005b34801561025d57600080fd5b506102666108a0565b005b34801561027457600080fd5b5061028f600480360381019061028a9190612b9d565b610a28565b005b6102ab60048036038101906102a69190612c2e565b610a48565b6040516102b89190612b82565b60405180910390f35b3480156102cd57600080fd5b506102e860048036038101906102e39190612a7e565b610daf565b6040516102f59190612aec565b60405180910390f35b34801561030a57600080fd5b5061032560048036038101906103209190612c81565b610e61565b6040516103329190612d21565b60405180910390f35b34801561034757600080fd5b50610362600480360381019061035d9190612d3c565b610efb565b60405161036f9190612b82565b60405180910390f35b34801561038457600080fd5b5061038d610fb3565b60405161039a9190612a26565b60405180910390f35b3480156103af57600080fd5b506103ca60048036038101906103c59190612d95565b611045565b005b3480156103d857600080fd5b506103f360048036038101906103ee9190612a7e565b61105b565b6040516104009190612ee9565b60405180910390f35b34801561041557600080fd5b50610430600480360381019061042b9190613039565b61114b565b005b34801561043e57600080fd5b5061045960048036038101906104549190612a7e565b6111ad565b005b34801561046757600080fd5b50610482600480360381019061047d9190612a7e565b611570565b005b34801561049057600080fd5b506104ab60048036038101906104a69190612a7e565b611925565b6040516104b89190612a26565b60405180910390f35b3480156104cd57600080fd5b506104e860048036038101906104e391906130bc565b61198d565b005b3480156104f657600080fd5b50610511600480360381019061050c9190613137565b611bc1565b60405161051e9190612972565b60405180910390f35b60007f80ac58cd000000000000000000000000000000000000000000000000000000007bffffffffffffffffffffffffffffffffffffffffffffffffffffffff1916827bffffffffffffffffffffffffffffffffffffffffffffffffffffffff191614806105f257507f5b5e139f000000000000000000000000000000000000000000000000000000007bffffffffffffffffffffffffffffffffffffffffffffffffffffffff1916827bffffffffffffffffffffffffffffffffffffffffffffffffffffffff1916145b80610602575061060182611c55565b5b9050919050565b606060008054610618906131a6565b80601f0160208091040260200160405190810160405280929190818152602001828054610644906131a6565b80156106915780601f1061066657610100808354040283529160200191610691565b820191906000526020600020905b81548152906001019060200180831161067457829003601f168201915b5050505050905090565b60006106a682611cbf565b6004600083815260200190815260200160002060009054906101000a900473ffffffffffffffffffffffffffffffffffffffff169050919050565b60006106ec82610daf565b90508073ffffffffffffffffffffffffffffffffffffffff168373ffffffffffffffffffffffffffffffffffffffff16141561075d576040517f08c379a00000000000000000000000000000000000000000000000000000000081526004016107549061324a565b60405180910390fd5b8073ffffffffffffffffffffffffffffffffffffffff1661077c611d0a565b73ffffffffffffffffffffffffffffffffffffffff1614806107ab57506107aa816107a5611d0a565b611bc1565b5b6107ea576040517f08c379a00000000000000000000000000000000000000000000000000000000081526004016107e1906132dc565b60405180910390fd5b6107f48383611d12565b505050565b6000600960003373ffffffffffffffffffffffffffffffffffffffff1673ffffffffffffffffffffffffffffffffffffffff16815260200190815260200160002054905090565b61085161084b611d0a565b82611dcb565b610890576040517f08c379a00000000000000000000000000000000000000000000000000000000081526004016108879061336e565b60405180910390fd5b61089b838383611e60565b505050565b6000600960003373ffffffffffffffffffffffffffffffffffffffff1673ffffffffffffffffffffffffffffffffffffffff1681526020019081526020016000205411610922576040517f08c379a0000000000000000000000000000000000000000000000000000000008152600401610919906133da565b60405180910390fd5b6000600960003373ffffffffffffffffffffffffffffffffffffffff1673ffffffffffffffffffffffffffffffffffffffff1681526020019081526020016000205490506000600960003373ffffffffffffffffffffffffffffffffffffffff1673ffffffffffffffffffffffffffffffffffffffff1681526020019081526020016000208190555060003373ffffffffffffffffffffffffffffffffffffffff166108fc839081150290604051600060405180830381858888f19350505050905080610a24576040517f08c379a0000000000000000000000000000000000000000000000000000000008152600401610a1b90613446565b60405180910390fd5b5050565b610a438383836040518060200160405280600081525061114b565b505050565b600080600760008673ffffffffffffffffffffffffffffffffffffffff1673ffffffffffffffffffffffffffffffffffffffff16815260200190815260200160002060008581526020019081526020016000209050600115158160000160009054906101000a900460ff16151514610af5576040517f08c379a0000000000000000000000000000000000000000000000000000000008152600401610aec906134b2565b60405180910390fd5b6000600860008773ffffffffffffffffffffffffffffffffffffffff1673ffffffffffffffffffffffffffffffffffffffff16815260200190815260200160002060008681526020019081526020016000205414610b88576040517f08c379a0000000000000000000000000000000000000000000000000000000008152600401610b7f9061351e565b60405180910390fd5b6000816001015484610b9a919061356d565b90506000826002015485610bae919061356d565b90508082610bbc91906135c7565b341015610bfe576040517f08c379a0000000000000000000000000000000000000000000000000000000008152600401610bf590613669565b60405180910390fd5b610c0860066120c7565b6000610c1460066120dd565b905060006040518060e001604052804281526020018842610c3591906135c7565b81526020018a73ffffffffffffffffffffffffffffffffffffffff16815260200189815260200185815260200184815260200160016003811115610c7c57610c7b612de4565b5b815250905081600860008b73ffffffffffffffffffffffffffffffffffffffff1673ffffffffffffffffffffffffffffffffffffffff16815260200190815260200160002060008a81526020019081526020016000208190555080600a6000848152602001908152602001600020600082015181600001556020820151816001015560408201518160020160006101000a81548173ffffffffffffffffffffffffffffffffffffffff021916908373ffffffffffffffffffffffffffffffffffffffff160217905550606082015181600301556080820151816004015560a0820151816005015560c08201518160060160006101000a81548160ff02191690836003811115610d8e57610d8d612de4565b5b0217905550905050610da033896120eb565b81955050505050509392505050565b6000806002600084815260200190815260200160002060009054906101000a900473ffffffffffffffffffffffffffffffffffffffff169050600073ffffffffffffffffffffffffffffffffffffffff168173ffffffffffffffffffffffffffffffffffffffff161415610e58576040517f08c379a0000000000000000000000000000000000000000000000000000000008152600401610e4f906136d5565b60405180910390fd5b80915050919050565b610e69612836565b600760008473ffffffffffffffffffffffffffffffffffffffff1673ffffffffffffffffffffffffffffffffffffffff16815260200190815260200160002060008381526020019081526020016000206040518060600160405290816000820160009054906101000a900460ff1615151515815260200160018201548152602001600282015481525050905092915050565b60008073ffffffffffffffffffffffffffffffffffffffff168273ffffffffffffffffffffffffffffffffffffffff161415610f6c576040517f08c379a0000000000000000000000000000000000000000000000000000000008152600401610f6390613767565b60405180910390fd5b600360008373ffffffffffffffffffffffffffffffffffffffff1673ffffffffffffffffffffffffffffffffffffffff168152602001908152602001600020549050919050565b606060018054610fc2906131a6565b80601f0160208091040260200160405190810160405280929190818152602001828054610fee906131a6565b801561103b5780601f106110105761010080835404028352916020019161103b565b820191906000526020600020905b81548152906001019060200180831161101e57829003601f168201915b5050505050905090565b611057611050611d0a565b83836122c5565b5050565b611063612859565b600a60008381526020019081526020016000206040518060e001604052908160008201548152602001600182015481526020016002820160009054906101000a900473ffffffffffffffffffffffffffffffffffffffff1673ffffffffffffffffffffffffffffffffffffffff1673ffffffffffffffffffffffffffffffffffffffff1681526020016003820154815260200160048201548152602001600582015481526020016006820160009054906101000a900460ff16600381111561112e5761112d612de4565b5b60038111156111405761113f612de4565b5b815250509050919050565b61115c611156611d0a565b83611dcb565b61119b576040517f08c379a00000000000000000000000000000000000000000000000000000000081526004016111929061336e565b60405180910390fd5b6111a784848484612432565b50505050565b6000600a60008381526020019081526020016000209050600073ffffffffffffffffffffffffffffffffffffffff168160020160009054906101000a900473ffffffffffffffffffffffffffffffffffffffff1673ffffffffffffffffffffffffffffffffffffffff161415611258576040517f08c379a000000000000000000000000000000000000000000000000000000000815260040161124f906137d3565b60405180910390fd5b6002600381111561126c5761126b612de4565b5b8160060160009054906101000a900460ff1660038111156112905761128f612de4565b5b146112d0576040517f08c379a00000000000000000000000000000000000000000000000000000000081526004016112c79061383f565b60405180910390fd5b6000600b60009054906101000a900473ffffffffffffffffffffffffffffffffffffffff1673ffffffffffffffffffffffffffffffffffffffff1663a5a21a2e846040518263ffffffff1660e01b815260040161132d9190612b82565b602060405180830381600087803b15801561134757600080fd5b505af115801561135b573d6000803e3d6000fd5b505050506040513d601f19601f8201168201806040525081019061137f9190613874565b905080156113f457600061139284610daf565b90508260050154600960008373ffffffffffffffffffffffffffffffffffffffff1673ffffffffffffffffffffffffffffffffffffffff16815260200190815260200160002060008282546113e791906135c7565b9250508190555050611505565b60008260020160009054906101000a900473ffffffffffffffffffffffffffffffffffffffff1673ffffffffffffffffffffffffffffffffffffffff16636352211e84600301546040518263ffffffff1660e01b81526004016114579190612b82565b60206040518083038186803b15801561146f57600080fd5b505afa158015611483573d6000803e3d6000fd5b505050506040513d601f19601f820116820180604052508101906114a791906138b6565b90508260050154600960008373ffffffffffffffffffffffffffffffffffffffff1673ffffffffffffffffffffffffffffffffffffffff16815260200190815260200160002060008282546114fc91906135c7565b92505081905550505b7faa76612075dcf5624c76b21b3b0f6babbeee4e6b6197fb4fb4a2a5654724812a83826040516115369291906138e3565b60405180910390a160038260060160006101000a81548160ff0219169083600381111561156657611565612de4565b5b0217905550505050565b6000600a60008381526020019081526020016000209050600073ffffffffffffffffffffffffffffffffffffffff168160020160009054906101000a900473ffffffffffffffffffffffffffffffffffffffff1673ffffffffffffffffffffffffffffffffffffffff16141561161b576040517f08c379a0000000000000000000000000000000000000000000000000000000008152600401611612906137d3565b60405180910390fd5b6001600381111561162f5761162e612de4565b5b8160060160009054906101000a900460ff16600381111561165357611652612de4565b5b14611693576040517f08c379a000000000000000000000000000000000000000000000000000000000815260040161168a90613958565b60405180910390fd5b806001015442116116d9576040517f08c379a00000000000000000000000000000000000000000000000000000000081526004016116d0906139c4565b60405180910390fd5b60028160060160006101000a81548160ff0219169083600381111561170157611700612de4565b5b02179055506000600860008360020160009054906101000a900473ffffffffffffffffffffffffffffffffffffffff1673ffffffffffffffffffffffffffffffffffffffff1673ffffffffffffffffffffffffffffffffffffffff1681526020019081526020016000206000836003015481526020019081526020016000208190555060008160020160009054906101000a900473ffffffffffffffffffffffffffffffffffffffff1673ffffffffffffffffffffffffffffffffffffffff16636352211e83600301546040518263ffffffff1660e01b81526004016117e79190612b82565b60206040518083038186803b1580156117ff57600080fd5b505afa158015611813573d6000803e3d6000fd5b505050506040513d601f19601f8201168201806040525081019061183791906138b6565b90508160040154600960008373ffffffffffffffffffffffffffffffffffffffff1673ffffffffffffffffffffffffffffffffffffffff168152602001908152602001600020600082825461188c91906135c7565b92505081905550600b60009054906101000a900473ffffffffffffffffffffffffffffffffffffffff1673ffffffffffffffffffffffffffffffffffffffff1663dd9db427846040518263ffffffff1660e01b81526004016118ee9190612b82565b600060405180830381600087803b15801561190857600080fd5b505af115801561191c573d6000803e3d6000fd5b50505050505050565b606061193082611cbf565b600061193a61248e565b9050600081511161195a5760405180602001604052806000815250611985565b80611964846124a5565b604051602001611975929190613a20565b6040516020818303038152906040525b915050919050565b3373ffffffffffffffffffffffffffffffffffffffff168573ffffffffffffffffffffffffffffffffffffffff16636352211e866040518263ffffffff1660e01b81526004016119dd9190612b82565b60206040518083038186803b1580156119f557600080fd5b505afa158015611a09573d6000803e3d6000fd5b505050506040513d601f19601f82011682018060405250810190611a2d91906138b6565b73ffffffffffffffffffffffffffffffffffffffff1614611a83576040517f08c379a0000000000000000000000000000000000000000000000000000000008152600401611a7a90613a90565b60405180910390fd5b6000600860008773ffffffffffffffffffffffffffffffffffffffff1673ffffffffffffffffffffffffffffffffffffffff16815260200190815260200160002060008681526020019081526020016000205414611b16576040517f08c379a0000000000000000000000000000000000000000000000000000000008152600401611b0d90613afc565b60405180910390fd5b6040518060600160405280841515815260200183815260200182815250600760008773ffffffffffffffffffffffffffffffffffffffff1673ffffffffffffffffffffffffffffffffffffffff168152602001908152602001600020600086815260200190815260200160002060008201518160000160006101000a81548160ff02191690831515021790555060208201518160010155604082015181600201559050505050505050565b6000600560008473ffffffffffffffffffffffffffffffffffffffff1673ffffffffffffffffffffffffffffffffffffffff16815260200190815260200160002060008373ffffffffffffffffffffffffffffffffffffffff1673ffffffffffffffffffffffffffffffffffffffff16815260200190815260200160002060009054906101000a900460ff16905092915050565b60007f01ffc9a7000000000000000000000000000000000000000000000000000000007bffffffffffffffffffffffffffffffffffffffffffffffffffffffff1916827bffffffffffffffffffffffffffffffffffffffffffffffffffffffff1916149050919050565b611cc881612606565b611d07576040517f08c379a0000000000000000000000000000000000000000000000000000000008152600401611cfe906136d5565b60405180910390fd5b50565b600033905090565b816004600083815260200190815260200160002060006101000a81548173ffffffffffffffffffffffffffffffffffffffff021916908373ffffffffffffffffffffffffffffffffffffffff160217905550808273ffffffffffffffffffffffffffffffffffffffff16611d8583610daf565b73ffffffffffffffffffffffffffffffffffffffff167f8c5be1e5ebec7d5bd14f71427d1e84f3dd0314c0f7b2291e5b200ac8c7c3b92560405160405180910390a45050565b600080611dd783610daf565b90508073ffffffffffffffffffffffffffffffffffffffff168473ffffffffffffffffffffffffffffffffffffffff161480611e195750611e188185611bc1565b5b80611e5757508373ffffffffffffffffffffffffffffffffffffffff16611e3f8461069b565b73ffffffffffffffffffffffffffffffffffffffff16145b91505092915050565b8273ffffffffffffffffffffffffffffffffffffffff16611e8082610daf565b73ffffffffffffffffffffffffffffffffffffffff1614611ed6576040517f08c379a0000000000000000000000000000000000000000000000000000000008152600401611ecd90613b8e565b60405180910390fd5b600073ffffffffffffffffffffffffffffffffffffffff168273ffffffffffffffffffffffffffffffffffffffff161415611f46576040517f08c379a0000000000000000000000000000000000000000000000000000000008152600401611f3d90613c20565b60405180910390fd5b611f51838383612672565b611f5c600082611d12565b6001600360008573ffffffffffffffffffffffffffffffffffffffff1673ffffffffffffffffffffffffffffffffffffffff1681526020019081526020016000206000828254611fac9190613c40565b925050819055506001600360008473ffffffffffffffffffffffffffffffffffffffff1673ffffffffffffffffffffffffffffffffffffffff168152602001908152602001600020600082825461200391906135c7565b92505081905550816002600083815260200190815260200160002060006101000a81548173ffffffffffffffffffffffffffffffffffffffff021916908373ffffffffffffffffffffffffffffffffffffffff160217905550808273ffffffffffffffffffffffffffffffffffffffff168473ffffffffffffffffffffffffffffffffffffffff167fddf252ad1be2c89b69c2b068fc378daa952ba7f163c4a11628f55a4df523b3ef60405160405180910390a46120c2838383612677565b505050565b6001816000016000828254019250508190555050565b600081600001549050919050565b600073ffffffffffffffffffffffffffffffffffffffff168273ffffffffffffffffffffffffffffffffffffffff16141561215b576040517f08c379a000000000000000000000000000000000000000000000000000000000815260040161215290613cc0565b60405180910390fd5b61216481612606565b156121a4576040517f08c379a000000000000000000000000000000000000000000000000000000000815260040161219b90613d2c565b60405180910390fd5b6121b060008383612672565b6001600360008473ffffffffffffffffffffffffffffffffffffffff1673ffffffffffffffffffffffffffffffffffffffff168152602001908152602001600020600082825461220091906135c7565b92505081905550816002600083815260200190815260200160002060006101000a81548173ffffffffffffffffffffffffffffffffffffffff021916908373ffffffffffffffffffffffffffffffffffffffff160217905550808273ffffffffffffffffffffffffffffffffffffffff16600073ffffffffffffffffffffffffffffffffffffffff167fddf252ad1be2c89b69c2b068fc378daa952ba7f163c4a11628f55a4df523b3ef60405160405180910390a46122c160008383612677565b5050565b8173ffffffffffffffffffffffffffffffffffffffff168373ffffffffffffffffffffffffffffffffffffffff161415612334576040517f08c379a000000000000000000000000000000000000000000000000000000000815260040161232b90613d98565b60405180910390fd5b80600560008573ffffffffffffffffffffffffffffffffffffffff1673ffffffffffffffffffffffffffffffffffffffff16815260200190815260200160002060008473ffffffffffffffffffffffffffffffffffffffff1673ffffffffffffffffffffffffffffffffffffffff16815260200190815260200160002060006101000a81548160ff0219169083151502179055508173ffffffffffffffffffffffffffffffffffffffff168373ffffffffffffffffffffffffffffffffffffffff167f17307eab39ab6107e8899845ad3d59bd9653f200f220920489ca2b5937696c31836040516124259190612972565b60405180910390a3505050565b61243d848484611e60565b6124498484848461267c565b612488576040517f08c379a000000000000000000000000000000000000000000000000000000000815260040161247f90613e2a565b60405180910390fd5b50505050565b606060405180602001604052806000815250905090565b606060008214156124ed576040518060400160405280600181526020017f30000000000000000000000000000000000000000000000000000000000000008152509050612601565b600082905060005b6000821461251f57808061250890613e4a565b915050600a826125189190613ec2565b91506124f5565b60008167ffffffffffffffff81111561253b5761253a612f0e565b5b6040519080825280601f01601f19166020018201604052801561256d5781602001600182028036833780820191505090505b5090505b600085146125fa576001826125869190613c40565b9150600a856125959190613ef3565b60306125a191906135c7565b60f81b8183815181106125b7576125b6613f24565b5b60200101907effffffffffffffffffffffffffffffffffffffffffffffffffffffffffffff1916908160001a905350600a856125f39190613ec2565b9450612571565b8093505050505b919050565b60008073ffffffffffffffffffffffffffffffffffffffff166002600084815260200190815260200160002060009054906101000a900473ffffffffffffffffffffffffffffffffffffffff1673ffffffffffffffffffffffffffffffffffffffff1614159050919050565b505050565b505050565b600061269d8473ffffffffffffffffffffffffffffffffffffffff16612813565b15612806578373ffffffffffffffffffffffffffffffffffffffff1663150b7a026126c6611d0a565b8786866040518563ffffffff1660e01b81526004016126e89493929190613fa8565b602060405180830381600087803b15801561270257600080fd5b505af192505050801561273357506040513d601f19601f820116820180604052508101906127309190614009565b60015b6127b6573d8060008114612763576040519150601f19603f3d011682016040523d82523d6000602084013e612768565b606091505b506000815114156127ae576040517f08c379a00000000000000000000000000000000000000000000000000000000081526004016127a590613e2a565b60405180910390fd5b805181602001fd5b63150b7a0260e01b7bffffffffffffffffffffffffffffffffffffffffffffffffffffffff1916817bffffffffffffffffffffffffffffffffffffffffffffffffffffffff19161491505061280b565b600190505b949350505050565b6000808273ffffffffffffffffffffffffffffffffffffffff163b119050919050565b604051806060016040528060001515815260200160008152602001600081525090565b6040518060e001604052806000815260200160008152602001600073ffffffffffffffffffffffffffffffffffffffff168152602001600081526020016000815260200160008152602001600060038111156128b8576128b7612de4565b5b81525090565b6000604051905090565b600080fd5b600080fd5b60007fffffffff0000000000000000000000000000000000000000000000000000000082169050919050565b612907816128d2565b811461291257600080fd5b50565b600081359050612924816128fe565b92915050565b6000602082840312156129405761293f6128c8565b5b600061294e84828501612915565b91505092915050565b60008115159050919050565b61296c81612957565b82525050565b60006020820190506129876000830184612963565b92915050565b600081519050919050565b600082825260208201905092915050565b60005b838110156129c75780820151818401526020810190506129ac565b838111156129d6576000848401525b50505050565b6000601f19601f8301169050919050565b60006129f88261298d565b612a028185612998565b9350612a128185602086016129a9565b612a1b816129dc565b840191505092915050565b60006020820190508181036000830152612a4081846129ed565b905092915050565b6000819050919050565b612a5b81612a48565b8114612a6657600080fd5b50565b600081359050612a7881612a52565b92915050565b600060208284031215612a9457612a936128c8565b5b6000612aa284828501612a69565b91505092915050565b600073ffffffffffffffffffffffffffffffffffffffff82169050919050565b6000612ad682612aab565b9050919050565b612ae681612acb565b82525050565b6000602082019050612b016000830184612add565b92915050565b612b1081612acb565b8114612b1b57600080fd5b50565b600081359050612b2d81612b07565b92915050565b60008060408385031215612b4a57612b496128c8565b5b6000612b5885828601612b1e565b9250506020612b6985828601612a69565b9150509250929050565b612b7c81612a48565b82525050565b6000602082019050612b976000830184612b73565b92915050565b600080600060608486031215612bb657612bb56128c8565b5b6000612bc486828701612b1e565b9350506020612bd586828701612b1e565b9250506040612be686828701612a69565b9150509250925092565b6000612bfb82612acb565b9050919050565b612c0b81612bf0565b8114612c1657600080fd5b50565b600081359050612c2881612c02565b92915050565b600080600060608486031215612c4757612c466128c8565b5b6000612c5586828701612c19565b9350506020612c6686828701612a69565b9250506040612c7786828701612a69565b9150509250925092565b60008060408385031215612c9857612c976128c8565b5b6000612ca685828601612c19565b9250506020612cb785828601612a69565b9150509250929050565b612cca81612957565b82525050565b612cd981612a48565b82525050565b606082016000820151612cf56000850182612cc1565b506020820151612d086020850182612cd0565b506040820151612d1b6040850182612cd0565b50505050565b6000606082019050612d366000830184612cdf565b92915050565b600060208284031215612d5257612d516128c8565b5b6000612d6084828501612b1e565b91505092915050565b612d7281612957565b8114612d7d57600080fd5b50565b600081359050612d8f81612d69565b92915050565b60008060408385031215612dac57612dab6128c8565b5b6000612dba85828601612b1e565b9250506020612dcb85828601612d80565b9150509250929050565b612dde81612acb565b82525050565b7f4e487b7100000000000000000000000000000000000000000000000000000000600052602160045260246000fd5b60048110612e2457612e23612de4565b5b50565b6000819050612e3582612e13565b919050565b6000612e4582612e27565b9050919050565b612e5581612e3a565b82525050565b60e082016000820151612e716000850182612cd0565b506020820151612e846020850182612cd0565b506040820151612e976040850182612dd5565b506060820151612eaa6060850182612cd0565b506080820151612ebd6080850182612cd0565b5060a0820151612ed060a0850182612cd0565b5060c0820151612ee360c0850182612e4c565b50505050565b600060e082019050612efe6000830184612e5b565b92915050565b600080fd5b600080fd5b7f4e487b7100000000000000000000000000000000000000000000000000000000600052604160045260246000fd5b612f46826129dc565b810181811067ffffffffffffffff82111715612f6557612f64612f0e565b5b80604052505050565b6000612f786128be565b9050612f848282612f3d565b919050565b600067ffffffffffffffff821115612fa457612fa3612f0e565b5b612fad826129dc565b9050602081019050919050565b82818337600083830152505050565b6000612fdc612fd784612f89565b612f6e565b905082815260208101848484011115612ff857612ff7612f09565b5b613003848285612fba565b509392505050565b600082601f8301126130205761301f612f04565b5b8135613030848260208601612fc9565b91505092915050565b60008060008060808587031215613053576130526128c8565b5b600061306187828801612b1e565b945050602061307287828801612b1e565b935050604061308387828801612a69565b925050606085013567ffffffffffffffff8111156130a4576130a36128cd565b5b6130b08782880161300b565b91505092959194509250565b600080600080600060a086880312156130d8576130d76128c8565b5b60006130e688828901612c19565b95505060206130f788828901612a69565b945050604061310888828901612d80565b935050606061311988828901612a69565b925050608061312a88828901612a69565b9150509295509295909350565b6000806040838503121561314e5761314d6128c8565b5b600061315c85828601612b1e565b925050602061316d85828601612b1e565b9150509250929050565b7f4e487b7100000000000000000000000000000000000000000000000000000000600052602260045260246000fd5b600060028204905060018216806131be57607f821691505b602082108114156131d2576131d1613177565b5b50919050565b7f4552433732313a20617070726f76616c20746f2063757272656e74206f776e6560008201527f7200000000000000000000000000000000000000000000000000000000000000602082015250565b6000613234602183612998565b915061323f826131d8565b604082019050919050565b6000602082019050818103600083015261326381613227565b9050919050565b7f4552433732313a20617070726f76652063616c6c6572206973206e6f7420746f60008201527f6b656e206f776e6572206e6f7220617070726f76656420666f7220616c6c0000602082015250565b60006132c6603e83612998565b91506132d18261326a565b604082019050919050565b600060208201905081810360008301526132f5816132b9565b9050919050565b7f4552433732313a2063616c6c6572206973206e6f7420746f6b656e206f776e6560008201527f72206e6f7220617070726f766564000000000000000000000000000000000000602082015250565b6000613358602e83612998565b9150613363826132fc565b604082019050919050565b600060208201905081810360008301526133878161334b565b9050919050565b7f656d7074792062616c616e636500000000000000000000000000000000000000600082015250565b60006133c4600d83612998565b91506133cf8261338e565b602082019050919050565b600060208201905081810360008301526133f3816133b7565b9050919050565b7f6661696c656420746f2077697468647261770000000000000000000000000000600082015250565b6000613430601283612998565b915061343b826133fa565b602082019050919050565b6000602082019050818103600083015261345f81613423565b9050919050565b7f63616e742072656e74207468697320746f6b656e000000000000000000000000600082015250565b600061349c601483612998565b91506134a782613466565b602082019050919050565b600060208201905081810360008301526134cb8161348f565b9050919050565b7f616c72656164792072656e746564000000000000000000000000000000000000600082015250565b6000613508600e83612998565b9150613513826134d2565b602082019050919050565b60006020820190508181036000830152613537816134fb565b9050919050565b7f4e487b7100000000000000000000000000000000000000000000000000000000600052601160045260246000fd5b600061357882612a48565b915061358383612a48565b9250817fffffffffffffffffffffffffffffffffffffffffffffffffffffffffffffffff04831182151516156135bc576135bb61353e565b5b828202905092915050565b60006135d282612a48565b91506135dd83612a48565b9250827fffffffffffffffffffffffffffffffffffffffffffffffffffffffffffffffff038211156136125761361161353e565b5b828201905092915050565b7f6d73672e76616c756520746f6f206c6f77000000000000000000000000000000600082015250565b6000613653601183612998565b915061365e8261361d565b602082019050919050565b6000602082019050818103600083015261368281613646565b9050919050565b7f4552433732313a20696e76616c696420746f6b656e2049440000000000000000600082015250565b60006136bf601883612998565b91506136ca82613689565b602082019050919050565b600060208201905081810360008301526136ee816136b2565b9050919050565b7f4552433732313a2061646472657373207a65726f206973206e6f74206120766160008201527f6c6964206f776e65720000000000000000000000000000000000000000000000602082015250565b6000613751602983612998565b915061375c826136f5565b604082019050919050565b6000602082019050818103600083015261378081613744565b9050919050565b7f746f6b656e20646f6573206e6f74206578697374000000000000000000000000600082015250565b60006137bd601483612998565b91506137c882613787565b602082019050919050565b600060208201905081810360008301526137ec816137b0565b9050919050565b7f6e6f7420696e2066696e69736865642073746174757300000000000000000000600082015250565b6000613829601683612998565b9150613834826137f3565b602082019050919050565b600060208201905081810360008301526138588161381c565b9050919050565b60008151905061386e81612d69565b92915050565b60006020828403121561388a576138896128c8565b5b60006138988482850161385f565b91505092915050565b6000815190506138b081612b07565b92915050565b6000602082840312156138cc576138cb6128c8565b5b60006138da848285016138a1565b91505092915050565b60006040820190506138f86000830185612b73565b6139056020830184612963565b9392505050565b7f616c72656164792066696e697368656400000000000000000000000000000000600082015250565b6000613942601083612998565b915061394d8261390c565b602082019050919050565b6000602082019050818103600083015261397181613935565b9050919050565b7f72656e74206e6f742066696e6973686564207965740000000000000000000000600082015250565b60006139ae601583612998565b91506139b982613978565b602082019050919050565b600060208201905081810360008301526139dd816139a1565b9050919050565b600081905092915050565b60006139fa8261298d565b613a0481856139e4565b9350613a148185602086016129a9565b80840191505092915050565b6000613a2c82856139ef565b9150613a3882846139ef565b91508190509392505050565b7f6e6f74206f776e65720000000000000000000000000000000000000000000000600082015250565b6000613a7a600983612998565b9150613a8582613a44565b602082019050919050565b60006020820190508181036000830152613aa981613a6d565b9050919050565b7f63616e74206368616e6765207768696c652072656e7465640000000000000000600082015250565b6000613ae6601883612998565b9150613af182613ab0565b602082019050919050565b60006020820190508181036000830152613b1581613ad9565b9050919050565b7f4552433732313a207472616e736665722066726f6d20696e636f72726563742060008201527f6f776e6572000000000000000000000000000000000000000000000000000000602082015250565b6000613b78602583612998565b9150613b8382613b1c565b604082019050919050565b60006020820190508181036000830152613ba781613b6b565b9050919050565b7f4552433732313a207472616e7366657220746f20746865207a65726f2061646460008201527f7265737300000000000000000000000000000000000000000000000000000000602082015250565b6000613c0a602483612998565b9150613c1582613bae565b604082019050919050565b60006020820190508181036000830152613c3981613bfd565b9050919050565b6000613c4b82612a48565b9150613c5683612a48565b925082821015613c6957613c6861353e565b5b828203905092915050565b7f4552433732313a206d696e7420746f20746865207a65726f2061646472657373600082015250565b6000613caa602083612998565b9150613cb582613c74565b602082019050919050565b60006020820190508181036000830152613cd981613c9d565b9050919050565b7f4552433732313a20746f6b656e20616c7265616479206d696e74656400000000600082015250565b6000613d16601c83612998565b9150613d2182613ce0565b602082019050919050565b60006020820190508181036000830152613d4581613d09565b9050919050565b7f4552433732313a20617070726f766520746f2063616c6c657200000000000000600082015250565b6000613d82601983612998565b9150613d8d82613d4c565b602082019050919050565b60006020820190508181036000830152613db181613d75565b9050919050565b7f4552433732313a207472616e7366657220746f206e6f6e20455243373231526560008201527f63656976657220696d706c656d656e7465720000000000000000000000000000602082015250565b6000613e14603283612998565b9150613e1f82613db8565b604082019050919050565b60006020820190508181036000830152613e4381613e07565b9050919050565b6000613e5582612a48565b91507fffffffffffffffffffffffffffffffffffffffffffffffffffffffffffffffff821415613e8857613e8761353e565b5b600182019050919050565b7f4e487b7100000000000000000000000000000000000000000000000000000000600052601260045260246000fd5b6000613ecd82612a48565b9150613ed883612a48565b925082613ee857613ee7613e93565b5b828204905092915050565b6000613efe82612a48565b9150613f0983612a48565b925082613f1957613f18613e93565b5b828206905092915050565b7f4e487b7100000000000000000000000000000000000000000000000000000000600052603260045260246000fd5b600081519050919050565b600082825260208201905092915050565b6000613f7a82613f53565b613f848185613f5e565b9350613f948185602086016129a9565b613f9d816129dc565b840191505092915050565b6000608082019050613fbd6000830187612add565b613fca6020830186612add565b613fd76040830185612b73565b8181036060830152613fe98184613f6f565b905095945050505050565b600081519050614003816128fe565b92915050565b60006020828403121561401f5761401e6128c8565b5b600061402d84828501613ff4565b9150509291505056fea2646970667358221220a014a1c76c8263f2cca6336bdf8783b78f79ee4213adeb87cc477441ef1f9bff64736f6c63430008090033",
  "devdoc": {
    "kind": "dev",
    "methods": {
      "approve(address,uint256)": {
        "details": "See {IERC721-approve}."
      },
      "balanceOf(address)": {
        "details": "See {IERC721-balanceOf}."
      },
      "getApproved(uint256)": {
        "details": "See {IERC721-getApproved}."
      },
      "isApprovedForAll(address,address)": {
        "details": "See {IERC721-isApprovedForAll}."
      },
      "name()": {
        "details": "See {IERC721Metadata-name}."
      },
      "ownerOf(uint256)": {
        "details": "See {IERC721-ownerOf}."
      },
      "safeTransferFrom(address,address,uint256)": {
        "details": "See {IERC721-safeTransferFrom}."
      },
      "safeTransferFrom(address,address,uint256,bytes)": {
        "details": "See {IERC721-safeTransferFrom}."
      },
      "setApprovalForAll(address,bool)": {
        "details": "See {IERC721-setApprovalForAll}."
      },
      "supportsInterface(bytes4)": {
        "details": "See {IERC165-supportsInterface}."
      },
      "symbol()": {
        "details": "See {IERC721Metadata-symbol}."
      },
      "tokenURI(uint256)": {
        "details": "See {IERC721Metadata-tokenURI}."
      },
      "transferFrom(address,address,uint256)": {
        "details": "See {IERC721-transferFrom}."
      }
    },
    "version": 1
  },
  "userdoc": {
    "kind": "user",
    "methods": {},
    "version": 1
  },
  "storageLayout": {
    "storage": [
      {
        "astId": 103,
        "contract": "contracts/ERC721Rent.sol:ERC721Rent",
        "label": "_name",
        "offset": 0,
        "slot": "0",
        "type": "t_string_storage"
      },
      {
        "astId": 105,
        "contract": "contracts/ERC721Rent.sol:ERC721Rent",
        "label": "_symbol",
        "offset": 0,
        "slot": "1",
        "type": "t_string_storage"
      },
      {
        "astId": 109,
        "contract": "contracts/ERC721Rent.sol:ERC721Rent",
        "label": "_owners",
        "offset": 0,
        "slot": "2",
        "type": "t_mapping(t_uint256,t_address)"
      },
      {
        "astId": 113,
        "contract": "contracts/ERC721Rent.sol:ERC721Rent",
        "label": "_balances",
        "offset": 0,
        "slot": "3",
        "type": "t_mapping(t_address,t_uint256)"
      },
      {
        "astId": 117,
        "contract": "contracts/ERC721Rent.sol:ERC721Rent",
        "label": "_tokenApprovals",
        "offset": 0,
        "slot": "4",
        "type": "t_mapping(t_uint256,t_address)"
      },
      {
        "astId": 123,
        "contract": "contracts/ERC721Rent.sol:ERC721Rent",
        "label": "_operatorApprovals",
        "offset": 0,
        "slot": "5",
        "type": "t_mapping(t_address,t_mapping(t_address,t_bool))"
      },
      {
        "astId": 2340,
        "contract": "contracts/ERC721Rent.sol:ERC721Rent",
        "label": "_tokenIds",
        "offset": 0,
        "slot": "6",
        "type": "t_struct(Counter)1428_storage"
      },
      {
        "astId": 2347,
        "contract": "contracts/ERC721Rent.sol:ERC721Rent",
        "label": "_rentConditions",
        "offset": 0,
        "slot": "7",
        "type": "t_mapping(t_address,t_mapping(t_uint256,t_struct(RentConditions)2834_storage))"
      },
      {
        "astId": 2353,
        "contract": "contracts/ERC721Rent.sol:ERC721Rent",
        "label": "_currentRentingToken",
        "offset": 0,
        "slot": "8",
        "type": "t_mapping(t_address,t_mapping(t_uint256,t_uint256))"
      },
      {
        "astId": 2357,
        "contract": "contracts/ERC721Rent.sol:ERC721Rent",
        "label": "_balances",
        "offset": 0,
        "slot": "9",
        "type": "t_mapping(t_address,t_uint256)"
      },
      {
        "astId": 2362,
        "contract": "contracts/ERC721Rent.sol:ERC721Rent",
        "label": "_tokenData",
        "offset": 0,
        "slot": "10",
        "type": "t_mapping(t_uint256,t_struct(Rent)2855_storage)"
      },
      {
        "astId": 2365,
        "contract": "contracts/ERC721Rent.sol:ERC721Rent",
        "label": "_resolver",
        "offset": 0,
        "slot": "11",
        "type": "t_contract(IDisputeResolver)2932"
      }
    ],
    "types": {
      "t_address": {
        "encoding": "inplace",
        "label": "address",
        "numberOfBytes": "20"
      },
      "t_bool": {
        "encoding": "inplace",
        "label": "bool",
        "numberOfBytes": "1"
      },
      "t_contract(IDisputeResolver)2932": {
        "encoding": "inplace",
        "label": "contract IDisputeResolver",
        "numberOfBytes": "20"
      },
      "t_enum(RentStatus)2839": {
        "encoding": "inplace",
        "label": "enum IERC721Rent.RentStatus",
        "numberOfBytes": "1"
      },
      "t_mapping(t_address,t_bool)": {
        "encoding": "mapping",
        "key": "t_address",
        "label": "mapping(address => bool)",
        "numberOfBytes": "32",
        "value": "t_bool"
      },
      "t_mapping(t_address,t_mapping(t_address,t_bool))": {
        "encoding": "mapping",
        "key": "t_address",
        "label": "mapping(address => mapping(address => bool))",
        "numberOfBytes": "32",
        "value": "t_mapping(t_address,t_bool)"
      },
      "t_mapping(t_address,t_mapping(t_uint256,t_struct(RentConditions)2834_storage))": {
        "encoding": "mapping",
        "key": "t_address",
        "label": "mapping(address => mapping(uint256 => struct IERC721Rent.RentConditions))",
        "numberOfBytes": "32",
        "value": "t_mapping(t_uint256,t_struct(RentConditions)2834_storage)"
      },
      "t_mapping(t_address,t_mapping(t_uint256,t_uint256))": {
        "encoding": "mapping",
        "key": "t_address",
        "label": "mapping(address => mapping(uint256 => uint256))",
        "numberOfBytes": "32",
        "value": "t_mapping(t_uint256,t_uint256)"
      },
      "t_mapping(t_address,t_uint256)": {
        "encoding": "mapping",
        "key": "t_address",
        "label": "mapping(address => uint256)",
        "numberOfBytes": "32",
        "value": "t_uint256"
      },
      "t_mapping(t_uint256,t_address)": {
        "encoding": "mapping",
        "key": "t_uint256",
        "label": "mapping(uint256 => address)",
        "numberOfBytes": "32",
        "value": "t_address"
      },
      "t_mapping(t_uint256,t_struct(Rent)2855_storage)": {
        "encoding": "mapping",
        "key": "t_uint256",
        "label": "mapping(uint256 => struct IERC721Rent.Rent)",
        "numberOfBytes": "32",
        "value": "t_struct(Rent)2855_storage"
      },
      "t_mapping(t_uint256,t_struct(RentConditions)2834_storage)": {
        "encoding": "mapping",
        "key": "t_uint256",
        "label": "mapping(uint256 => struct IERC721Rent.RentConditions)",
        "numberOfBytes": "32",
        "value": "t_struct(RentConditions)2834_storage"
      },
      "t_mapping(t_uint256,t_uint256)": {
        "encoding": "mapping",
        "key": "t_uint256",
        "label": "mapping(uint256 => uint256)",
        "numberOfBytes": "32",
        "value": "t_uint256"
      },
      "t_string_storage": {
        "encoding": "bytes",
        "label": "string",
        "numberOfBytes": "32"
      },
      "t_struct(Counter)1428_storage": {
        "encoding": "inplace",
        "label": "struct Counters.Counter",
        "members": [
          {
            "astId": 1427,
            "contract": "contracts/ERC721Rent.sol:ERC721Rent",
            "label": "_value",
            "offset": 0,
            "slot": "0",
            "type": "t_uint256"
          }
        ],
        "numberOfBytes": "32"
      },
      "t_struct(Rent)2855_storage": {
        "encoding": "inplace",
        "label": "struct IERC721Rent.Rent",
        "members": [
          {
            "astId": 2841,
            "contract": "contracts/ERC721Rent.sol:ERC721Rent",
            "label": "startTs",
            "offset": 0,
            "slot": "0",
            "type": "t_uint256"
          },
          {
            "astId": 2843,
            "contract": "contracts/ERC721Rent.sol:ERC721Rent",
            "label": "endTs",
            "offset": 0,
            "slot": "1",
            "type": "t_uint256"
          },
          {
            "astId": 2845,
            "contract": "contracts/ERC721Rent.sol:ERC721Rent",
            "label": "sourceERC721Contract",
            "offset": 0,
            "slot": "2",
            "type": "t_address"
          },
          {
            "astId": 2847,
            "contract": "contracts/ERC721Rent.sol:ERC721Rent",
            "label": "sourceTokenId",
            "offset": 0,
            "slot": "3",
            "type": "t_uint256"
          },
          {
            "astId": 2849,
            "contract": "contracts/ERC721Rent.sol:ERC721Rent",
            "label": "price",
            "offset": 0,
            "slot": "4",
            "type": "t_uint256"
          },
          {
            "astId": 2851,
            "contract": "contracts/ERC721Rent.sol:ERC721Rent",
            "label": "collateral",
            "offset": 0,
            "slot": "5",
            "type": "t_uint256"
          },
          {
            "astId": 2854,
            "contract": "contracts/ERC721Rent.sol:ERC721Rent",
            "label": "status",
            "offset": 0,
            "slot": "6",
            "type": "t_enum(RentStatus)2839"
          }
        ],
        "numberOfBytes": "224"
      },
      "t_struct(RentConditions)2834_storage": {
        "encoding": "inplace",
        "label": "struct IERC721Rent.RentConditions",
        "members": [
          {
            "astId": 2829,
            "contract": "contracts/ERC721Rent.sol:ERC721Rent",
            "label": "allowed",
            "offset": 0,
            "slot": "0",
            "type": "t_bool"
          },
          {
            "astId": 2831,
            "contract": "contracts/ERC721Rent.sol:ERC721Rent",
            "label": "pricePerSecond",
            "offset": 0,
            "slot": "1",
            "type": "t_uint256"
          },
          {
            "astId": 2833,
            "contract": "contracts/ERC721Rent.sol:ERC721Rent",
            "label": "collateralPerSecond",
            "offset": 0,
            "slot": "2",
            "type": "t_uint256"
          }
        ],
        "numberOfBytes": "96"
      },
      "t_uint256": {
        "encoding": "inplace",
        "label": "uint256",
        "numberOfBytes": "32"
      }
    }
  }
}