{
  "address": "0x3DA7085a335Af0DEa59baB29930344fBb07a8595",
  "abi": [
    {
      "inputs": [],
      "stateMutability": "nonpayable",
      "type": "constructor"
    },
    {
      "anonymous": false,
      "inputs": [
        {
          "indexed": true,
          "internalType": "address",
          "name": "owner",
          "type": "address"
        },
        {
          "indexed": true,
          "internalType": "address",
          "name": "approved",
          "type": "address"
        },
        {
          "indexed": true,
          "internalType": "uint256",
          "name": "tokenId",
          "type": "uint256"
        }
      ],
      "name": "Approval",
      "type": "event"
    },
    {
      "anonymous": false,
      "inputs": [
        {
          "indexed": true,
          "internalType": "address",
          "name": "owner",
          "type": "address"
        },
        {
          "indexed": true,
          "internalType": "address",
          "name": "operator",
          "type": "address"
        },
        {
          "indexed": false,
          "internalType": "bool",
          "name": "approved",
          "type": "bool"
        }
      ],
      "name": "ApprovalForAll",
      "type": "event"
    },
    {
      "anonymous": false,
      "inputs": [
        {
          "indexed": true,
          "internalType": "address",
          "name": "from",
          "type": "address"
        },
        {
          "indexed": true,
          "internalType": "address",
          "name": "to",
          "type": "address"
        },
        {
          "indexed": true,
          "internalType": "uint256",
          "name": "tokenId",
          "type": "uint256"
        }
      ],
      "name": "Transfer",
      "type": "event"
    },
    {
      "inputs": [
        {
          "internalType": "address",
          "name": "to",
          "type": "address"
        },
        {
          "internalType": "uint256",
          "name": "tokenId",
          "type": "uint256"
        }
      ],
      "name": "approve",
      "outputs": [],
      "stateMutability": "nonpayable",
      "type": "function"
    },
    {
      "inputs": [
        {
          "internalType": "address",
          "name": "owner",
          "type": "address"
        }
      ],
      "name": "balanceOf",
      "outputs": [
        {
          "internalType": "uint256",
          "name": "",
          "type": "uint256"
        }
      ],
      "stateMutability": "view",
      "type": "function"
    },
    {
      "inputs": [
        {
          "internalType": "uint256",
          "name": "tokenId",
          "type": "uint256"
        }
      ],
      "name": "getApproved",
      "outputs": [
        {
          "internalType": "address",
          "name": "",
          "type": "address"
        }
      ],
      "stateMutability": "view",
      "type": "function"
    },
    {
      "inputs": [
        {
          "internalType": "address",
          "name": "owner",
          "type": "address"
        },
        {
          "internalType": "address",
          "name": "operator",
          "type": "address"
        }
      ],
      "name": "isApprovedForAll",
      "outputs": [
        {
          "internalType": "bool",
          "name": "",
          "type": "bool"
        }
      ],
      "stateMutability": "view",
      "type": "function"
    },
    {
      "inputs": [],
      "name": "listTokens",
      "outputs": [
        {
          "components": [
            {
              "internalType": "uint256",
              "name": "id",
              "type": "uint256"
            },
            {
              "internalType": "string",
              "name": "uri",
              "type": "string"
            }
          ],
          "internalType": "struct TestERC721.TokenData[]",
          "name": "",
          "type": "tuple[]"
        }
      ],
      "stateMutability": "view",
      "type": "function"
    },
    {
      "inputs": [
        {
          "internalType": "address",
          "name": "to",
          "type": "address"
        }
      ],
      "name": "mint",
      "outputs": [
        {
          "internalType": "uint256",
          "name": "",
          "type": "uint256"
        }
      ],
      "stateMutability": "nonpayable",
      "type": "function"
    },
    {
      "inputs": [
        {
          "internalType": "address",
          "name": "to",
          "type": "address"
        },
        {
          "internalType": "string",
          "name": "uri",
          "type": "string"
        }
      ],
      "name": "mintWithURI",
      "outputs": [
        {
          "internalType": "uint256",
          "name": "",
          "type": "uint256"
        }
      ],
      "stateMutability": "nonpayable",
      "type": "function"
    },
    {
      "inputs": [],
      "name": "name",
      "outputs": [
        {
          "internalType": "string",
          "name": "",
          "type": "string"
        }
      ],
      "stateMutability": "view",
      "type": "function"
    },
    {
      "inputs": [
        {
          "internalType": "uint256",
          "name": "tokenId",
          "type": "uint256"
        }
      ],
      "name": "ownerOf",
      "outputs": [
        {
          "internalType": "address",
          "name": "",
          "type": "address"
        }
      ],
      "stateMutability": "view",
      "type": "function"
    },
    {
      "inputs": [
        {
          "internalType": "address",
          "name": "from",
          "type": "address"
        },
        {
          "internalType": "address",
          "name": "to",
          "type": "address"
        },
        {
          "internalType": "uint256",
          "name": "tokenId",
          "type": "uint256"
        }
      ],
      "name": "safeTransferFrom",
      "outputs": [],
      "stateMutability": "nonpayable",
      "type": "function"
    },
    {
      "inputs": [
        {
          "internalType": "address",
          "name": "from",
          "type": "address"
        },
        {
          "internalType": "address",
          "name": "to",
          "type": "address"
        },
        {
          "internalType": "uint256",
          "name": "tokenId",
          "type": "uint256"
        },
        {
          "internalType": "bytes",
          "name": "data",
          "type": "bytes"
        }
      ],
      "name": "safeTransferFrom",
      "outputs": [],
      "stateMutability": "nonpayable",
      "type": "function"
    },
    {
      "inputs": [
        {
          "internalType": "address",
          "name": "operator",
          "type": "address"
        },
        {
          "internalType": "bool",
          "name": "approved",
          "type": "bool"
        }
      ],
      "name": "setApprovalForAll",
      "outputs": [],
      "stateMutability": "nonpayable",
      "type": "function"
    },
    {
      "inputs": [
        {
          "internalType": "bytes4",
          "name": "interfaceId",
          "type": "bytes4"
        }
      ],
      "name": "supportsInterface",
      "outputs": [
        {
          "internalType": "bool",
          "name": "",
          "type": "bool"
        }
      ],
      "stateMutability": "view",
      "type": "function"
    },
    {
      "inputs": [],
      "name": "symbol",
      "outputs": [
        {
          "internalType": "string",
          "name": "",
          "type": "string"
        }
      ],
      "stateMutability": "view",
      "type": "function"
    },
    {
      "inputs": [
        {
          "internalType": "uint256",
          "name": "tokenId",
          "type": "uint256"
        }
      ],
      "name": "tokenURI",
      "outputs": [
        {
          "internalType": "string",
          "name": "",
          "type": "string"
        }
      ],
      "stateMutability": "view",
      "type": "function"
    },
    {
      "inputs": [
        {
          "internalType": "address",
          "name": "from",
          "type": "address"
        },
        {
          "internalType": "address",
          "name": "to",
          "type": "address"
        },
        {
          "internalType": "uint256",
          "name": "tokenId",
          "type": "uint256"
        }
      ],
      "name": "transferFrom",
      "outputs": [],
      "stateMutability": "nonpayable",
      "type": "function"
    }
  ],
  "transactionHash": "0x38b4da02e8dc351d951cd10cabb571b8978a8df82702244320f7a5423fa7a238",
  "args": [],
  "numDeployments": 4,
  "solcInputHash": "9463e9aa61665238f703e2a2eeacded6",
  "bytecode": "0x60806040523480156200001157600080fd5b506040518060400160405280600481526020017f54657374000000000000000000000000000000000000000000000000000000008152506040518060400160405280600381526020017f5453540000000000000000000000000000000000000000000000000000000000815250816000908051906020019062000096929190620000b8565b508060019080519060200190620000af929190620000b8565b505050620001cd565b828054620000c69062000197565b90600052602060002090601f016020900481019282620000ea576000855562000136565b82601f106200010557805160ff191683800117855562000136565b8280016001018555821562000136579182015b828111156200013557825182559160200191906001019062000118565b5b50905062000145919062000149565b5090565b5b80821115620001645760008160009055506001016200014a565b5090565b7f4e487b7100000000000000000000000000000000000000000000000000000000600052602260045260246000fd5b60006002820490506001821680620001b057607f821691505b60208210811415620001c757620001c662000168565b5b50919050565b612b9e80620001dd6000396000f3fe608060405234801561001057600080fd5b50600436106101005760003560e01c80636a62784211610097578063a22cb46511610066578063a22cb465146102d3578063b88d4fde146102ef578063c87b56dd1461030b578063e985e9c51461033b57610100565b80636a6278421461023757806370a08231146102675780637488ff761461029757806395d89b41146102b557610100565b80630e980602116100d35780630e9806021461019f57806323b872dd146101cf57806342842e0e146101eb5780636352211e1461020757610100565b806301ffc9a71461010557806306fdde0314610135578063081812fc14610153578063095ea7b314610183575b600080fd5b61011f600480360381019061011a9190611a31565b61036b565b60405161012c9190611a79565b60405180910390f35b61013d61044d565b60405161014a9190611b2d565b60405180910390f35b61016d60048036038101906101689190611b85565b6104df565b60405161017a9190611bf3565b60405180910390f35b61019d60048036038101906101989190611c3a565b610525565b005b6101b960048036038101906101b49190611cdf565b61063d565b6040516101c69190611d4e565b60405180910390f35b6101e960048036038101906101e49190611d69565b6106b9565b005b61020560048036038101906102009190611d69565b610719565b005b610221600480360381019061021c9190611b85565b610739565b60405161022e9190611bf3565b60405180910390f35b610251600480360381019061024c9190611dbc565b6107eb565b60405161025e9190611d4e565b60405180910390f35b610281600480360381019061027c9190611dbc565b610818565b60405161028e9190611d4e565b60405180910390f35b61029f6108d0565b6040516102ac9190611f41565b60405180910390f35b6102bd61099a565b6040516102ca9190611b2d565b60405180910390f35b6102ed60048036038101906102e89190611f8f565b610a2c565b005b610309600480360381019061030491906120ff565b610a42565b005b61032560048036038101906103209190611b85565b610aa4565b6040516103329190611b2d565b60405180910390f35b61035560048036038101906103509190612182565b610bb7565b6040516103629190611a79565b60405180910390f35b60007f80ac58cd000000000000000000000000000000000000000000000000000000007bffffffffffffffffffffffffffffffffffffffffffffffffffffffff1916827bffffffffffffffffffffffffffffffffffffffffffffffffffffffff1916148061043657507f5b5e139f000000000000000000000000000000000000000000000000000000007bffffffffffffffffffffffffffffffffffffffffffffffffffffffff1916827bffffffffffffffffffffffffffffffffffffffffffffffffffffffff1916145b80610446575061044582610c4b565b5b9050919050565b60606000805461045c906121f1565b80601f0160208091040260200160405190810160405280929190818152602001828054610488906121f1565b80156104d55780601f106104aa576101008083540402835291602001916104d5565b820191906000526020600020905b8154815290600101906020018083116104b857829003601f168201915b5050505050905090565b60006104ea82610cb5565b6004600083815260200190815260200160002060009054906101000a900473ffffffffffffffffffffffffffffffffffffffff169050919050565b600061053082610739565b90508073ffffffffffffffffffffffffffffffffffffffff168373ffffffffffffffffffffffffffffffffffffffff1614156105a1576040517f08c379a000000000000000000000000000000000000000000000000000000000815260040161059890612295565b60405180910390fd5b8073ffffffffffffffffffffffffffffffffffffffff166105c0610d00565b73ffffffffffffffffffffffffffffffffffffffff1614806105ef57506105ee816105e9610d00565b610bb7565b5b61062e576040517f08c379a000000000000000000000000000000000000000000000000000000000815260040161062590612327565b60405180910390fd5b6106388383610d08565b505050565b60008061064a6007610dc1565b90506106566007610dcf565b6106608582610de5565b6106ae8185858080601f016020809104026020016040519081016040528093929190818152602001838380828437600081840152601f19601f82011690508083019250505050505050610fbf565b809150509392505050565b6106ca6106c4610d00565b82611033565b610709576040517f08c379a0000000000000000000000000000000000000000000000000000000008152600401610700906123b9565b60405180910390fd5b6107148383836110c8565b505050565b61073483838360405180602001604052806000815250610a42565b505050565b6000806002600084815260200190815260200160002060009054906101000a900473ffffffffffffffffffffffffffffffffffffffff169050600073ffffffffffffffffffffffffffffffffffffffff168173ffffffffffffffffffffffffffffffffffffffff1614156107e2576040517f08c379a00000000000000000000000000000000000000000000000000000000081526004016107d990612425565b60405180910390fd5b80915050919050565b60006107f76007610dcf565b60006108036007610dc1565b905061080f8382610de5565b80915050919050565b60008073ffffffffffffffffffffffffffffffffffffffff168273ffffffffffffffffffffffffffffffffffffffff161415610889576040517f08c379a0000000000000000000000000000000000000000000000000000000008152600401610880906124b7565b60405180910390fd5b600360008373ffffffffffffffffffffffffffffffffffffffff1673ffffffffffffffffffffffffffffffffffffffff168152602001908152602001600020549050919050565b606060006108de6007610dc1565b905060008167ffffffffffffffff8111156108fc576108fb611fd4565b5b60405190808252806020026020018201604052801561093557816020015b610922611908565b81526020019060019003908161091a5790505b50905060005b8281101561099157604051806040016040528082815260200161095d83610aa4565b815250828281518110610973576109726124d7565b5b6020026020010181905250808061098990612535565b91505061093b565b50809250505090565b6060600180546109a9906121f1565b80601f01602080910402602001604051908101604052809291908181526020018280546109d5906121f1565b8015610a225780601f106109f757610100808354040283529160200191610a22565b820191906000526020600020905b815481529060010190602001808311610a0557829003601f168201915b5050505050905090565b610a3e610a37610d00565b838361132f565b5050565b610a53610a4d610d00565b83611033565b610a92576040517f08c379a0000000000000000000000000000000000000000000000000000000008152600401610a89906123b9565b60405180910390fd5b610a9e8484848461149c565b50505050565b6060610aaf82610cb5565b6000600660008481526020019081526020016000208054610acf906121f1565b80601f0160208091040260200160405190810160405280929190818152602001828054610afb906121f1565b8015610b485780601f10610b1d57610100808354040283529160200191610b48565b820191906000526020600020905b815481529060010190602001808311610b2b57829003601f168201915b505050505090506000610b596114f8565b9050600081511415610b6f578192505050610bb2565b600082511115610ba4578082604051602001610b8c9291906125ba565b60405160208183030381529060405292505050610bb2565b610bad8461150f565b925050505b919050565b6000600560008473ffffffffffffffffffffffffffffffffffffffff1673ffffffffffffffffffffffffffffffffffffffff16815260200190815260200160002060008373ffffffffffffffffffffffffffffffffffffffff1673ffffffffffffffffffffffffffffffffffffffff16815260200190815260200160002060009054906101000a900460ff16905092915050565b60007f01ffc9a7000000000000000000000000000000000000000000000000000000007bffffffffffffffffffffffffffffffffffffffffffffffffffffffff1916827bffffffffffffffffffffffffffffffffffffffffffffffffffffffff1916149050919050565b610cbe81611577565b610cfd576040517f08c379a0000000000000000000000000000000000000000000000000000000008152600401610cf490612425565b60405180910390fd5b50565b600033905090565b816004600083815260200190815260200160002060006101000a81548173ffffffffffffffffffffffffffffffffffffffff021916908373ffffffffffffffffffffffffffffffffffffffff160217905550808273ffffffffffffffffffffffffffffffffffffffff16610d7b83610739565b73ffffffffffffffffffffffffffffffffffffffff167f8c5be1e5ebec7d5bd14f71427d1e84f3dd0314c0f7b2291e5b200ac8c7c3b92560405160405180910390a45050565b600081600001549050919050565b6001816000016000828254019250508190555050565b600073ffffffffffffffffffffffffffffffffffffffff168273ffffffffffffffffffffffffffffffffffffffff161415610e55576040517f08c379a0000000000000000000000000000000000000000000000000000000008152600401610e4c9061262a565b60405180910390fd5b610e5e81611577565b15610e9e576040517f08c379a0000000000000000000000000000000000000000000000000000000008152600401610e9590612696565b60405180910390fd5b610eaa600083836115e3565b6001600360008473ffffffffffffffffffffffffffffffffffffffff1673ffffffffffffffffffffffffffffffffffffffff1681526020019081526020016000206000828254610efa91906126b6565b92505081905550816002600083815260200190815260200160002060006101000a81548173ffffffffffffffffffffffffffffffffffffffff021916908373ffffffffffffffffffffffffffffffffffffffff160217905550808273ffffffffffffffffffffffffffffffffffffffff16600073ffffffffffffffffffffffffffffffffffffffff167fddf252ad1be2c89b69c2b068fc378daa952ba7f163c4a11628f55a4df523b3ef60405160405180910390a4610fbb600083836115e8565b5050565b610fc882611577565b611007576040517f08c379a0000000000000000000000000000000000000000000000000000000008152600401610ffe9061277e565b60405180910390fd5b8060066000848152602001908152602001600020908051906020019061102e929190611922565b505050565b60008061103f83610739565b90508073ffffffffffffffffffffffffffffffffffffffff168473ffffffffffffffffffffffffffffffffffffffff16148061108157506110808185610bb7565b5b806110bf57508373ffffffffffffffffffffffffffffffffffffffff166110a7846104df565b73ffffffffffffffffffffffffffffffffffffffff16145b91505092915050565b8273ffffffffffffffffffffffffffffffffffffffff166110e882610739565b73ffffffffffffffffffffffffffffffffffffffff161461113e576040517f08c379a000000000000000000000000000000000000000000000000000000000815260040161113590612810565b60405180910390fd5b600073ffffffffffffffffffffffffffffffffffffffff168273ffffffffffffffffffffffffffffffffffffffff1614156111ae576040517f08c379a00000000000000000000000000000000000000000000000000000000081526004016111a5906128a2565b60405180910390fd5b6111b98383836115e3565b6111c4600082610d08565b6001600360008573ffffffffffffffffffffffffffffffffffffffff1673ffffffffffffffffffffffffffffffffffffffff168152602001908152602001600020600082825461121491906128c2565b925050819055506001600360008473ffffffffffffffffffffffffffffffffffffffff1673ffffffffffffffffffffffffffffffffffffffff168152602001908152602001600020600082825461126b91906126b6565b92505081905550816002600083815260200190815260200160002060006101000a81548173ffffffffffffffffffffffffffffffffffffffff021916908373ffffffffffffffffffffffffffffffffffffffff160217905550808273ffffffffffffffffffffffffffffffffffffffff168473ffffffffffffffffffffffffffffffffffffffff167fddf252ad1be2c89b69c2b068fc378daa952ba7f163c4a11628f55a4df523b3ef60405160405180910390a461132a8383836115e8565b505050565b8173ffffffffffffffffffffffffffffffffffffffff168373ffffffffffffffffffffffffffffffffffffffff16141561139e576040517f08c379a000000000000000000000000000000000000000000000000000000000815260040161139590612942565b60405180910390fd5b80600560008573ffffffffffffffffffffffffffffffffffffffff1673ffffffffffffffffffffffffffffffffffffffff16815260200190815260200160002060008473ffffffffffffffffffffffffffffffffffffffff1673ffffffffffffffffffffffffffffffffffffffff16815260200190815260200160002060006101000a81548160ff0219169083151502179055508173ffffffffffffffffffffffffffffffffffffffff168373ffffffffffffffffffffffffffffffffffffffff167f17307eab39ab6107e8899845ad3d59bd9653f200f220920489ca2b5937696c318360405161148f9190611a79565b60405180910390a3505050565b6114a78484846110c8565b6114b3848484846115ed565b6114f2576040517f08c379a00000000000000000000000000000000000000000000000000000000081526004016114e9906129d4565b60405180910390fd5b50505050565b606060405180602001604052806000815250905090565b606061151a82610cb5565b60006115246114f8565b90506000815111611544576040518060200160405280600081525061156f565b8061154e84611784565b60405160200161155f9291906125ba565b6040516020818303038152906040525b915050919050565b60008073ffffffffffffffffffffffffffffffffffffffff166002600084815260200190815260200160002060009054906101000a900473ffffffffffffffffffffffffffffffffffffffff1673ffffffffffffffffffffffffffffffffffffffff1614159050919050565b505050565b505050565b600061160e8473ffffffffffffffffffffffffffffffffffffffff166118e5565b15611777578373ffffffffffffffffffffffffffffffffffffffff1663150b7a02611637610d00565b8786866040518563ffffffff1660e01b81526004016116599493929190612a49565b602060405180830381600087803b15801561167357600080fd5b505af19250505080156116a457506040513d601f19601f820116820180604052508101906116a19190612aaa565b60015b611727573d80600081146116d4576040519150601f19603f3d011682016040523d82523d6000602084013e6116d9565b606091505b5060008151141561171f576040517f08c379a0000000000000000000000000000000000000000000000000000000008152600401611716906129d4565b60405180910390fd5b805181602001fd5b63150b7a0260e01b7bffffffffffffffffffffffffffffffffffffffffffffffffffffffff1916817bffffffffffffffffffffffffffffffffffffffffffffffffffffffff19161491505061177c565b600190505b949350505050565b606060008214156117cc576040518060400160405280600181526020017f300000000000000000000000000000000000000000000000000000000000000081525090506118e0565b600082905060005b600082146117fe5780806117e790612535565b915050600a826117f79190612b06565b91506117d4565b60008167ffffffffffffffff81111561181a57611819611fd4565b5b6040519080825280601f01601f19166020018201604052801561184c5781602001600182028036833780820191505090505b5090505b600085146118d95760018261186591906128c2565b9150600a856118749190612b37565b603061188091906126b6565b60f81b818381518110611896576118956124d7565b5b60200101907effffffffffffffffffffffffffffffffffffffffffffffffffffffffffffff1916908160001a905350600a856118d29190612b06565b9450611850565b8093505050505b919050565b6000808273ffffffffffffffffffffffffffffffffffffffff163b119050919050565b604051806040016040528060008152602001606081525090565b82805461192e906121f1565b90600052602060002090601f0160209004810192826119505760008555611997565b82601f1061196957805160ff1916838001178555611997565b82800160010185558215611997579182015b8281111561199657825182559160200191906001019061197b565b5b5090506119a491906119a8565b5090565b5b808211156119c15760008160009055506001016119a9565b5090565b6000604051905090565b600080fd5b600080fd5b60007fffffffff0000000000000000000000000000000000000000000000000000000082169050919050565b611a0e816119d9565b8114611a1957600080fd5b50565b600081359050611a2b81611a05565b92915050565b600060208284031215611a4757611a466119cf565b5b6000611a5584828501611a1c565b91505092915050565b60008115159050919050565b611a7381611a5e565b82525050565b6000602082019050611a8e6000830184611a6a565b92915050565b600081519050919050565b600082825260208201905092915050565b60005b83811015611ace578082015181840152602081019050611ab3565b83811115611add576000848401525b50505050565b6000601f19601f8301169050919050565b6000611aff82611a94565b611b098185611a9f565b9350611b19818560208601611ab0565b611b2281611ae3565b840191505092915050565b60006020820190508181036000830152611b478184611af4565b905092915050565b6000819050919050565b611b6281611b4f565b8114611b6d57600080fd5b50565b600081359050611b7f81611b59565b92915050565b600060208284031215611b9b57611b9a6119cf565b5b6000611ba984828501611b70565b91505092915050565b600073ffffffffffffffffffffffffffffffffffffffff82169050919050565b6000611bdd82611bb2565b9050919050565b611bed81611bd2565b82525050565b6000602082019050611c086000830184611be4565b92915050565b611c1781611bd2565b8114611c2257600080fd5b50565b600081359050611c3481611c0e565b92915050565b60008060408385031215611c5157611c506119cf565b5b6000611c5f85828601611c25565b9250506020611c7085828601611b70565b9150509250929050565b600080fd5b600080fd5b600080fd5b60008083601f840112611c9f57611c9e611c7a565b5b8235905067ffffffffffffffff811115611cbc57611cbb611c7f565b5b602083019150836001820283011115611cd857611cd7611c84565b5b9250929050565b600080600060408486031215611cf857611cf76119cf565b5b6000611d0686828701611c25565b935050602084013567ffffffffffffffff811115611d2757611d266119d4565b5b611d3386828701611c89565b92509250509250925092565b611d4881611b4f565b82525050565b6000602082019050611d636000830184611d3f565b92915050565b600080600060608486031215611d8257611d816119cf565b5b6000611d9086828701611c25565b9350506020611da186828701611c25565b9250506040611db286828701611b70565b9150509250925092565b600060208284031215611dd257611dd16119cf565b5b6000611de084828501611c25565b91505092915050565b600081519050919050565b600082825260208201905092915050565b6000819050602082019050919050565b611e1e81611b4f565b82525050565b600082825260208201905092915050565b6000611e4082611a94565b611e4a8185611e24565b9350611e5a818560208601611ab0565b611e6381611ae3565b840191505092915050565b6000604083016000830151611e866000860182611e15565b5060208301518482036020860152611e9e8282611e35565b9150508091505092915050565b6000611eb78383611e6e565b905092915050565b6000602082019050919050565b6000611ed782611de9565b611ee18185611df4565b935083602082028501611ef385611e05565b8060005b85811015611f2f5784840389528151611f108582611eab565b9450611f1b83611ebf565b925060208a01995050600181019050611ef7565b50829750879550505050505092915050565b60006020820190508181036000830152611f5b8184611ecc565b905092915050565b611f6c81611a5e565b8114611f7757600080fd5b50565b600081359050611f8981611f63565b92915050565b60008060408385031215611fa657611fa56119cf565b5b6000611fb485828601611c25565b9250506020611fc585828601611f7a565b9150509250929050565b600080fd5b7f4e487b7100000000000000000000000000000000000000000000000000000000600052604160045260246000fd5b61200c82611ae3565b810181811067ffffffffffffffff8211171561202b5761202a611fd4565b5b80604052505050565b600061203e6119c5565b905061204a8282612003565b919050565b600067ffffffffffffffff82111561206a57612069611fd4565b5b61207382611ae3565b9050602081019050919050565b82818337600083830152505050565b60006120a261209d8461204f565b612034565b9050828152602081018484840111156120be576120bd611fcf565b5b6120c9848285612080565b509392505050565b600082601f8301126120e6576120e5611c7a565b5b81356120f684826020860161208f565b91505092915050565b60008060008060808587031215612119576121186119cf565b5b600061212787828801611c25565b945050602061213887828801611c25565b935050604061214987828801611b70565b925050606085013567ffffffffffffffff81111561216a576121696119d4565b5b612176878288016120d1565b91505092959194509250565b60008060408385031215612199576121986119cf565b5b60006121a785828601611c25565b92505060206121b885828601611c25565b9150509250929050565b7f4e487b7100000000000000000000000000000000000000000000000000000000600052602260045260246000fd5b6000600282049050600182168061220957607f821691505b6020821081141561221d5761221c6121c2565b5b50919050565b7f4552433732313a20617070726f76616c20746f2063757272656e74206f776e6560008201527f7200000000000000000000000000000000000000000000000000000000000000602082015250565b600061227f602183611a9f565b915061228a82612223565b604082019050919050565b600060208201905081810360008301526122ae81612272565b9050919050565b7f4552433732313a20617070726f76652063616c6c6572206973206e6f7420746f60008201527f6b656e206f776e6572206e6f7220617070726f76656420666f7220616c6c0000602082015250565b6000612311603e83611a9f565b915061231c826122b5565b604082019050919050565b6000602082019050818103600083015261234081612304565b9050919050565b7f4552433732313a2063616c6c6572206973206e6f7420746f6b656e206f776e6560008201527f72206e6f7220617070726f766564000000000000000000000000000000000000602082015250565b60006123a3602e83611a9f565b91506123ae82612347565b604082019050919050565b600060208201905081810360008301526123d281612396565b9050919050565b7f4552433732313a20696e76616c696420746f6b656e2049440000000000000000600082015250565b600061240f601883611a9f565b915061241a826123d9565b602082019050919050565b6000602082019050818103600083015261243e81612402565b9050919050565b7f4552433732313a2061646472657373207a65726f206973206e6f74206120766160008201527f6c6964206f776e65720000000000000000000000000000000000000000000000602082015250565b60006124a1602983611a9f565b91506124ac82612445565b604082019050919050565b600060208201905081810360008301526124d081612494565b9050919050565b7f4e487b7100000000000000000000000000000000000000000000000000000000600052603260045260246000fd5b7f4e487b7100000000000000000000000000000000000000000000000000000000600052601160045260246000fd5b600061254082611b4f565b91507fffffffffffffffffffffffffffffffffffffffffffffffffffffffffffffffff82141561257357612572612506565b5b600182019050919050565b600081905092915050565b600061259482611a94565b61259e818561257e565b93506125ae818560208601611ab0565b80840191505092915050565b60006125c68285612589565b91506125d28284612589565b91508190509392505050565b7f4552433732313a206d696e7420746f20746865207a65726f2061646472657373600082015250565b6000612614602083611a9f565b915061261f826125de565b602082019050919050565b6000602082019050818103600083015261264381612607565b9050919050565b7f4552433732313a20746f6b656e20616c7265616479206d696e74656400000000600082015250565b6000612680601c83611a9f565b915061268b8261264a565b602082019050919050565b600060208201905081810360008301526126af81612673565b9050919050565b60006126c182611b4f565b91506126cc83611b4f565b9250827fffffffffffffffffffffffffffffffffffffffffffffffffffffffffffffffff0382111561270157612700612506565b5b828201905092915050565b7f45524337323155524953746f726167653a2055524920736574206f66206e6f6e60008201527f6578697374656e7420746f6b656e000000000000000000000000000000000000602082015250565b6000612768602e83611a9f565b91506127738261270c565b604082019050919050565b600060208201905081810360008301526127978161275b565b9050919050565b7f4552433732313a207472616e736665722066726f6d20696e636f72726563742060008201527f6f776e6572000000000000000000000000000000000000000000000000000000602082015250565b60006127fa602583611a9f565b91506128058261279e565b604082019050919050565b60006020820190508181036000830152612829816127ed565b9050919050565b7f4552433732313a207472616e7366657220746f20746865207a65726f2061646460008201527f7265737300000000000000000000000000000000000000000000000000000000602082015250565b600061288c602483611a9f565b915061289782612830565b604082019050919050565b600060208201905081810360008301526128bb8161287f565b9050919050565b60006128cd82611b4f565b91506128d883611b4f565b9250828210156128eb576128ea612506565b5b828203905092915050565b7f4552433732313a20617070726f766520746f2063616c6c657200000000000000600082015250565b600061292c601983611a9f565b9150612937826128f6565b602082019050919050565b6000602082019050818103600083015261295b8161291f565b9050919050565b7f4552433732313a207472616e7366657220746f206e6f6e20455243373231526560008201527f63656976657220696d706c656d656e7465720000000000000000000000000000602082015250565b60006129be603283611a9f565b91506129c982612962565b604082019050919050565b600060208201905081810360008301526129ed816129b1565b9050919050565b600081519050919050565b600082825260208201905092915050565b6000612a1b826129f4565b612a2581856129ff565b9350612a35818560208601611ab0565b612a3e81611ae3565b840191505092915050565b6000608082019050612a5e6000830187611be4565b612a6b6020830186611be4565b612a786040830185611d3f565b8181036060830152612a8a8184612a10565b905095945050505050565b600081519050612aa481611a05565b92915050565b600060208284031215612ac057612abf6119cf565b5b6000612ace84828501612a95565b91505092915050565b7f4e487b7100000000000000000000000000000000000000000000000000000000600052601260045260246000fd5b6000612b1182611b4f565b9150612b1c83611b4f565b925082612b2c57612b2b612ad7565b5b828204905092915050565b6000612b4282611b4f565b9150612b4d83611b4f565b925082612b5d57612b5c612ad7565b5b82820690509291505056fea26469706673582212208082b3883910dbb63d24e6eddb621b0d060776acbdb1234ffc0e04c1a4b6700f64736f6c63430008090033",
  "devdoc": {
    "kind": "dev",
    "methods": {
      "approve(address,uint256)": {
        "details": "See {IERC721-approve}."
      },
      "balanceOf(address)": {
        "details": "See {IERC721-balanceOf}."
      },
      "getApproved(uint256)": {
        "details": "See {IERC721-getApproved}."
      },
      "isApprovedForAll(address,address)": {
        "details": "See {IERC721-isApprovedForAll}."
      },
      "name()": {
        "details": "See {IERC721Metadata-name}."
      },
      "ownerOf(uint256)": {
        "details": "See {IERC721-ownerOf}."
      },
      "safeTransferFrom(address,address,uint256)": {
        "details": "See {IERC721-safeTransferFrom}."
      },
      "safeTransferFrom(address,address,uint256,bytes)": {
        "details": "See {IERC721-safeTransferFrom}."
      },
      "setApprovalForAll(address,bool)": {
        "details": "See {IERC721-setApprovalForAll}."
      },
      "supportsInterface(bytes4)": {
        "details": "See {IERC165-supportsInterface}."
      },
      "symbol()": {
        "details": "See {IERC721Metadata-symbol}."
      },
      "tokenURI(uint256)": {
        "details": "See {IERC721Metadata-tokenURI}."
      },
      "transferFrom(address,address,uint256)": {
        "details": "See {IERC721-transferFrom}."
      }
    },
    "version": 1
  },
  "userdoc": {
    "kind": "user",
    "methods": {},
    "version": 1
  },
  "storageLayout": {
    "storage": [
      {
        "astId": 25,
        "contract": "contracts/TestERC721.sol:TestERC721",
        "label": "_name",
        "offset": 0,
        "slot": "0",
        "type": "t_string_storage"
      },
      {
        "astId": 27,
        "contract": "contracts/TestERC721.sol:TestERC721",
        "label": "_symbol",
        "offset": 0,
        "slot": "1",
        "type": "t_string_storage"
      },
      {
        "astId": 31,
        "contract": "contracts/TestERC721.sol:TestERC721",
        "label": "_owners",
        "offset": 0,
        "slot": "2",
        "type": "t_mapping(t_uint256,t_address)"
      },
      {
        "astId": 35,
        "contract": "contracts/TestERC721.sol:TestERC721",
        "label": "_balances",
        "offset": 0,
        "slot": "3",
        "type": "t_mapping(t_address,t_uint256)"
      },
      {
        "astId": 39,
        "contract": "contracts/TestERC721.sol:TestERC721",
        "label": "_tokenApprovals",
        "offset": 0,
        "slot": "4",
        "type": "t_mapping(t_uint256,t_address)"
      },
      {
        "astId": 45,
        "contract": "contracts/TestERC721.sol:TestERC721",
        "label": "_operatorApprovals",
        "offset": 0,
        "slot": "5",
        "type": "t_mapping(t_address,t_mapping(t_address,t_bool))"
      },
      {
        "astId": 1013,
        "contract": "contracts/TestERC721.sol:TestERC721",
        "label": "_tokenURIs",
        "offset": 0,
        "slot": "6",
        "type": "t_mapping(t_uint256,t_string_storage)"
      },
      {
        "astId": 2439,
        "contract": "contracts/TestERC721.sol:TestERC721",
        "label": "_tokenIds",
        "offset": 0,
        "slot": "7",
        "type": "t_struct(Counter)1475_storage"
      }
    ],
    "types": {
      "t_address": {
        "encoding": "inplace",
        "label": "address",
        "numberOfBytes": "20"
      },
      "t_bool": {
        "encoding": "inplace",
        "label": "bool",
        "numberOfBytes": "1"
      },
      "t_mapping(t_address,t_bool)": {
        "encoding": "mapping",
        "key": "t_address",
        "label": "mapping(address => bool)",
        "numberOfBytes": "32",
        "value": "t_bool"
      },
      "t_mapping(t_address,t_mapping(t_address,t_bool))": {
        "encoding": "mapping",
        "key": "t_address",
        "label": "mapping(address => mapping(address => bool))",
        "numberOfBytes": "32",
        "value": "t_mapping(t_address,t_bool)"
      },
      "t_mapping(t_address,t_uint256)": {
        "encoding": "mapping",
        "key": "t_address",
        "label": "mapping(address => uint256)",
        "numberOfBytes": "32",
        "value": "t_uint256"
      },
      "t_mapping(t_uint256,t_address)": {
        "encoding": "mapping",
        "key": "t_uint256",
        "label": "mapping(uint256 => address)",
        "numberOfBytes": "32",
        "value": "t_address"
      },
      "t_mapping(t_uint256,t_string_storage)": {
        "encoding": "mapping",
        "key": "t_uint256",
        "label": "mapping(uint256 => string)",
        "numberOfBytes": "32",
        "value": "t_string_storage"
      },
      "t_string_storage": {
        "encoding": "bytes",
        "label": "string",
        "numberOfBytes": "32"
      },
      "t_struct(Counter)1475_storage": {
        "encoding": "inplace",
        "label": "struct Counters.Counter",
        "members": [
          {
            "astId": 1474,
            "contract": "contracts/TestERC721.sol:TestERC721",
            "label": "_value",
            "offset": 0,
            "slot": "0",
            "type": "t_uint256"
          }
        ],
        "numberOfBytes": "32"
      },
      "t_uint256": {
        "encoding": "inplace",
        "label": "uint256",
        "numberOfBytes": "32"
      }
    }
  }
}